:020000040802F0
:1000000000000220C1070208493602085D360208D6
:100010006D3602087D3602088D36020800000000A9
:100020000000000000000000000000009D360208F3
:10003000A936020800000000B5360208A50502082E
:100040001108020811080208251F020811080208F9
:10005000110802081108020811080208694802087C
:100060001108020811080208110802081108020804
:1000700011080208110802081108020811080208F4
:1000800011080208110802081108020811080208E4
:1000900011080208110802081108020811080208D4
:1000A00011080208110802081108020811080208C4
:1000B000ED1D0208110802081108020811080208C3
:1000C00011080208110802081108020811080208A4
:1000D0001108020811080208110802081108020894
:1000E00011080208451F0208110802081108020839
:1000F0001108020811080208110802081108020874
:100100001108020811080208110802081108020863
:100110001108020811080208110802081108020853
:100120001108020811080208110802081108020843
:100130001108020811080208110802081108020833
:100140001108020811080208110802081108020823
:100150001108020811080208110802081108020813
:100160001108020811080208110802081108020803
:100170001108020811080208110802080000000016
:100180001108020810B5054C237833B9044B13B19C
:100190000448AFF300800123237010BD90040020B9
:1001A00000000000187D0208084B10B51BB108497B
:1001B0000848AFF300800848036803B910BD074B37
:1001C000002BFBD0BDE81040184700BF0000000026
:1001D00094040020187D02088C0400200000000018
:1001E00080B582B000AF0121022004F029F801217E
:1001F000012004F025F801214FF4805004F07AF832
:1002000005220521294803F013FE0522062127486F
:1002100003F00EFE05220721244803F009FE2023E7
:100220003B6002233B7103237B710023BB710123DD
:10023000FB713B4619461D4803F050FD40233B60CF
:100240003B461946194803F049FD80233B603B4675
:100250001946164803F042FD154B00221A80144B34
:100260004FF482725A80124B00229A80104B002267
:10027000DA800F4B00221A810D4B4FF400725A8125
:100280000B4B20229A810A4B0022DA81084B07226D
:100290001A820749074800F021FD0121054800F0B6
:1002A00061FD00BF0837BD4680BD00BF00000240B1
:1002B000AC0400200030014080B584B000AF78600D
:1002C0000B46FB7000BF7B681B899BB203F00203E7
:1002D000002BF8D0FB789BB21946786800F06EFDD1
:1002E00000BF7B681B899BB203F00103002BF8D091
:1002F000786800F057FD0346FB73FB7B1846103708
:10030000BD4680BD80B584B000AF78600B467B8071
:100310007B88002B17D07B88082B14D07B88102B70
:1003200011D07B88182B0ED07B88202B0BD07B889C
:10033000282B08D07B88302B05D07B88382B02D027
:100340004FF0FF332CE07B68174A934202D1174BE2
:10035000FB600FE07B68164A934202D1154BFB60AD
:1003600008E07B68144A934202D1144BFB6001E021
:100370000023FB60FB68002B10D00021786800F0A0
:10038000F1FCFB687A889A81F968786800F0A6FC2D
:100390000121786800F0E6FC002301E04FF0FF3314
:1003A00018461037BD4680BD00300140AC04002027
:1003B00000380040BE040020003C0040D004002073
:1003C00080B483B000AF78600B467B807B687A880E
:1003D0001A8000BF0C37BD4680BC704780B483B024
:1003E00000AF78607B681B889BB218460C37BD460F
:1003F00080BC704780B483B000AF03463960FB71A6
:1004000097F90730002B0BDA0D49FB7903F00F0346
:10041000043B3A68D2B21201D2B20B441A7609E018
:10042000084997F907303A68D2B21201D2B20B44A8
:1004300083F8002300BF0C37BD4680BC704700BF67
:1004400000ED00E000E100E080B582B000AF786030
:100450007B68B3F1807F01D3012311E00A4A7B68F6
:1004600023F07F43013B53600F214FF0FF30FFF734
:10047000C1FF054B00229A60034B07221A6000233C
:1004800018460837BD4680BD10E000E080B400AFDC
:10049000044B1B680133034A136000BFBD4680BC98
:1004A000704700BFE404002080B485B000AF7860DE
:1004B0000D4B1B680D4A934206D17B680C4AA2FB88
:1004C00003239B09FB6009E07B684FF47A7202FB0F
:1004D00003F3084AA2FB0323DB0BFB60FB6818460F
:1004E0001437BD4680BC70472C000020000E270743
:1004F0008988888873B2E74580B582B000AF00F084
:100500001FF87860084B1B683B607868FFF7CCFFEA
:1005100001463B684FF47A7202FB03F30B44184622
:100520000837BD4680BD00BFE404002080B400AFA2
:10053000024B1B681846BD4680BC7047E40400208F
:1005400080B400AF044B9B68C3F5EA33C033184650
:10055000BD4680BC704700BF10E000E080B500AF32
:100560000348FFF771FF034B00221A6000BF80BDF4
:10057000C0D40100E404002080B485B000AF7860EE
:10058000074B1A687B681344FB6000BF044B1A6872
:10059000FB689A42FAD300BF1437BD4680BC70474F
:1005A000E404002080B500AFFFF770FF00BF80BDFE
:1005B00080B58AB000AF7860396000237B62002389
:1005C0003B620023FB610023BB617B681B8A9BB2FB
:1005D0007B627B6A23F440537B623B68DB881A466C
:1005E0007B6A13437B627B6A9AB27B681A827B6860
:1005F0009B899BB27B627B6A23F4B05323F00C038C
:100600007B623B689A883B681B8913439AB23B68BC
:100610005B8913439BB21A467B6A13437B627B6AF6
:100620009AB27B689A817B689B8A9BB27B627B6A69
:1006300023F440737B623B689B891A467B6A1343B1
:100640007B627B6A9AB27B689A8207F1080318463C
:1006500003F04CFD7B68304A934203D07B682F4AFD
:10066000934202D17B693B6201E03B693B627B685C
:100670009B899BB21BB2002B0CDA3A6A13469B0093
:1006800013449A001A443B681B685B00B2FBF3F307
:10069000FB610BE03A6A13469B0013449A001A442C
:1006A0003B681B689B00B2FBF3F3FB61FB691C4AD0
:1006B000A2FB03235B091B017B627B6A1B0964228B
:1006C00002FB03F3FA69D31ABB617B689B899BB277
:1006D0001BB2002B0CDABB69DB003233104AA2FBE1
:1006E00003235B0903F007037A6A13437B620BE081
:1006F000BB691B0132330A4AA2FB03235B0903F0E7
:100700000F037A6A13437B627B6A9AB27B681A8111
:1007100000BF2837BD4680BD0010014000140140D5
:100720001F85EB5180B483B000AF78600B46FB703F
:10073000FB78002B08D07B689B899BB243F4005365
:100740009AB27B689A8107E07B689B899BB223F40D
:1007500000539AB27B689A8100BF0C37BD4680BCBB
:10076000704700BF80B483B000AF78600B467B80D9
:100770007B88C3F308039AB27B689A8000BF0C376A
:10078000BD4680BC704700BF80B485B000AF7860C4
:100790000B467B800023FB737B681B889AB27B88A7
:1007A00013409BB2002B02D00123FB7301E0002316
:1007B000FB73FB7B18461437BD4680BC704700BFF7
:1007C000DFF834D0002103E00C4B5B584350043178
:1007D0000B480C4B42189A42F6D30B4A02E0002316
:1007E00042F8043B094B9A42F9D303F069FB06F047
:1007F00007FE01F065F9704700000220187D02082D
:100800000000002090040020900400201C0C002018
:10081000FEE7000080B500AF002002F0FFF90749B5
:10082000002002F023FA02F0B1FA00F01DFA02F003
:10083000C9FA02F031FB00BF80BD00BF00127A0090
:1008400080B584B000AF03460A46FB711346BB7106
:1008500000F0C6F91149002002F008FA02F082FA0D
:10086000FB799BB203F03F039BB2FB81BB791B0278
:100870001AB2FB891BB213431BB29BB2FB8107F177
:100880000E0102230022002002F012FA02F074FA94
:1008900000F0B8F900BF1037BD4680BD0024F40059
:1008A00080B584B000AF03463960FB711346BB715D
:1008B0000023FB73BB79002B22D03B68002B1FD099
:1008C00000F08EF91049002002F0D0F902F04AFA47
:1008D000FB7903F03F03DBB2FB7307F10F01012348
:1008E0000022002002F0E4F9BB791BB20022396833
:1008F000002002F0DDF902F03FFA00F083F900E099
:1009000000BF1037BD4680BD0024F40080B584B020
:1009100000AF78600B46FB70FB78002B1FD07B6824
:10092000002B1CD000F05CF90F49002002F09EF96A
:1009300002F018FA4023FB7307F10F010123002294
:10094000002002F0B5F9FB781BB200227968002084
:1009500002F0AEF902F010FA00F054F900E000BF26
:100960001037BD4680BD00BF0024F40080B584B0C0
:1009700000AF0346FB7100F033F91349002002F089
:1009800075F902F0EFF997F9073003F03F035BB216
:1009900063F07F035BB2DBB2FB7307F10F0101234E
:1009A0000022002002F084F907F10E020123002149
:1009B000002002F07DF902F0DFF900F023F9BB7BA3
:1009C00018461037BD4680BD00127A0080B584B04D
:1009D00000AF03463960FB711346BB71BB79002B36
:1009E00002D03B68002B01D1002325E000F0F8F88D
:1009F0001349002002F03AF902F0B4F997F90730F0
:100A000003F03F035BB263F07F035BB2DBB2FB73C7
:100A100007F10E0207F10F010123002002F048F94F
:100A2000BB791BB23A680021002002F041F902F0C4
:100A3000A3F900F0E7F8BB7B18461037BD4680BD30
:100A400000127A0080B584B000AF78600B46FB706E
:100A5000FB78002B02D07B68002B01D100231DE026
:100A600000F0BEF80F49002002F000F902F07AF918
:100A7000C023FB7307F10E0207F10F0101230020D1
:100A800002F016F9FB781BB27A680021002002F010
:100A90000FF902F071F900F0B5F8BB7B184610377A
:100AA000BD4680BD00127A0080B584B000AF034619
:100AB0000A46FB711346BB7100F092F81149002001
:100AC00002F0D4F802F04EF93E23FB60FB791B02E2
:100AD0001A46FB681343FB60BB791B041A46FB688C
:100AE0001343FB6007F10C0103230022002002F0F6
:100AF000DFF802F041F900F085F800BF1037BD467D
:100B000080BD00BF0024F40080B584B000AF034670
:100B10003960FB711346BB71BB79002B28D03B6851
:100B2000002B25D000F05CF81349002002F09EF85D
:100B300002F018F93E23FB81FB791B021AB2FB89F4
:100B40001BB213431BB29BB2FB8107F10E010223C0
:100B50000022002002F0ACF8BB791BB200223968F9
:100B6000002002F0A5F802F007F900F04BF800E0D1
:100B700000BF1037BD4680BD0024F40080B584B0AE
:100B800000AF0346FB7100F02BF81449002002F07F
:100B90006DF802F0E7F8BE23FB81FB791B021AB265
:100BA000FB891BB213431BB29BB2FB8107F10E0101
:100BB00002230022002002F07BF807F10D0201233E
:100BC0000021002002F074F802F0D6F800F01AF8C4
:100BD0007B7B18461037BD4680BD00BF00127A00EF
:100BE00080B500AF064B1B68002B01D102F02CF939
:100BF000034B1B680133024A136000BF80BD00BF76
:100C00000000002080B500AF084B1B68002B0AD005
:100C1000064B1B68013B054A1360044B1B68002B05
:100C200001D102F025F900BF80BD00BF0000002007
:100C300080B500AF022005F0E7FA00BF80BD00BF1D
:100C400080B500AF0421024803F0E4F800BF80BD86
:100C50000000024080B500AF0421024803F0CCF848
:100C600000BF80BD0000024080B582B000AF40F6FA
:100C7000B8337B60FFF7E4FF00BF7B685A1E7A60E1
:100C8000002BFAD1FFF7E6FF40F6B8337B6000BFD8
:100C90007B685A1E7A60002BFAD100BF0837BD4628
:100CA00080BD00BF80B584B000AF0346FB7197F9EB
:100CB000073003F007035BB263F077035BB2FB73AB
:100CC000FB79082B01D18323FB73FB7B19463C2066
:100CD000FFF7B6FD00BF1037BD4680BD80B485B0BC
:100CE00000AF786039600023FB817B681B88FB8143
:100CF000FB8903F44153FB813B681A883B685B889E
:100D000013439AB23B689B8813439AB23B68DB88D3
:100D100013439AB23B681B8913439AB23B685B89C1
:100D200013439AB23B689B8913439AB23B68DB89B1
:100D300013439AB2FB891343FB817B68FA891A80BB
:100D40007B689B8B9BB223F400639AB27B689A8387
:100D50003B681A8A7B681A8200BF1437BD4680BC84
:100D6000704700BF80B483B000AF78600B46FB7063
:100D7000FB78002B08D07B681B889BB243F04003B4
:100D80009AB27B681A8007E07B681B889BB223F0CD
:100D900040039AB27B681A8000BF0C37BD4680BC06
:100DA000704700BF80B483B000AF78607B689B89D8
:100DB0009BB218460C37BD4680BC704780B483B0E8
:100DC00000AF78600B467B807B687A889A8100BF91
:100DD0000C37BD4680BC704780B483B000AF03467B
:100DE000FB71FB79002B06D0084A084B1B6843F0C7
:100DF0000403136005E0054A044B1B6823F0040359
:100E0000136000BF0C37BD4680BC70470008065019
:100E100080B400AF024B9B681846BD4680BC70474B
:100E20000008065080B485B000AF0346FB71002374
:100E3000FB73084B5A68FB791340002B02D0012347
:100E4000FB7301E00023FB73FB7B18461437BD46A0
:100E500080BC70470008065080B400AF074B0022EA
:100E60001A70074B00221A70064B00221A70064BAC
:100E700000221A7000BFBD4680BC7047B90900202F
:100E8000A4090020B8090020E804002080B500AFC4
:100E900004F08EF800F02AFA9C4B1B780D2B00F220
:100EA000218101A252F823F0E5100208E10E0208A8
:100EB0003F0F0208E51002089B0F0208E510020828
:100EC000590F0208810F0208C10F0208E90F02083A
:100ED0000510020899100208A7100208CD10020898
:100EE0008B4B1B78092B02D00B2B07D027E000205F
:100EF00000F01AF9854B02221A7020E0844B5B7ACD
:100F0000002B08D0834A53796FF3C30353717F4B8F
:100F100006221A70C0E77D4B04221A7002F044FECC
:100F200003F08AFF03F0CEFF03461A46784B1A738C
:100F3000774B1B7B002BAFD0744B00221A70764B83
:100F40001B78002B40F0D080744B1A79704B1A73C9
:100F50006E4B00221A70D6E06F4B1B78002B40F0CE
:100F6000C5806E4B07221A70684B07221A706B4BB4
:100F70000A221A71684B01221A7004F019F8C2E0B3
:100F8000654B1B78002B40F0B380644B1A79604BA3
:100F90001A735E4B00221A70B5E05E4A13796FF344
:100FA000000313715D4B14229A705D4B03221A707B
:100FB000584BFF2283F82420544B08221A706BE709
:100FC000554B1B78002B40F09580544B06221A702D
:100FD0004E4B09221A70514B0A221A714E4B0122B4
:100FE0001A7003F0E5FF8EE04B4B1B78002B40F0AE
:100FF000838003F0D3F902464A4B1A60434B0A221E
:101000001A7080E0434B5B7903F00103DBB2002BE5
:1010100005D0404A53796FF3000353716EE003F03B
:10102000BDF902463F4B1B68D31AC82B66D93C4B0F
:101030001B78002B05D03A4B1B78013BDAB2384BBA
:101040001A70374B1B78002B03D0304B08221A70D4
:1010500022E7304B93F82430FF2B0CD02B4B0C2283
:101060001A702E4B9A782D4B9A702A4B1B8D18466E
:1010700003F064FF05E0264B10221A73234B002275
:101080001A70244A53796FF300035371214A53793C
:101090006FF34103537131E0204B14229A701B4BC4
:1010A0000C221A70F8E61C4B1B78002B28D11B4B26
:1010B00005221A70154B0D221A70184B0A221A714C
:1010C000154B01221A7003F073FF1CE0124B1B78C2
:1010D000002B17D1114B1A790D4B1A730B4B0022B1
:1010E0001A7010E000BF0EE000BF0CE000BF0AE085
:1010F00000BF08E000BF06E000BF04E000BF02E060
:1011000000BF00E000BF00BF80BD00BFB8090020E5
:10111000A8090020000B0020740B0020580B0020B1
:10112000F0040020EC04002080B582B000AF03463C
:10113000FB71664B5B7903F00803DBB2002B06D131
:10114000634B09229A70624B08221A70B1E0614B1E
:101150009B7A002B06D15E4B12229A705C4B0822C0
:101160001A70A6E0FB79002B6AD15B4B5B69013BEF
:10117000594A5361584B5B69584A12781A70574B59
:101180001B780133DAB2554B1A70534B5B69013B44
:10119000514A5361504B5B694E4A927A013AD1B23F
:1011A0004C4A91724B4A927A1A704B4B5B69013BE5
:1011B000494A5361484B5B69464A1289120A92B206
:1011C000D2B21A70444B5B69013B434A5361424BB4
:1011D0005B69404A1289D2B21A703F4B5B69013B8E
:1011E0003D4A53613C4B5B693A4A1288120A92B2FB
:1011F000D2B21A70384B5B69013B374A5361364BA8
:101200005B69344A1288D2B21A70334B5B69013B76
:10121000314A5361304B5B692E4A127B1A702E4B58
:101220005B69013B2C4A53612B4B5B69294AD27A9B
:101230001A70294B1B7E0833DAB2274B1A7600E06E
:1012400000BF224B5A8A264B1A80204B5A8A244BC5
:101250005A81204B1B884FF6FE7293420AD1204BD5
:10126000CC22DA731B4B5B68082219461D4803F039
:1012700077F806E01A4BC822DA73144B1A8A184B17
:101280005A80174BDB7B9B08DBB203F00303022B76
:1012900009D1134B5B884FF6FF72934203D1104B79
:1012A00041229A7302E00E4B61229A73084B03228B
:1012B0001A70074B0A221A710B4B01221A7003F0A5
:1012C00077FE00BF0837BD4680BD00BF000B002081
:1012D000580B0020BC090020A80A0020B9090020F2
:1012E000600B0020620B0020740B002080B582B0E0
:1012F00000AF2E4B1B78032B50D801A252F823F0DD
:101300009D13020811130208751302088B130208BB
:10131000274B1B68264A127A13447B607B681B7834
:1013200003F00303012B08D1214B1B68184606F07C
:1013300003F81E4B00221A7033E0786800F06AF858
:101340001B4B5B894FF6FF7293420BD0184B5B89A6
:101350004FF6FE72934205D0154B5A89154B1B88E8
:101360009A4203D1114B02221A7002E00F4B032262
:101370001A70BEE705F0C6FC0346002B10D105F03D
:10138000D1FC0A4B00221A700BE0094B1B6818466F
:1013900005F0D2FF054B00221A7002E000BF00E00A
:1013A00000BF00BF0837BD4680BD00BFE804002075
:1013B000CC090020C80A002080B400AF054B1B7880
:1013C000002B14BF01230023DBB21846BD4680BCAE
:1013D000704700BFE804002080B400AF0A4B1B68D0
:1013E0001B680A4A1360084B1B681A79074B1A716D
:1013F000054B9A7E054B1A72054B01221A7000BFED
:10140000BD4680BC704700BFE40A0020CC09002024
:10141000E804002080B483B000AF78607B680233BA
:101420007B607B681B789AB2164B5A817B680133CC
:101430007B60144B5A897B681B789BB21B029BB262
:1014400013449AB20F4B5A817B6801337B607B68EF
:101450001B789AB20B4B9A817B6801337B60094BF6
:101460009A897B681B789BB21B029BB213449AB289
:10147000044B9A817B6801337B6000BF0C37BD460B
:1014800080BC7047CC09002080B586B000AF034611
:10149000FB800123FB750023BB8200237B742AE0C1
:1014A0007B7C002B03D1BB8A01337B8208E0FB7D70
:1014B000184601F0A1F903461A467B8A13447B8241
:1014C000FA887B8A9A4201D17B8A22E0FB7D013334
:1014D000DAB27B8A1146184601F0CAF90346FB814D
:1014E000FA887B8A9A4203D9FA88FB899A4206D9FC
:1014F0007B7C01337B747B7C032BD1D900E000BF64
:10150000FB7D0133FB757B8ABB82FB7D032BC4D93A
:10151000002318461837BD4680BD00BF80B586B091
:1015200000AF0346FB800123FB820023FB74564B74
:101530001B88002B3FD0544B1B88FA889A4201D15C
:1015400001239CE0514B1B8ABB82504B5B7D013BCE
:10155000FB74BA8AFB889A4201D1FB8A8FE0BB8A6E
:10156000002B2AD0FB7C0133DAB2BB8A1146184625
:1015700001F07EF90346FB81FA88BB8A9A4203D9BF
:10158000FA88FB899A421AD9FB7C013BFB74FB8ADF
:101590000133FB82FB7C002B02D10023BB82D8E706
:1015A000BB8A1846FFF770FF0346BB82BB8A002B3D
:1015B000CFD10A2363E000BF02E000BF00E000BF1C
:1015C000FB7C0133FB74FB8A0133FB82FA7CBB8A10
:1015D0001146184601F04CF90346FB81FA88FB8955
:1015E0000D3B9A4203DDFA88FB899A4240D90023D9
:1015F000BB742AE0BB7C002B03D1BB8A01333B8246
:1016000008E0FB7C184601F0F7F803461A463B8ACF
:1016100013443B82FA883B8A9A4201D13B8A2EE0EE
:10162000FB7C0133DAB23B8A1146184601F020F9FF
:101630000346FB81FA883B8A9A4203D9FA88FB89E0
:101640009A4206D9BB7C0133BB74BB7C032BD1D936
:1016500000E000BFBB7C042B01D1FB8A0FE0FB7CC8
:101660000133FB743B8ABB82FB7C032BABD900E0CC
:1016700000BFFB8A0A2B01D90923FB82FB8A18468B
:101680001837BD4680BD00BFC80A0020000B0020EF
:1016900080B400AF064B1B69002B05DA044B054AEA
:1016A0005A60034B044A5A6000BFBD4680BC704775
:1016B000003C024023016745AB89EFCD80B400AF09
:1016C000044A044B1B6943F00043136100BFBD464D
:1016D00080BC7047003C024080B584B000AF7860A9
:1016E0000B46FB700023FB600823FB72FB78002B8A
:1016F00002D10023FB6010E0FB78012B03D14FF4F3
:101700008073FB6009E0FB78022B03D14FF4007378
:10171000FB6002E04FF44073FB6000F0B3F8034657
:10172000FB72FB7A082B2FD11A4A1A4B1B6923F440
:10173000407313611749174B1A69FB6813430B6118
:10174000144A144B1B6923F0F80313611149114B20
:101750001A697B68134343F002030B610D4A0D4B7A
:101760001B6943F48033136100F08CF80346FB726D
:10177000084A084B1B6923F002031361054A054B15
:101780001B6923F0F8031361FB7A18461037BD4636
:1017900080BD00BF003C024080B584B000AF7860DF
:1017A00039600823FB7300F06DF80346FB73FB7B85
:1017B000082B1ED1114A114B1B6923F4407313618E
:1017C0000E4A0E4B1B6943F4007313610B4A0B4B1B
:1017D0001B6943F0010313617B683A681A6000F0EB
:1017E00051F80346FB73054A044B1B6923F00103C0
:1017F0001361FB7B18461037BD4680BD003C02409C
:1018000080B483B000AF7860034A7B68D36000BFC8
:101810000C37BD4680BC7047003C024080B483B0AA
:1018200000AF0823FB71164BDB6803F48033002BF9
:1018300002D00123FB711CE0114BDB6803F01003A5
:10184000002B02D00523FB7113E00D4BDB6803F086
:10185000EF03002B02D00623FB710AE0084BDB6884
:1018600003F00203002B02D00723FB7101E00823E1
:10187000FB71FB7918460C37BD4680BC704700BF32
:10188000003C024080B582B000AF0823FB71FFF737
:10189000C5FF0346FB7103E0FFF7C0FF0346FB7182
:1018A000FB79DBB2012BF7D0FB79DBB218460837A6
:1018B000BD4680BD80B485B000AF7860396000233C
:1018C000FB817B681B88FB817B68284A934213D08D
:1018D0007B68274A93420FD07B68B3F1804F0BD0CF
:1018E0007B68244A934207D07B68234A934203D003
:1018F0007B68224A934208D1FB8923F07003FB8165
:101900003B685A88FB891343FB817B681C4A9342DE
:101910000CD07B681B4A934208D0FB8923F44073A8
:10192000FB813B681A89FB891343FB817B68FA8939
:101930001A803B685A687B68DA623B681A887B6861
:101940001A857B68094A934203D07B68084A934210
:1019500004D13B689B7A9AB27B681A867B68012225
:101960009A8200BF1437BD4680BC7047000001401A
:10197000000401400004004000080040000C00404A
:10198000001000400014004080B483B000AF7860C5
:101990000B46FB70FB78002B08D07B681B889BB242
:1019A00043F080039AB27B681A8007E07B681B884B
:1019B0009BB223F080039AB27B681A8000BF0C3779
:1019C000BD4680BC704700BF80B483B000AF786074
:1019D0000B46FB70FB78002B08D07B681B889BB202
:1019E00043F001039AB27B681A8007E07B681B888A
:1019F0009BB223F001039AB27B681A8000BF0C37B8
:101A0000BD4680BC704700BF80B483B000AF786033
:101A10000B467B8013467B707B78002B08D07B685D
:101A20009B899AB27B8813439AB27B689A8109E0BA
:101A30007B689B899AB27B88DB439BB213409AB246
:101A40007B689A8100BF0C37BD4680BC704700BFE1
:101A500080B483B000AF78600B467B807B88DB432B
:101A60009AB27B681A8200BF0C37BD4680BC7047B3
:101A700080B500AF4FF400314FF0006005F074FB0B
:101A800002F04CFA4FF4C06005F0FCFAFEF766FD78
:101A900000BF80BD80B500AF01F054FE002000F013
:101AA000B3F8012000F0B0F800F02EF900F01CFDB2
:101AB00000F062FA00F0CEFC00F0FCFA00BF80BD3E
:101AC00080B500AFFFF7D4FFFFF7E4FF01F072FC31
:101AD0000023184680BD00BF80B584B000AF034628
:101AE0003960FB71FB793C4A52F82320FB793B4972
:101AF00051F8233013430121184602F0A1FBFB7972
:101B0000002B08D1FB79364A52F8233001211846C0
:101B100002F0F0FB07E0FB79314A52F82330012153
:101B2000184602F0C9FBFB792E4A52F82300FB79D4
:101B30002D4AD35C99B2FB792C4AD35C1A4602F049
:101B400077F9FB792A4A52F82300FB79294AD35CBA
:101B500099B2FB79284AD35C1A4602F069F900234E
:101B6000BB730123FB7302233B73FB79234A32F8D7
:101B70001330BB6002237B73FB791A4A52F823307F
:101B800007F108021146184602F0A8F802233B7339
:101B9000FB791B4A32F81330BB60FB79144A52F8C8
:101BA000233007F108021146184602F097F8FB7936
:101BB000144A52F8233039681846FEF7F9FCFB79CD
:101BC000104A52F8233001211846FEF7ABFD00BF42
:101BD0001037BD4680BD00BFA0780208A878020873
:101BE000987802080C000020B8780208C078020833
:101BF00014000020BC780208C4780208B0780208FB
:101C0000B47802080400002080B584B000AF034619
:101C1000FB71FB79124A52F823300121184602F079
:101C20000FFBFB790F4A32F81330BB6001233B7383
:101C30000023BB730123FB7302237B73FB790A4AE6
:101C400052F8233007F108021146184602F046F810
:101C5000FB79184600F022F800BF1037BD4680BD62
:101C6000CC780208C87802081C00002080B582B039
:101C700000AF0346FB71FB79064A52F82300FB795B
:101C8000054A32F81330194602F0C4F800BF08378D
:101C9000BD4680BD1C000020C878020880B582B017
:101CA00000AF0346FB71FB79064A52F82300FB792B
:101CB000054A32F81330194602F09EF800BF083783
:101CC000BD4680BD1C000020C878020880B582B0E7
:101CD00000AF0121102002F0B3FA4FF400733B6013
:101CE00001233B710023BB710123FB7102237B7134
:101CF0003B461946034801F0F1FF00BF0837BD46D7
:101D000080BD00BF0010024080B584B000AFFFF777
:101D1000DDFF0121012002F0CFFA6323BB604A23DB
:101D2000BB800023BB810023FB803B1D19464FF085
:101D30008040FFF7BFFD01214FF08040FFF724FEF8
:101D400000214FF08040FFF73FFE1C233B70022331
:101D50007B700123BB700123FB703B46184605F0E6
:101D6000A3F901214FF08040FFF772FE012201210B
:101D70004FF08040FFF748FE00BF1037BD4680BDE2
:101D800080B500AF01214FF08040FFF71DFE00BF7E
:101D900080BD00BF80B483B000AF0346FB71094B28
:101DA0001B78002B02D1FB79002B01D1002303E02B
:101DB000FB79054A1360012318460C37BD4680BCE9
:101DC000704700BF040500202400002080B400AF4D
:101DD000054B1B78002B0CBF01230023DBB21846F8
:101DE000BD4680BC704700BF0405002080B500AF31
:101DF00001214FF08040FFF72BFE424B01221A7069
:101E0000414B1B68C82B08D93F4B00221A603F4B3F
:101E100000221A603E4B00221A703D4B1B78002BAB
:101E20001AD03C4B1B78002B0DD04FF400713A4870
:101E300001F0F0FF374B00221A70334B1B6801335F
:101E4000314A13600DE04FF40071334801F0D4FFC4
:101E5000304B01221A7004E02C4B1B6801332B4AD3
:101E600013602A4B1B68002B1BD02C4B1B68012BCB
:101E700017D100214FF08040FFF7A6FD224B002232
:101E80001A60224B00221A60254B00221A60234B55
:101E900003221A601E4B01221A701A4B00221A707C
:101EA0002DE01A4B1B68B3F5FA5F28D91C4B1B6851
:101EB00001331B4A13601A4B1A68184B1B689A426D
:101EC00017D300214FF08040FFF77EFD0E4B00221C
:101ED0001A600E4B00221A60114B00221A600F4B41
:101EE00003221A600A4B01221A70064B00221A7054
:101EF00002E0074B01221A70044B00221A6000BF57
:101F000080BD00BF04050020F8040020FC04002070
:101F100028000020F50400200010024024000020CA
:101F20000005002080B500AF4FF4001004F048F920
:101F30000346002B03D04FF4001004F065F900BFF6
:101F400080BD00BF80B500AF4FF4003004F05CF9F5
:101F500000BF80BD80B500AFFFF79AFBF320FFF70D
:101F60004FFC00BF02213020FFF7B6FB0346082BD1
:101F7000F8D100BF80BD00BF80B483B000AF104B6C
:101F80001B78002B17D00F4B7B6000233B600CE0CD
:101F90007B6819780C4A3B6813440A461A707B68C0
:101FA00001337B603B6801333B603B680B2BEFD90F
:101FB000034B00221A7000BF0C37BD4680BC70472F
:101FC00029000020107AFF1F0805002080B485B08A
:101FD00000AF78600023FB600AE0FB687A68134476
:101FE0000749FA680A4412781A70FB680133FB60EB
:101FF000FB68072BF1DD00BF1437BD4680BC70477E
:102000000805002080B400AF024B1846BD4680BCD6
:10201000704700BF0805002080B584B000AF78602D
:102020003960FFF797FF0023FB6011E0FB689B001E
:1020300003F1006303F58023FA68920079680A448B
:10204000126811461846FFF7A7FBFB680133FB60D7
:102050003B689A08FB689A42E8D8FFF72FFB00BF5D
:102060001037BD4680BD00BF80B582B000AF78603C
:1020700024217868FFF7D0FF00BF0837BD4680BD38
:1020800080B582B000AF786024220449786805F0FA
:10209000DFF900BF0837BD4680BD00BF000004085F
:1020A00080B400AF024B1846BD4680BC704700BFED
:1020B0000000040880B582B000AF324B1B78002BC3
:1020C0005BD0FFF7EDFF38602F4801F043FD2F484C
:1020D00001F040FD0023FB710AE0FB793A681344EC
:1020E0001B7919462A4801F035FDFB790133FB7154
:1020F000FB79072BF1D9274801F02CFD3B68DB6801
:102100001946254801F026FD244801F023FD3B68CF
:102110001B69184600F060FA214801F01BFD3B687E
:102120005B69184600F058FA1E4801F013FD3B6841
:102130001B8B19461C4801F00DFD3B685B8B194653
:102140001A4801F007FD3B689B8B1946184801F0BF
:1021500001FD3B68DB8B1946164801F0FBFC3B6830
:102160001B6A012B01D1144B00E0144B1946144893
:1021700001F0F0FC134801F0EDFC00BF0837BD464C
:1021800080BD00BFF4040020447902087079020881
:1021900080790208887902088C7902089879020807
:1021A000A4790208B0790208C4790208D879020833
:1021B000E8790208F87902080C7A0208107A020815
:1021C000147A0208247A020880B58CB000AF7860D7
:1021D000002387F82F30002387F82E30002387F85C
:1021E0002D30002387F82C307B681B8803F0010317
:1021F000002B05D000F0A0F800F06EFE01238CE06B
:1022000007F108031846FFF73BFF7B681B8803F4C0
:102210008053002B09D07B685B88132B05D97B6822
:102220005B887B84012387F82F307B681B8803F44D
:102230008073002B23D07B689B88B3F57A7F1ED9EF
:102240007B681B8803F01003002B09D07B68DA88B9
:102250007B689B889A420BD9012387F82E3007E0D0
:10226000FA8C7B689B889A4202D9012387F82E302A
:1022700097F82E30002B02D07B689B88BB847B684C
:102280001B8803F01003002B0AD07B68DA88BB8C14
:102290009A4205D97B68DB88FB84012387F82D30BF
:1022A00097F82F30002B07D197F82E30002B03D151
:1022B00097F82D30002B2ED07B681B883B8407F1CC
:1022C00008031846FFF7D0FE00F006FE012387F84A
:1022D0002C30144B1B78002B04D07B8C19461248F1
:1022E00001F038FC0F4B1B78002B04D0BB8C194637
:1022F0000E4801F02FFC0B4B1B78002B04D0FB8CFD
:1023000019460B4801F026FC064B1B78002B02D027
:10231000084801F01FFC97F82C3018463037BD46AE
:1023200080BD00BFF4040020507A0208647A0208DD
:10233000787A0208907A020880B594B000AFFFF76F
:1023400061FEB864FFF718FE01237B62002387F863
:102350004F3010E097F84F3097F84F20B96C0A448F
:10236000127807F150010B4403F8282C97F84F30EE
:10237000013387F84F3097F84F30072BEAD9012304
:102380003B633B461846FFF77BFE3B697B6300F0EF
:1023900041F90346BB6341F21013BB874FF4FA6364
:1023A000FB874FF4FA63A7F8403041F28833A7F86F
:1023B000423007F124031846FFF756FE00BF50379E
:1023C000BD4680BD80B594B000AFFFF71BFEB8647A
:1023D000FFF7D2FD01237B62002387F84F3010E026
:1023E00097F84F3097F84F20B96C0A44127807F1EC
:1023F00050010B4403F8282C97F84F30013387F82D
:102400004F3097F84F30072BEAD901233B6300F098
:1024100001F90346BB633B461846FFF731FE3B69B3
:102420007B6341F21013BB874FF4FA63FB874FF4D1
:10243000FA63A7F8403041F28833A7F8423000230E
:102440007B6407F124031846FFF70EFE00BF5037E8
:10245000BD4680BD90B58BB000AFFFF721FE78621E
:102460007B6A1B68012B01D0FFF7ACFF7B6A1B6AFC
:10247000DAB20C4B1A707B6A5C6900F0CBF8034649
:102480009C420BD03B461846FFF7FAFD00F0C2F81D
:1024900003467B613B461846FFF7E6FD00BF2C373D
:1024A000BD4690BDF404002080B485B000AF7860D4
:1024B0000023FB600EE0FA6813469B0013445B00A8
:1024C000FB607B681B78303BFA681344FB607B68D9
:1024D00001337B607B681B78002BECD1FB681846CE
:1024E0001437BD4680BC7047F0B599B000AF374B8C
:1024F0001C4607F1200604F1300E354623461868C5
:1025000059689A68DB680FC5103410367445F4D1E9
:102510002F4A3B1D07CA83E80700391D07F1140342
:102520000322184604F094FF0023FB75002387F86C
:102530005F300023BB6516E007F12002BB6D9B00F6
:10254000134407F114021146184605F045F80346F6
:10255000002B05D1BB6DDBB2013387F85F3005E09E
:10256000BB6D0133BB65BB6D0B2BE5D93B1D043344
:1025700007F110000222194604F06AFF0023BB7421
:102580003B1D073307F118000422194604F060FFD1
:1025900000233B7707F118031846FFF785FF78659E
:1025A00007F110031846FFF77FFF38657B6D1A03AC
:1025B00097F85F301B021A433B6D13431A46054BD5
:1025C0001A6000BF6437BD46F0BD00BFB47A020890
:1025D000E47A0208DC09002080B586B000AF78609C
:1025E0007B681B0BC3F30B037B617B681B0A03F047
:1025F0000F033B617B68DBB2FB60FB683A6979697A
:10260000034801F0A7FA00BF1837BD4680BD00BFE0
:10261000F07A020880B400AF024B1B681846BD4632
:1026200080BC7047DC09002080B483B000AF002379
:10263000FB710CE0FA790A4913469B0013445B00D6
:102640000B444FF6FF721A80FB790133FB71FB7963
:10265000002BEFD000BF0C37BD4680BC704700BFD9
:10266000C80A002080B584B000AF0346FB8007F1A4
:102670000803184601F0DCFEFA8807F1080311464A
:10268000184600F061F800BF1037BD4680BD00BF9E
:1026900080B489B000AFF8600B467A607B8100237C
:1026A000FB7746E0FA7F274913469B0013445B0003
:1026B0000B441B884FF6FF72934234D0FA7F2149B6
:1026C00013469B0013445B000B441B887A899A4293
:1026D0002BD1FB68BB61FA7F13469B0013445B0060
:1026E000184A134402337B610023BB770EE0BB69B9
:1026F0001A787B691B789A420CD1BB690133BB61A4
:102700007B6901337B61BB7F0133BB77BB7F072BC9
:10271000EDD900E000BFBB7F082B07D17B68FA7FB3
:102720001A70012309E000BF00E000BFFB7F013306
:10273000FB77FB7F002BB5D0002318462437BD461E
:1027400080BC7047C80A002080B584B000AF7860B4
:102750000B467B8007F10F027B8819467868FFF7EC
:1027600097FF0346002B09D0FB7B1946214A0B46F5
:102770009B000B445B0013441B8837E00023FB7372
:1027800010E0FB7B19461B4A0B469B000B445B0089
:1027900013441B884FF6FF72934207D0FB7B013333
:1027A000DBB2FB73FB7B002BEBD000E000BFFB7BBD
:1027B000012B02D14FF6FF7318E0FB7B1A4613463C
:1027C0009B0013445B000B4A1344023308227968D0
:1027D000184601F0C5FDFB7B1946064A0B469B00D7
:1027E0000B445B0013447A881A8000231846103784
:1027F000BD4680BDC80A002080B483B000AF034648
:10280000FB71FB79013B092B2CD801A252F823F074
:10281000392802083F2802084528020849280208EA
:102820004D28020851280208552802085928020894
:102830005D2802086128020840F2A65313E04FF415
:10284000B37310E056230EE012230CE000230AE0DD
:10285000002308E0002306E0002304E0002302E058
:10286000002300E0002318460C37BD4680BC7047AB
:1028700080B582B000AF03460A46FB8013467B71E9
:102880007B791846FFF7B8FF03469B009AB2FB8896
:1028900013449BB20D339BB218460837BD4680BD2A
:1028A00080B400AF044B00221A70044B00221A704F
:1028B00000BFBD4680BC7047E8090020E009002049
:1028C00080B500AF104B1B7803F00103DBB2002B87
:1028D00017D001F063FD02460B4B5B68D31AC82B7F
:1028E0000FD90A4B1B78002B03D00020FFF7D6F935
:1028F00002E00020FFF7BAF901F050FD0246024B5A
:102900005A6000BF80BD00BFE00900201E05002006
:1029100080B582B000AF0023FB711E4B1B6A3B6089
:102920001C4B9B7CFF2B2FD13B681B78022B04D0C8
:10293000032B0AD0012B05D025E000F075FE0346DD
:10294000FB7120E00023FB711DE03B6801333B601D
:102950003B681B78002B0DD00F4A137843F001031E
:10296000137001F01BFD02460B4B5A600020FFF76D
:1029700095F907E0084A13786FF3000313700020FD
:10298000FFF78CF900BF00BFFB7918460837BD463A
:1029900080BD00BF780B0020E009002080B483B028
:1029A00000AF03460A46FB8013467B71194B002299
:1029B0001A70184B0022DA74174B1B7B5A1CD1B2C9
:1029C000154A1173134A1375124A7B799374114B8C
:1029D0000122DA710F4AFB8813810E4B00229A7193
:1029E0000E4B1A880B4B1A820A4B21225A71094B43
:1029F00040221A71074B1A89084B1B889A4204D14E
:102A0000044A137843F00103137000BF0C37BD462E
:102A100080BC7047DC0B0020000C0020C80A00209E
:102A200080B584B000AF0346FB80124B032283F8CD
:102A30002020114BFB60114B1B881B0A9BB2DAB2A2
:102A4000FB681A70FB68013BFB600C4B1B88DAB219
:102A5000FB681A70FB68013BFB60FB6801221A707F
:102A6000FB88FF211846FFF799FF00BF1037BD46CE
:102A700080BD00BFDC0B0020A60A0020C80A002091
:102A800080B584B000AF03460A46FB8013467B71D5
:102A90000B4B022283F820200A4BFB60FB687A79FB
:102AA0001A70FB68013BFB60FB6803221A70FB880D
:102AB000FF211846FFF772FF00BF1037BD4680BDEB
:102AC000DC0B0020A60A002080B584B000AF0346CE
:102AD000FB80124BFB60F86801F0AAFCFB68013B2D
:102AE000FB600F4B1B881B0A9BB2DAB2FB681A70A3
:102AF000FB68013BFB600A4B1B88DAB2FB681A706B
:102B0000084B0A2283F82020FB8813211846FFF780
:102B100045FF00BF1037BD4680BD00BF9F0A0020A3
:102B2000C80A0020DC0B002080B584B000AF03464B
:102B3000FB80344BFB600023FB720AE0FB68013B27
:102B4000FB60FB7A304AD25CFB681A70FB7A013377
:102B5000FB722E4B1B79FA7A9A42EFD3FB68013B4A
:102B6000FB602A4B1A79FB681A70FB68013BFB601B
:102B7000274B9A7DFB681A70FB68013BFB60FB6882
:102B800002221A70FB68013BFB60214B1B8A1B0A67
:102B90009BB2DAB2FB681A70FB68013BFB601C4B0E
:102BA0001B8ADAB2FB681A70FB68013BFB60194BA9
:102BB0001B881B0A9BB2DAB2FB681A70FB68013BE8
:102BC000FB60144B1B88DAB2FB681A70FB68083B89
:102BD000FB60F86801F02CFCFB68013BFB60FB68C4
:102BE00002221A70094B1B791033DAB20A4B83F8B0
:102BF0002020FB88FF211846FFF7D0FE00BF1037CA
:102C0000BD4680BDA70A0020A00B0020000C0020BC
:102C1000000B0020C80A0020DC0B002080B582B029
:102C200000AF7860FDF7DCFA10210D48FDF76AFB74
:102C30000B48FDF7D3FB03461A460A4B1A800821BE
:102C40000748FDF75FFB0648FDF7C8FB03461A4639
:102C5000054B1A8000F06AF800BF0837BD4680BDFA
:102C600000300140EC090020EA09002080B582B064
:102C700000AF786039603B68094A934206D9094B36
:102C80001B8819460848FDF79BFB05E0074B1B888E
:102C900019460548FDF794FB00BF0837BD4680BDC7
:102CA00000127A00EA09002000300140EC090020FF
:102CB00080B586B000AFF860B9607A607B80B7F904
:102CC0000230002B2AD0BB68002B1ED17B68002B62
:102CD00026D01AE0BB68002B05D0BB681B78FB75BB
:102CE000BB680133BB60FB7DDBB219460E48FDF7C4
:102CF000E3FA0346FB757B68002B06D0FB7DDAB256
:102D00007B681A707B6801337B60B7F902309AB236
:102D1000013A92B27A80002BDCD102E000BF00E0E1
:102D200000BF1837BD4680BD0030014080B582B07D
:102D300000AF0121012001F083FA10233B60012341
:102D40003B7103237B710023BB710123FB713B4665
:102D50001946034800F0C2FF00BF0837BD4680BDDA
:102D60000000024080B500AF1021024801F052F887
:102D700000BF80BD0000024080B500AF10210248B6
:102D800001F03AF800BF80BD0000024080B582B07B
:102D900000AF0121012001F053FA04233B6001231D
:102DA0003B7100237B710023BB710123FB713B4608
:102DB0001946034800F092FF00BF0837BD4680BDAA
:102DC0000000024080B586B000AF0121012001F073
:102DD00037FA02233B6100233B7502237B750023F6
:102DE000BB750123FB7507F110031946154800F068
:102DF00075FF01214FF4804001F07CFA0121002091
:102E000000F05EFC0223BB6000233B730C237B734A
:102E10000123BB7307F10803184603F05FF907238A
:102E20003B7101237B710023BB710023FB713B1DB0
:102E3000184604F039F9022003F0E6F900BF18370C
:102E4000BD4680BD0000024080B582B000AF0723C0
:102E50003B7101237B710023BB710023FB713B1D80
:102E6000184604F021F900BF0837BD4680BD00BFF9
:102E700080B582B000AF07233B7101237B71002333
:102E8000BB710123FB713B1D184604F00DF900BF17
:102E90000837BD4680BD00BF80B500AF012140208E
:102EA00001F0ECF90120FDF797FF00BF80BD00BFE6
:102EB00080B582B000AF00BF0120FDF7B3FF03462D
:102EC000002BF9D0FDF7A4FF0346FB7100BF1846A5
:102ED0000837BD4680BD00BF80B582B000AFFFF7A8
:102EE000DFF803467B607B6818333B603B681B88D8
:102EF00003F48053002B08D03B685A881A4B5A8041
:102F00003B681A88184B1A8003E0174B4FF4FA629B
:102F10005A803B681B8803F48073002B08D03B6801
:102F20009A88114B9A803B681A880F4B1A8003E0ED
:102F30000D4B4FF4FA629A803B681B8803F0100334
:102F4000002B08D03B68DA88074BDA803B681A8888
:102F5000054B1A8003E0044B41F28832DA8000BF4F
:102F60000837BD4680BD00BF040A002080B582B08E
:102F700000AF154B00221A70144B00221A70134B2D
:102F800000225A70124B1B78002B19D0FFF73AF829
:102F900003463B6000237B600CE07B683A68134487
:102FA00019780A4A7B68134402330A461A707B6810
:102FB00001337B607B68022BEFD9054B00221A702E
:102FC00000BF0837BD4680BD7805002028050020D9
:102FD0002A00002080B584B000AF0B4B93F824305A
:102FE000FB73094B1B6ABB60FB7B082B07D1BB68DB
:102FF0007B607868FFF7E8F8044B01221A7000BF85
:103000001037BD4680BD00BF780B00200C0A0020A1
:1030100080B588B006AF0023FB711D4B08221A70E3
:103020001B4B10225A7001F0B9F90246194B1B686C
:10303000D31A194AD288934225D9184B1B7B5A1CA4
:10304000D1B2164A1173002204920393082302930B
:103050000F4B01930123009300230122104901200B
:1030600003F010F90F4B13221A720F4B01221A7042
:1030700003F0A8F90123FB710C4B1B78002B02D045
:103080000B4800F067FDFB7918460837BD4680BD48
:1030900028050020F0090020040A0020000C002070
:1030A00020050020D00B0020A60B0020F4040020F7
:1030B000F87A020880B588B006AF0023FB711C4B7C
:1030C0001B78BB71BB79002B28D01A4B1B7B5A1C79
:1030D000D1B2184A1173002204920393BB79029370
:1030E000134B019301230093002301221249012075
:1030F00003F0C8F8114B13221A72114B01221A70F7
:1031000003F060F90F4B1B78002B04D0BB791946F4
:103110000D4800F01FFD0123FB7103E0FFF778FF6E
:103120000346FB71FB7918460837BD4680BD00BFDA
:1031300028050020000C002020050020D00B0020D6
:10314000A60B0020F4040020147B020880B582B096
:1031500000AF0023FB71194B1B685A1C17490A600A
:10316000DAB2174B1A70174B1B78082B21D8154B66
:103170001B780233DBB2DB00DAB2134B1A70114B4F
:103180001B780133DB00104A134408220C4918460F
:1031900001F0E6F80B4B1B780133DAB2094B1A70D9
:1031A000084B1B78092B04D1064B00221A7001230F
:1031B000FB71FB7918460837BD4680BD7C050020B1
:1031C00080050020780500202805002080B584B007
:1031D00000AF0023FB73484B00221A600323FB70EF
:1031E000FFF7C4FE03F0EEF8444B1B78002B04D02D
:1031F0000023FB73414B00221A70FB7B012B0FD085
:10320000042B4AD0002B00D070E0FFF753FF034699
:10321000002B64D001F0C2F878600123FB7365E0F5
:10322000374B1B78002B5CD1364B1B7A002B0ED111
:103230000423FB7301F0B2F8B86001F0AFF8024666
:103240002D4B1A600323FB70FFF790FE4BE001F05B
:10325000A5F802467B68D31A2B4A9288934242D93A
:10326000FB78002B0BD0FB78013BFB70274B1B78C6
:10327000002B02D0264800F06DFC0023FB73FB7886
:10328000002B30D1FEF7A2FD0346002B2FD00320E8
:10329000FEF780FDFEF774FD29E001F07FF802469D
:1032A000BB68D31A184A5288934202D90023FB7391
:1032B0001BE0FFF74BFF0346002B16D001F06EF822
:1032C0000246BB68D31A104A52881249A1FB021267
:1032D000D20892B2934208D90023FB7305E000BFE5
:1032E00080E700BF7EE700BF7CE700BF7AE700BF52
:1032F0001037BD4680BD00BFF00900200C0A002039
:10330000A60B0020D00B0020040A0020F4040020AB
:10331000287B0208CDCCCCCC80B582B000AF1D4B51
:103320001B78002B08D01C4B1B8819461B4B1B8A93
:103330001A461B4800F00EFC164B1B78002B24D0BD
:10334000184B3B60134B1B78002B02D0164800F043
:1033500001FC0023FB710EE00E4B1B78002B07D005
:10336000FB793A6813441B781946104800F0F2FBC9
:10337000FB790133FB71FB79072BEDD9054B1B78EA
:10338000002B02D00A4800F0E5FB00BF0837BD461D
:1033900080BD00BFF4040020C80A0020000B0020FC
:1033A000387B0208080B0020607B0208707B020853
:1033B000787B020880B582B000AF8C4B00221A6087
:1033C00000F0B6FF02F02EFFFFF786FD0020FEF7AB
:1033D00065FC0120FEF762FC854B00221A7002F0AA
:1033E000F1FF834B1B78062B00F2F48001A252F808
:1033F00023F000BF113402085D340208B134020822
:10340000E1340208F734020817350208693502086A
:103410000020FEF743FC01E002F0D4FF754B1B785F
:10342000002BF9D1744B0D221A70744B0B221A70B9
:10343000724B4FF0FF325A60704B04221A726F4B7E
:1034400000225A726C4B13221A726A4B01221A70B4
:1034500002F0B8FF664B01221A70C6E0654B1B787C
:10346000002B40F0BB80644B1B7A002B0BD100205B
:10347000FEF7FCFB624800F06DFBFFF74DFF5C4B75
:1034800002221A70B1E05F4800F064FBFEF79EFC78
:103490000346002B04D00220FEF77CFCFEF770FCF4
:1034A00042F21070FDF768F8514B00221A709CE050
:1034B000554B1B78002B02D0544800F04BFB4C4B73
:1034C00003221A70524B1B78002B40F0898000F0C9
:1034D00065FF02464F4B1A604D4B01221A707FE088
:1034E00000F05CFF02464B4B1B68D31AC72B79D9FF
:1034F000474B00221A70484B00221A8000F04EFF02
:1035000002463A4B1A60FFF761FE0023FB71384B0D
:1035100005221A7069E00020FEF7C0FB3F4800F06A
:1035200019FB01E002F04EFF324B1B78002BF9D162
:10353000314B0D221A70314B0B221A702F4B4FF06A
:10354000FF325A602D4B04221A722C4B01225A7200
:10355000294B13221A72274B01221A7002F032FFF4
:10356000234B06221A7040E0224B1B78002B3BD1E4
:10357000214B1B7A002B0DD10023FB710020FEF79D
:1035800075FB274800F0E6FAFFF7C6FE184B042249
:103590001A702AE0FB790133FB71FB79032B03D10D
:1035A000134B00221A7020E01E4800F0D3FA00F0FE
:1035B000F5FE02460D4B1A6000BF00F0EFFE02461A
:1035C0000A4B1B68D31AB3F5FA6FF6D3084B0522E2
:1035D0001A700AE0064B00221A7000E700BFFEE6F0
:1035E00000BFFCE600BFFAE600BFF8E6FC090020D9
:1035F000F4090020A60B0020D00B0020A809002011
:103600007C7B02088C7B0208F4040020B07B02085B
:103610000D0A0020F809002020050020C47B0208C4
:10362000D87B0208E87B020880B400AF002318466C
:10363000BD4680BC704700BF80B500AFFFF7CAFC35
:103640000023184680BD00BF80B500AF024800F0DF
:1036500081FA00BF80BD00BF387C020880B500AF92
:10366000014800F077FAFEE7487C020880B500AF19
:10367000014800F06FFAFEE7607C020880B500AFF9
:10368000014800F067FAFEE7787C020880B500AFD9
:10369000014800F05FFAFEE7907C020880B400AFBA
:1036A00000BFBD4680BC704780B400AF00BFBD46C0
:1036B00080BC704780B400AF00BFBD4680BC70477F
:1036C00090B484B000AF03460A46FB711346BB7149
:1036D0000023FB60BB7903F003039B000F2202FA77
:1036E00003F3FB601649BB799B08DBB21846144A0A
:1036F000BB799B08DBB2023352F82320FB68DB4323
:103700001A40831C41F823200D48BB799B08DBB28B
:103710001C460B4ABB799B08DBB2023352F82320CC
:10372000F979BB7903F003039B0001FA03F31A4311
:10373000A31C40F8232000BF1037BD4690BC704743
:103740000038014080B584B000AF4FF4E1333B60F6
:103750000023BB800023FB8000233B810023BB812F
:103760000C237B813B4619460120FEF7B5F9054B3A
:10377000054A1A60054B064A1A6000BF1037BD465D
:1037800080BD00BF140A0020C9370208100A0020BB
:10379000793B020880B582B000AF0346FB71FB792C
:1037A0009BB219460748FCF7DDFF00BF40210548E2
:1037B000FCF7EAFF0346002BF8D0FB7918460837E0
:1037C000BD4680BD004C004080B582B000AF0346CE
:1037D000FB71FB790A2B02D10D20FFF7DBFFFB7990
:1037E0001846FFF7D7FF034618460837BD4680BD89
:1037F00080B582B000AF0346FB710C4B1B68002BF9
:1038000007D00A4B1B685A1C08490A60FA791A70DB
:1038100008E0074B1B68002B04D0054B1B68FA79A6
:10382000104698470837BD4680BD00BF8805002078
:10383000140A002080B582B000AF786006E07B6893
:103840005A1C7A601B781846FFF7D2FF7B681B78FA
:10385000002BF4D100BF0837BD4680BD80B58EB0C7
:1038600000AF786039607B685A1C7A601B78FB7700
:10387000FB7F002B00F06781FB7F252B04D0FB7FB3
:103880001846FFF7B5FF5DE100237B627B685A1C99
:103890007A601B78FB77FB7F302B07D101237B629B
:1038A0007B685A1C7A601B78FB7709E0FB7F2D2B25
:1038B00006D102237B627B685A1C7A601B78FB77F7
:1038C0000023BB620EE0BA6A13469B0013445B0000
:1038D0001A46FB7F1344303BBB627B685A1C7A60FC
:1038E0001B78FB77FB7F2F2B02D9FB7F392BEAD983
:1038F000FB7F6C2B02D0FB7F4C2B08D17B6A43F003
:1039000004037B627B685A1C7A601B78FB77FB7F21
:10391000002B00F01A81FB7FBB77BB7F602B02D9A5
:10392000BB7F203BBB77BB7F423B162B73D801A2EA
:1039300052F823F0FF390208ED3902080B3A020869
:10394000173A0208173A0208173A0208173A02080B
:10395000173A0208173A0208173A0208173A0208FB
:10396000173A0208173A0208053A0208173A0208FD
:10397000173A0208173A020891390208173A020862
:103980000B3A0208173A0208173A0208113A0208DD
:103990003B681A1D3A601B68BB610023FB6202E0B2
:1039A000FB6A0133FB62BA69FB6A13441B78002B84
:1039B000F6D102E02020FFF71BFF7B6A03F0020331
:1039C000002B05D1FB6A5A1CFA62BA6A9342F1D302
:1039D000B869FFF72FFF02E02020FFF709FFFB6A1D
:1039E0005A1CFA62BA6A9342F6D3ABE03B681A1DDE
:1039F0003A601B68DBB21846FFF7FAFEA2E002232A
:103A00007B630DE008237B630AE00A237B6307E006
:103A100010237B6304E0FB7F1846FFF7E9FE91E08B
:103A20007B6A03F00403002B04D03B681A1D3A6044
:103A30001B680BE0BB7F442B04D13B681A1D3A6026
:103A40001B6803E03B681A1D3A601B683B62BB7F42
:103A5000442B09D13B6A002B06DA3B6A5B423B628E
:103A60007B6A43F008037B6200233B633B6A7A6B0B
:103A7000B3FBF2F2796B01FB02F29B1ABB773A6A55
:103A80007B6BB2FBF3F33B62BB7F092B08D9FB7F57
:103A9000782B01D1272200E00722BB7F1344BB779C
:103AA0003B6B5A1C3A63BA7F3032D2B207F138010D
:103AB0000B4403F8302C3B6A002B02D03B6B0F2BDE
:103AC000D4D97B6A03F00803002B08D03B6B5A1C47
:103AD0003A6307F1380213442D2203F8302C3B6B74
:103AE000FB627B6A03F00103002B01D0302300E06E
:103AF0002023BB7703E0BB7F1846FFF779FE7B6A84
:103B000003F00203002B05D1FB6A5A1CFA62BA6A61
:103B10009342F0D33B6B013B3B6307F108023B6BE5
:103B200013441B781846FFF763FE3B6B002BF1D163
:103B300002E02020FFF75CFEFB6A5A1CFA62BA6AB8
:103B40009342F6D38FE600BF00E000BF00BF3837D6
:103B5000BD4680BD0FB480B582B000AF07F114033D
:103B60007B6079683869FFF779FE00BF0837BD468A
:103B7000BDE8804004B0704780B582B000AF00233C
:103B8000FB7120210748FCF7FFFD0346002BF8D00E
:103B9000044B9B889BB2FB7100BFFB79184608372A
:103BA000BD4680BD004C004080B500AF03F030FB47
:103BB000034B00221A70034B00221A7300BF80BD12
:103BC000180A0020A80A002080B400AF00BFBD463C
:103BD00080BC704780B500AF00F0E0FB0246024BAE
:103BE0001A6100BF80BD00BFA80A002080B400AFEA
:103BF000044A137B43F00103137300BFBD4680BC2E
:103C0000704700BFA80A002080B500AF304B1B787A
:103C1000012B07D0022B3AD0002B00D056E000F049
:103C200073FC53E02B4B1B78012B02D0022B10D0DE
:103C30002CE0294B1878284B5978264B5A6800F00D
:103C40002FFC03461A46234B1A72214B00221A708E
:103C50001CE0214A137B6FF3000313731E4B1A7E83
:103C60001D4B5B691946104600F01AFE03461A46C2
:103C7000184B1A72174B1B7A002B03D1144B0222DC
:103C80001A7002E0124B00221A7000BF1EE0124BA5
:103C90001B7B03F00103DBB2002B06D00D4B00228F
:103CA0001A720B4B00221A700FE000F077FB0246ED
:103CB000094B1B69D31A0A2B07D9064B06221A7225
:103CC00000F028FC024B00221A7000BF00BF80BD2C
:103CD000180A00201C0A0020A80A002080B487B01F
:103CE00000AF7860396000237B6100233B610023D3
:103CF000FB6000237B6176E001227B6902FA03F31B
:103D00003B613B681A683B691340FB60FA683B699A
:103D10009A4265D17B681A687B695B00032101FACE
:103D200003F3DB431A407B681A607B681A683B68C0
:103D30001B7919467B695B0001FA03F31A437B6820
:103D40001A603B681B79012B03D03B681B79022B5F
:103D50002ED17B689A687B695B00032101FA03F32B
:103D6000DB431A407B689A607B689A683B685B79A2
:103D700019467B695B0001FA03F31A437B689A607A
:103D80007B685A687B699BB2194601238B40DB43F1
:103D90001A407B685A607B685B683A689279114682
:103DA0007A6992B201FA02F292B21A437B685A60BF
:103DB0007B68DA687B699BB25B00032101FA03F33D
:103DC000DB431A407B68DA607B68DA683B68DB7942
:103DD00019467B695B0001FA03F31A437B68DA60DA
:103DE0007B6901337B617B690F2B85D900BF1C3751
:103DF000BD4680BC704700BF80B483B000AF786020
:103E00000B467B807B687A881A8300BF0C37BD46DF
:103E100080BC704780B483B000AF78600B467B8075
:103E20007B687A885A8300BF0C37BD4680BC7047D8
:103E300080B485B000AF78600B467B8013467B7002
:103E40000023FB600023BB607A787B8803F00703C4
:103E50009B0002FA03F3FB607B88DB089BB21846E9
:103E60007B88DB089BB21A467B68083253F8222015
:103E70007B8803F007039B000F2101FA03F3DB4368
:103E800002EA03017B6800F1080243F822107B88F4
:103E9000DB089BB21A467B68083253F82220FB6885
:103EA0001343BB607B88DB089BB21A467B680832F1
:103EB000B96843F8221000BF1437BD4680BC704774
:103EC00080B500AF124A124B1B6843F00103136028
:103ED0000F4B00229A600E4A0D4B1B6823F084732F
:103EE00023F4803313600A4B0A4A5A60084A084B8D
:103EF0001B6823F480231360054B0022DA6000F076
:103F000089F8054B4FF000629A6000BF80BD00BF8A
:103F1000003802401030002400ED00E080B487B08B
:103F200000AF00233B6100237B610223FB60002381
:103F3000BB6002237B60324B9B6803F00C033B6148
:103F40003B69042B07D0082B09D0002B3FD12D4B08
:103F50002D4A1A603FE02B4B2C4A1A603BE0284B5D
:103F60005B6803F480039B0DBB60254B5B6803F02B
:103F70003F037B60BB68002B0DD0244A7B68B2FBFB
:103F8000F3F21F4B596847F6C0730B409B0903FBC4
:103F900002F37B610CE01C4A7B68B2FBF3F2184B26
:103FA000596847F6C0730B409B0903FB02F37B6122
:103FB000134B5B6803F440331B0C01335B00FB6065
:103FC0007A69FB68B2FBF3F30E4A136003E00D4B12
:103FD0000D4A1A6000BF0A4B9B6803F0F0031B09EF
:103FE0000B4AD35CDBB23B61064B1A683B6922FA91
:103FF00003F3044A136000BF1C37BD4680BC704702
:10400000003802402C0000200024F40040787D019C
:104010003000002080B483B000AF00237B60002319
:104020003B602F4A2E4B1B6843F4803313602C4BAC
:104030001B6803F400333B607B6801337B603B68A3
:10404000002B03D17B68B3F5A06FF0D1244B1B6824
:1040500003F40033002B02D001233B6001E0002376
:104060003B603B68012B36D11D4A1D4B9B6893601A
:104070001B4A1B4B9B6843F400439360184A184B40
:104080009B6843F4A0539360154B164A5A60144A38
:10409000134B1B6843F08073136000BF104B1B6809
:1040A00003F00073002BF9D00F4B40F203721A603B
:1040B0000B4A0B4B9B6823F003039360084A084BA1
:1040C0009B6843F00203936000BF054B9B6803F0BD
:1040D0000C03082BF9D100BF0C37BD4680BC7047DC
:1040E00000380240193C4005003C024080B489B0D1
:1040F00000AF78600023BB6100237B610023FB617C
:1041000002233B610023FB600223BB60484B9B689A
:1041100003F00C03BB61BB69042B07D0082B09D04B
:10412000002B3FD17B68434A1A603FE07B68424ADC
:104130001A603BE03E4B5B6803F480039B0DFB6021
:104140003B4B5B6803F03F03BB60FB68002B0DD06B
:10415000394ABB68B2FBF3F2354B596847F6C07376
:104160000B409B0903FB02F3FB610CE0314ABB6887
:10417000B2FBF3F22E4B596847F6C0730B409B0914
:1041800003FB02F3FB612A4B5B6803F440331B0C17
:1041900001335B003B61FA693B69B2FBF3F27B6878
:1041A0001A6003E07B68234A1A6000BF204B9B68BB
:1041B00003F0F003BB61BB691B09BB611F4ABB690C
:1041C00013441B78DBB27B617B681A687B69DA4039
:1041D0007B685A60164B9B6803F4E053BB61BB6974
:1041E0009B0ABB61154ABB6913441B78DBB27B6138
:1041F0007B685A687B69DA407B689A600C4B9B68E5
:1042000003F46043BB61BB695B0BBB610B4ABB69D9
:1042100013441B78DBB27B617B685A687B69DA40A8
:104220007B68DA6000BF2437BD4680BC704700BFA2
:10423000003802400024F40040787D014000002056
:1042400080B483B000AF78600B46FB70FB78002B26
:1042500006D00949084B1A6B7B6813430B6306E0D1
:104260000549054B1A6B7B68DB4313400B6300BFAA
:104270000C37BD4680BC70470038024080B483B024
:1042800000AF78600B46FB70FB78002B06D0094925
:10429000084B5A6B7B6813434B6306E00549054B9B
:1042A0005A6B7B68DB4313404B6300BF0C37BD4642
:1042B00080BC70470038024080B483B000AF7860A3
:1042C0000B46FB70FB78002B06D00949084B1A6C93
:1042D0007B6813430B6406E00549054B1A6C7B6849
:1042E000DB4313400B6400BF0C37BD4680BC7047F6
:1042F0000038024080B483B000AF78600B46FB709A
:10430000FB78002B06D00949084B5A6C7B68134395
:104310004B6406E00549054B5A6C7B68DB43134050
:104320004B6400BF0C37BD4680BC7047003802406C
:1043300080B500AF064B00221A7000F00BF8002089
:1043400000F07AFB0021002000F070FC00BF80BD6F
:104350009005002080B400AF00BFBD4680BC704710
:1043600080B485B000AFF860B9601346FB710CE013
:10437000BB681A78FB681A70FB680133FB60BB6886
:104380000133BB60FB79013BFB71FB79002BEFD163
:1043900000BF1437BD4680BC704700BF80B582B0F7
:1043A00000AFFCF7C3F803467B607B68184608370C
:1043B000BD4680BD80B582B000AF0023FB710023F5
:1043C0003B60FEF775FD0346FB71FB791846083725
:1043D000BD4680BD80B582B000AF0346FB71FB795E
:1043E0000A2B02D9FB791A2B01D9012305E0FB79AD
:1043F0000021184600F08EFC002318460837BD4601
:1044000080BD00BF80B582B000AF03460A46FB7195
:104410001346BB71FB79032B01D0012304E0BB7968
:104420001846FFF7D7FF034618460837BD4680BD3C
:1044300080B582B000AF78607868FDF7C7FD00BF37
:104440000837BD4680BD00BF80B582B000AF3B4697
:104450001846FFF7EDFF3B460021184600F0CCFB65
:1044600000BF0837BD4680BD80B582B000AF0346AF
:10447000FB80BB1D0021184600F08AFB00BF0837F7
:10448000BD4680BD80B582B000AF0346FB80BB1D3A
:104490000021184600F096FB00BF0837BD4680BDDE
:1044A00080B584B000AF03463A60FB710B46BB7128
:1044B000124B1B78DBB2FA799A4205D1104B1B786C
:1044C000DBB2BA799A4211D00C4AFB791370FFF72C
:1044D000BBFFBA79FB7911461846FFF793FF0346F5
:1044E000FB73FB7B002B01D0FB7B03E0054B012220
:1044F0001A70002318461037BD4680BD9405002071
:10450000950500209605002080B400AF00BFBD4691
:1045100080BC704780B582B000AFFCF761FBFCF750
:1045200087FB0320FCF722FA0346FB71FB7903F0BB
:104530001003BB71BB79002B4CD0FB7903F0070350
:104540007B717B79012B02D07B79042B27D124202E
:10455000FCF70CFA034603F01F033B713B79002B79
:104560001DD03B79062B05D93B79152B02D03B7921
:10457000162B02D1FCF746FB2EE0FB7923F0070354
:10458000FB71FB7919460320FCF75AF900BF242080
:10459000FCF7ECF9034603F01F03002BF7D10222CE
:1045A0000F490120FCF712FA03461A460D4B1A7008
:1045B00003220C490020FCF773F9FB7923F0170361
:1045C000FB71FB7943F00103FB71FB791946032072
:1045D000FCF736F9FCF716FB0837BD4680BD00BF77
:1045E000D50A0020D40A002080B586B000AF03466B
:1045F000FB7100233B610023FB603223FB72FB79DC
:10460000042B59D997F90730002B55DBFB79052B83
:1046100012D12B4B5B691B7803F02003002B01D0D8
:10462000FFF7E4FA0523BB72FA7D07F10A0311468E
:10463000184600F00DFF40E000F044FF0346002B59
:1046400009D1FB799BB2013B9BB2184602F0FAFDFF
:10465000F860FB683B613B69002B2ED03B69FA791F
:104660001A703B6901333B61FB79023BDBB21946AF
:104670003869FCF7E7F92520FCF778F90346FB7564
:10468000FB7D002B0AD100BFFB7A5A1EFA72002B69
:10469000FAD12520FCF76AF90346FB75FB7D184625
:1046A00000F0A8FB0346FB75FFF78EFAFB7D194669
:1046B000F86800F0CDFE00E000BF1837BD4680BDB1
:1046C000A80A002090B5A7B000AF002387F8973064
:1046D000002387F89630012387F89530002387F868
:1046E00094304FF000034FF00004C7E92234FCF788
:1046F00077FAFCF79DFA072255490120FCF766F985
:1047000003461A46534B1A70032252490020FCF705
:10471000C7F803224F495048FFF722FE4E4B5B7803
:1047200003F00103DBB2002B07D14A4B1B78002BAF
:1047300006D1484B5B78002B02D1FCF763FA84E08A
:10474000444BDB7803F0070387F89730414B9B79A4
:1047500087F894303F4BDB7887F896303E4B1B78D8
:1047600003F00203DBB2002B38D03B4B5B7803F045
:104770004003DBB2002B22D0384B1B78002B05D036
:10478000364B1B78013BDAB2344B1A70334B1B7833
:10479000002B23D0324B1B78002B1FD097F897307B
:1047A000022B03D097F89730042B17D197F8963047
:1047B00019460320FCF744F8FCF724FA45E0294B9E
:1047C0005B691B7803F02003002B01D1FFF70EFA81
:1047D000234B00221A70214B00221A701E4B1B78AB
:1047E00003F00403DBB2002B04D097F89430184692
:1047F000FFF7FAFE2420FCF7B9F8034603F01F0385
:1048000087F88730144B1B7803F00103DBB2002BD1
:1048100003D197F88730002B15D197F8963023F005
:10482000170387F89630012387F8953097F896207C
:1048300097F89530134387F8963097F896301946D5
:104840000320FBF7FDFFFCF7DDF99C37BD4690BD6B
:10485000D50A0020D40A0020C40A002050000020FD
:1048600097050020A80A002080B584B000AF022080
:1048700001F0A6FC0346002B0DD0FBF73DFE0346DE
:10488000FB60FFF71FFFFBF737FE0346BB60BA680C
:10489000FB68D31A7B6000BF1037BD4680BD00BFE8
:1048A00080B5A6B000AF03463960FB71FB79042BDD
:1048B00003D9FB7902337F2B01DD0423B0E0012310
:1048C00087F89530002387F89730002387F89430D5
:1048D000002387F89330FFF77DF9FCF781F9FCF7A7
:1048E000A7F9514B01221A700320FCF73FF8034649
:1048F00087F8973097F8973003F0070387F89230DE
:1049000097F8973023F0070387F8973097F892309D
:10491000012B03D097F89230042B2AD12420FCF7E6
:1049200025F8034603F01F0387F8953097F8953074
:10493000002B1ED097F89530062B07D997F89530A5
:10494000152B03D097F89530162B03D1FCF75AF9A5
:10495000052365E097F8973019460320FBF770FFB1
:1049600000BF2420FCF702F8034603F01F03002BCE
:10497000F7D107F10C03C7F88C302C4B1B7E0233A8
:10498000DAB2D7F88C301A70D7F88C300133C7F808
:104990008C30264B5969254B1B7E1A46D7F88C0064
:1049A00002F056FD214B1B7E0133DAB207F10C03F6
:1049B00011461846FBF7AAFF1C4B5B691B7803F0F6
:1049C0002003002B0BD097F8973043F0100387F8A3
:1049D0009730042387F8963000F020FD02E0022390
:1049E00087F89630022212490120FBF7EFFF0346B9
:1049F0001A46104B1A7003220E490020FBF750FF95
:104A000097F8972097F89630134387F8973097F8E0
:104A1000973019460320FBF713FFFCF7F3F8002348
:104A200018469837BD4680BD97050020A80A00208B
:104A3000D50A0020D40A002090B587B000AF034605
:104A4000FB714FF000034FF00004C7E90234FBF79D
:104A5000E1FE02213120FCF727F84A4B0822DA71E7
:104A6000484B7F221A70474B07225A70454BFF2252
:104A70009A70444B0822DA70424BFF221A71414B64
:104A80001B7923F00103DAB23E4B1A713D4BF7223A
:104A90005A713C4B00221A7209223A490020FBF756
:104AA000FFFECB210F20FBF7FFFF0023FB750EE07D
:104AB000FB7D354A12F81300FB7D334A5B0013443B
:104AC0005B781946FBF7BCFEFB7D0133FB75FB7D74
:104AD000012BEDD90023FB750EE0FB7D2B4A12F86C
:104AE0001300FB7D294A5B0013445B781946FBF7F2
:104AF000DBFFFB7D0133FB75FB7D182BEDD900231C
:104B0000FB7506E0FB7D184600F058F9FB7D01338C
:104B1000FB750C22FB7D9342F4D3FB7919460B20E5
:104B200000F0F8F80C23184600F0D0F8172000F039
:104B30002BF94B2000F0BAF805212820FBF7B4FF31
:104B400000213620FBF7B0FF0120FCF7ABF842F262
:104B500010733B6100BF3B695A1E3A61002BFAD1CA
:104B600000BF2420FBF702FF034603F01F03002BC6
:104B7000F7D1FCF75DF8FCF745F800BF1C37BD46E0
:104B800090BD00BFD40A0020A87C0208AC7C0208BB
:104B900080B582B000AF78600B46FB70FB78002BCD
:104BA00005D1022279680320FBF7AEFF04E0022260
:104BB00079681320FBF7A8FF072318460837BD467E
:104BC00080BD00BF80B582B000AF78600B46FB703F
:104BD000FB78002B05D1022279680520FBF794FFB2
:104BE00004E0022279681520FBF78EFF07231846A0
:104BF0000837BD4680BD00BF80B582B000AF786089
:104C00000B46FB70FB78002B05D108227968072042
:104C1000FBF77AFF04E0082279681720FBF774FF9E
:104C2000072318460837BD4680BD00BF80B584B055
:104C300000AF03460A46FB711346BB71BB79002BDC
:104C400017D1194BDB79FB73FB79012B04D1FB7B6B
:104C500043F02003FB7303E0FB7B23F02003FB7393
:104C6000114AFB7BD371FB7B19460720FBF7E8FD5C
:104C700015E01F20FBF782FF0346FB73FB79012B36
:104C800004D1FB7B43F00403FB7303E0FB7B23F0C5
:104C90000403FB73FB7B19461F20FBF705FF07236B
:104CA00018461037BD4680BDD40A002080B582B0BA
:104CB00000AF0346FB71FB7919462220FBF7F4FE97
:104CC000072318460837BD4680BD00BF80B584B0B5
:104CD00000AF0346FB711F20FBF750FF0346FB7339
:104CE000FB7B03F00F03FB73FB791B015AB297F9AF
:104CF0000F3013435BB2FB73FB7B19461F20FBF79E
:104D0000D3FE034AFB79137000BF1037BD4680BD48
:104D10005100002080B582B000AF03460A46FB7107
:104D20001346BB71BB79002B12D1FB790B3B144AA4
:104D3000D35C19462020FBF783FDFB790B3B5B001E
:104D4000104A1344022219462120FBF7A9FD11E065
:104D5000FB790B3B0A4AD35C19461020FBF7A4FEF3
:104D6000FB790B3B5B00074A1344022219461120D2
:104D7000FBF7CAFE072318460837BD4680BD00BFB3
:104D8000E47C0208F47C020880B582B000AF0346E0
:104D9000FB71FB791C2B02D91C23FB7104E0FB790E
:104DA000072B01D80823FB71FB7919462320FBF759
:104DB00047FD072318460837BD4680BD80B584B03F
:104DC00000AF0346FB710C22FB79934201D305230C
:104DD0000CE0FB791B015BB243F005035BB2FB7394
:104DE000FB7B19460820FBF72BFD072318461037DD
:104DF000BD4680BD80B485B000AF0346FB71FB7932
:104E0000E52B01D9FF2311E0FB79092B01D8002301
:104E10000CE0FB7941F6D33202FB03F3FB60FB6845
:104E20001A0CFB791344FB60FB68DBB2184614379D
:104E3000BD4680BC704700BF80B500AF1E4B00224E
:104E40001A701E4B00221A701D4B00221A821C4B36
:104E500000225A601A4B002283F82C20184B0022A3
:104E600083F82D20164B41F247325A82144B03220D
:104E7000DA75FDF7D9FB124B01225A75104BFF2250
:104E800083F824200E4B00229A750D4B9B7D43F036
:104E90000403DAB20A4B9A75094B9B7D43F0080371
:104EA000DAB2074B9A75064B9B7D63F07F03DAB24B
:104EB000034B9A7500BF80BD740B0020980500203D
:104EC000000B002080B500AF184B03221A70174B5F
:104ED00014225A70154B5B780A2B03D8144B782296
:104EE0001A6002E0124B64221A60124B01221A70FF
:104EF000104A13796FF3000313710E4A13796FF39D
:104F0000410313710B4B02221A720B4B01221A70D0
:104F1000FEF77AFE4FF6FF7000F010F84FF6FF70C4
:104F2000FFF7B0FA034B1B7A184680BDA80A002091
:104F3000000B00201C0A0020180A002080B582B057
:104F400000AF0346FB80064AFB885382044B5B8A12
:104F50001846FFF789FA00BF0837BD4680BD00BF7D
:104F6000000B002080B582B000AF0346FB71054AFC
:104F7000FB795370FB791846FFF72CFA00BF08370E
:104F8000BD4680BDA80A002080B582B000AF0346B0
:104F9000FB80FDF749FBFB881846FDF763FBFB88A8
:104FA0001846FFF76FFA00BF0837BD4680BD00BF47
:104FB00080B582B000AFFEF727FEB84B1B7923F017
:104FC0007F03DBB2002B01D000F0FCFA00F0CCFC38
:104FD000B34B1B78082B00F2018201A252F823F098
:104FE000055002086550020897530208B55302089D
:104FF000DD530208F35202083F5302082952020807
:1050000077520208A54B5B7903F00403DBB2002B57
:1050100000F0E681A34B1B681B68A24A927E1344F2
:105020001B78FB71FB79062B0AD0072B02D0012BD2
:105030000BD010E0994A53796FF38203537110E05B
:10504000964A53796FF382035371944A53796FF3FD
:105050008203537105E0914A53796FF382035371D0
:10506000BEE1BDE1904B1B78033B052B00F2D480E1
:1050700001A252F823F000BFA1500208AD5002086F
:10508000AF5102083D510208DB500208915002085E
:10509000854B9A78844B1A71814B00221A70C2E0BA
:1050A00000F00CFB7E4B02221A70BCE07B4A1379A5
:1050B00043F0800313717D4B0A221A707C4B02224D
:1050C0001A707B4B02221A727A4B01221A70FEF779
:1050D0009BFD734B02221A70A5E0774B1B7B03F0FC
:1050E0000203DBB2002B40F09980734A137B43F03C
:1050F00002031373714B03229A73704BC822DA7345
:105100006E4B4FF6FF725A806C4B4FF6FF721A804F
:105110006A4B4FF6FF725A8100F07EFF5F4A537967
:105120006FF3451353715D4A537943F04003537154
:1051300000F0C4FA5A4B05221A7074E0574A5379AA
:105140006FF3000353715C4B1B7B03F00203DBB274
:10515000002B65D1584A137B43F0020313734F4A67
:10516000537943F0020353714F4B9B781846FFF776
:1051700031F9514B524A5A614F4B5B6907221A7001
:105180004D4B01221A764D4B0822DA734B4B4FF6EA
:10519000FF725A80494B03229A73484B4FF6FF72B5
:1051A0001A8000F08BFA3E4B03221A703BE0424B10
:1051B0001B7B03F00203DBB2002B33D13E4A137B8F
:1051C00043F002031373384B9B781846FFF702F93C
:1051D000324A53796FF3C303537100F0DFFD374B4D
:1051E00023229A73354BC822DA732C4BDA8C334B5B
:1051F0005A802A4B1A8D314B1A80284A537943F032
:10520000100353712D4B4FF6FF725A8100F056FA7E
:10521000234B07221A7006E000BFEEE000BFECE06F
:1052200000BFEAE000BFE8E01C4B1B7923F07F03DE
:10523000DBB2002B40F0D6801F4A137B6FF3410393
:1052400013731A4B1B78002B0CD0184B1A78164B83
:105250001A71124A53796FF304135371104B0022E1
:105260001A70CAE0FFF79AF80246164B1A600C4B08
:1052700008221A70C1E0094B5B7903F00803DBB226
:10528000002B21D0084B00221A71044A53796FF386
:1052900004135371024B00221A70A5E0000B00208A
:1052A000740B0020E40A0020580B0020E00A0020C4
:1052B0001C0A0020180A0020A80A0020600B002009
:1052C000A60A00209C050020FFF768F802464D4B17
:1052D0001B68D31A142B40F287804B4B0D221A7196
:1052E0004A4A53796FF304135371494B00221A70E1
:1052F0007AE0464B1B7923F07F03DBB2002B75D19C
:10530000444A137B6FF341031373434B1B78002B09
:105310000CD03E4A53796FF3861353713E4B1A7883
:10532000394B1A713A4B00221A7066E0FFF736F8D3
:105330000246344B1A60364B06221A705DE0334B3E
:105340005B7903F02003DBB2002B10D02E4B002240
:105350001A712E4A53796FF3861353712B4A53797E
:105360006FF3451353712A4B00221A7040E0FFF788
:1053700015F80246234B1B68D31A142B38D9224B3D
:105380000E221A71214A53796FF386135371204B01
:1053900000221A702CE01D4B1B7923F07F03DBB237
:1053A000002B27D11C4B1A78174B1A71184B00226F
:1053B0001A7022E0154B1B7923F07F03DBB2002B20
:1053C0001AD1154B1A78104B1A71114B00221A7012
:1053D000104A137B6FF3410313730EE000BF0CE020
:1053E00000BF0AE000BF08E000BF06E000BF04E025
:1053F00000BF02E000BF00E000BF00BF0837BD46AD
:1054000080BD00BF9C050020580B0020000B002031
:10541000740B0020A80A0020E00A002080B500AF2D
:10542000094B5B691B7803F02003002B09D0074A66
:10543000137943F040031371FEF7B0FF0246034BAC
:10544000DA6100BF80BD00BFA80A0020000B002069
:1054500080B483B000AF78600B46FB707B681B782C
:10546000052B05D1164A13796FF38613137121E0CA
:10547000134B93F82D300133DAB2114B83F82D2002
:105480000F4B93F82D30052B03D10D4B002283F8E1
:105490002D200B4B93F82D30094906337A6841F8DB
:1054A0003320074B93F82D30054A0633DB001344B5
:1054B000FA781A7100BF0C37BD4680BC704700BF38
:1054C000000B002080B483B000AF0C4B93F82D305C
:1054D0000133FB71FB79052B01D10023FB71074BD5
:1054E00093F82C30FA799A420CBF01230023DBB2E7
:1054F00018460C37BD4680BC704700BF000B00202B
:1055000080B400AF074B93F82C20064B93F82D3056
:105510009A420CBF01230023DBB21846BD4680BC73
:10552000704700BF000B002080B483B000AF0F4B6A
:1055300093F82C200D4B93F82D309A4201D1002383
:105540000EE00A4B93F82C300133FB71FB79052BED
:1055500001D10023FB71FB790633DB00034A1344BE
:1055600018460C37BD4680BC704700BF000B0020BA
:1055700080B582B000AF0346FB71114B93F82C301D
:105580000133DAB20E4B83F82C200D4B93F82C30FC
:10559000052B03D10A4B002283F82C20FB79002B2A
:1055A00009D0074B93F82C30054A063352F83330B4
:1055B000184601F0C1FE00BF0837BD4680BD00BFE0
:1055C000000B002080B500AF384B1B7923F07F0320
:1055D000DBB2002B67D0364B1B78002B63D1354BE9
:1055E0001B7A002B28D0314B93F82B30002B07D09F
:1055F0002E4B93F82B30013BDAB22C4B83F82B2047
:105600002A4B93F82B30002B07D0284A13796FF3DD
:105610008613137100F052F845E0244A13796FF3B2
:1056200086131371214A13796FF3C7131371214B3A
:105630001A7A214B1A7036E01C4B1B7903F0400399
:10564000DBB2002B08D1194A13796FF3C71313711A
:10565000194B00221A7026E0FEF7A0FE0246134BFB
:10566000DB69D21A114B1B689A421CD90F4B93F875
:105670002B30002B07D00D4B93F82B30013BDAB2C7
:105680000A4B83F82B20094B93F82B30002B08D1C1
:10569000094B0B221A70054A13796FF3C713137164
:1056A00001E000F00BF800BF80BD00BF000B002040
:1056B000180A00201C0A0020E00A002080B582B0F1
:1056C00000AF694B1B7923F07F03DBB2002B40F066
:1056D0002F81664BDB7B9B08DBB203F003037B71FE
:1056E000624BDB7B9B09BB715F4B5B8A4FF6FE72A3
:1056F000934212D1BB79022B0FD10323BB715B4BB9
:10570000DB7B03F03F03DAB2584BDA73574BDB7B9A
:1057100063F03F03DAB2554BDA73BB79022B04D046
:10572000032B21D0002B31D031E0514B5B69013B81
:105730004F4A53614E4B5B694C4A9289120A92B2AE
:10574000D2B21A704A4B5B69013B494A5361484BDC
:105750005B69464A9289D2B21A70454B1B7E02336E
:10576000DAB2434B1A7612E0414B5B69083B1846AC
:10577000FEF75EFE3E4B1B7E0833DAB23C4B1A76D8
:105780003B4B5B69083B3A4A536100E000BF374B33
:105790009B7B03F04003002B20D1BB79002B1DD055
:1057A000334B5B69013B324A5361314B5B692F4A92
:1057B0005289120A92B2D2B21A702D4B5B69013B28
:1057C0002B4A53612A4B5B69284A5289D2B21A701C
:1057D000274B1B7E0233DAB2254B1A767B79022BDC
:1057E00004D0032B21D0002B44D044E0204B5B6934
:1057F000013B1F4A53611E4B5B691C4A5288120AC7
:1058000092B2D2B21A701A4B5B69013B184A5361CB
:10581000174B5B69154A5288D2B21A70144B1B7E23
:105820000233DAB2124B1A7625E00023FB7110E046
:105830000F4B5B69013B0E4A53610D4B5B69FA7973
:10584000C2F1070209490A4492781A70FB790133C0
:10585000FB71FB79072BEBD9054B1B7E0833DAB2C2
:10586000034B1A7607E000BF000B0020600B0020FE
:10587000A80A002000BF7B79002B1DD0344B5B6948
:10588000013B334A5361324B5B69324A1288120A38
:1058900092B2D2B21A702E4B5B69013B2C4A536113
:1058A0002B4B5B692B4A1288D2B21A70284B1B7E95
:1058B0000233DAB2264B1A76FEF77CFD03461A460F
:1058C000254B1A75224B5B69013B214A5361204BE2
:1058D0005B69214A127D1A701D4B5B69013B1C4AB2
:1058E00053611B4B5B691B4AD27B1A70184B5B6977
:1058F000013B174A5361164B5B69164A927B1A703B
:10590000134B1B7E0333DAB2114B1A76124A13790A
:105910006FF386131371104A137943F080031371E8
:105920000D4BDA7D0C4B83F82B200C4B0A221A709E
:105930000B4B02221A700A4B02221A72094B0122E7
:105940001A70FEF761F900BF0837BD4680BD00BF81
:10595000A80A0020600B0020000B0020E00A0020B5
:105960001C0A0020180A002080B582B000AF594BF5
:105970001B78012B00F08880022B00F09380002B15
:1059800000D0A2E0FFF7BCFD0346002B40F098805A
:10599000FFF7CAFD78607B681B6801331B7803F052
:1059A0000303002B0AD14C4B5B7903F00203DBB2FB
:1059B000002B03D10120FFF7DBFD86E07B681B682D
:1059C00001331B7803F00303022B03D10120FFF7FF
:1059D000CFFD7AE0414A7B68136000F081F87B6874
:1059E0001B6801331B7803F00303002B05D100F083
:1059F00057F90120FFF7BCFD67E07B681B680133A6
:105A00001B7803F00303012B11D100F019FB0346AF
:105A1000002B03D10120FFF7ABFD56E0FEF7BEFCE3
:105A200002462D4B1A622B4B01221A709FE72B4B1B
:105A30001B681B68294A927E13441B78FB70FB7815
:105A4000022B02D0082B0DD019E0234B5B7903F019
:105A50001003DBB2002B01D000F0C6F90120FFF7E4
:105A600087FD10E01C4B5B7903F04003DBB2002B99
:105A700001D000F035FA0120FFF77AFD03E00120A4
:105A8000FFF776FD00BF20E0FBF796FC0346002BF6
:105A900018D1FBF7A1FC0020FFF76AFD0D4B002297
:105AA0001A7012E00C4B5B7903F00403DBB2002B9D
:105AB0000AD10120FFF75CFD064B00221A7004E0BA
:105AC00000BF02E000BF00E000BF00BF0837BD46D6
:105AD00080BD00BF98050020000B0020E40A0020D4
