:020000040800F2
:1000000000000220891300081D4E00082D4E000834
:100010003D4E00084D4E00085D4E000800000000F7
:100020000000000000000000000000006D4E00080D
:10003000714E000800000000754E00084D0E0008CB
:10004000D9130008D9130008913A0008D913000801
:10005000D9130008D9130008D9130008D9130008D0
:10006000D9130008D9130008D9130008D9130008C0
:10007000D9130008D9130008D9130008D9130008B0
:10008000D9130008D9130008D9130008D9130008A0
:10009000D9130008D9130008D9130008F16A000821
:1000A000D9130008D9130008D9130008D913000880
:1000B000A5390008D9130008D9130008D91300087E
:1000C000D9130008D9130008D9130008D913000860
:1000D000D9130008D9130008D9130008D913000850
:1000E000D9130008A93A0008D9130008D913000849
:1000F000D9130008D9130008D9130008D913000830
:10010000D9130008D9130008D9130008D91300081F
:10011000D9130008D9130008D9130008D91300080F
:10012000D9130008D9130008D9130008D9130008FF
:10013000D913000869500008D9130008D913000822
:10014000D9130008D9130008D9130008D9130008DF
:10015000D9130008D9130008D9130008D9130008CF
:10016000D9130008D9130008D9130008D9130008BF
:10017000D9130008D9130008D913000800000000A3
:10018000D913000810B5054C237833B9044B13B1CB
:100190000448AFF300800123237010BDC804002081
:1001A0000000000000A90008084B10B51BB1084969
:1001B0000848AFF300800848036803B910BD074B37
:1001C000002BFBD0BDE81040184700BF0000000026
:1001D000CC04002000A90008C40400200000000096
:1001E00084B0019000230393019B0393039B2BB1E5
:1001F000039B013B0393039B002BF9D104B0704791
:1002000008B501214FF0007006F0CAFA00214FF046
:10021000007006F0C5FA08BD0123036000234360A7
:100220008360C36003614FF4804242618361C361B4
:100230004FF40062026243628362C36203634363FA
:100240008363C36340220264202242648364C364E4
:10025000036543658365C3650366802242668366E2
:10026000C366036743678367C3674FF08062C0F864
:1002700080204FF00072C0F88420C0F888304FF41E
:100280000011C0F88C10C0F89030C0F89430C0F85D
:100290009830C0F89C30C0F8A030C0F8A4204FF4CB
:1002A0008032C0F8A8204FF48002C0F8AC204FF490
:1002B0000052C0F8B020C0F8B430C0F8B830704771
:1002C00028B1064A136843F0080313607047034AD5
:1002D000136823F008031360704700BF00800240DA
:1002E00028B1064A136843F0040313607047034AB9
:1002F000136823F004031360704700BF00800240BE
:100300004A790B7943EA0223074A8350CA788B78EB
:100310001B0443EA02630A7813434A7843EA022340
:10032000024A8350704700BF408002404480024030
:1003300030B40B4B1A681368C3F30D43043B0949EF
:1003400009688C68012C86BF09688D689568D46837
:1003500003490C6003604560826030BC704700BF99
:10036000247A002058860020394B1B681A68002A1E
:1003700062DBF0B540F2F45290420FD9354AA2FB4D
:100380000012920A94B240F2F45101FB120292B2AE
:1003900002B10134012C01D08CB939E01A6842F065
:1003A00040521A602A4B1A68C0F30C005060116862
:1003B00041F0004111601A68D2681A602AE000F228
:1003C000F450254E06FB0400C0F30C060022204F1B
:1003D00040F2F455601E5AB9D7F800E0DEF800107C
:1003E00041F08051CEF800105D60824228D102E0D9
:1003F0005D60904204D1196841F0005119605E605F
:10040000196841F000411960DB6801329442E2D181
:100410000F4A136041F21403104AD35813F0040F2B
:100420000CD01346042141F214029950002141F2EC
:10043000040299500120F0BD002070470120F0BD5A
:10044000196841F000411960DB680132C3E700BF61
:10045000287A00200BB002AC0CFAFFFF00800240AB
:10046000F0B58446124B1860C2B114468646034666
:1004700000224FF0004744F2F456651E1F605E6094
:100480009960954286BF03F12000D860C3F80CE064
:100490000132203301F2F4519442EFD141F20C03C6
:1004A000044A42F803C0044A044B1A60F0BD00BF7E
:1004B000247A002000800240187A0020588600200C
:1004C000204B1B681A68002A0BDB1A6812F4807F25
:1004D00007D01D4A1268536093680133936001206E
:1004E00070471A68002A14DB1A6812F4007F10D0D3
:1004F000186810F480700CD1134A11680B601368EF
:1005000000225A6001229A600E4B1A68D2681A6063
:1005100070471A68002A11DB186810F400700FD1B8
:100520001A6812F480720CD1074908688168013199
:100530008160D968034B19601046704700207047EE
:1005400000207047247A002058860020F0B58646A7
:100550000E4B18609AB11446034600224FF48016E1
:10056000651E1E609960954286BF03F12007DF601B
:10057000D8600132203301F2F4519442F1D141F2BA
:100580001003034A42F803E0F0BD00BF287A0020C0
:10059000008002400368194301607047024A1368F3
:1005A00043F001031360704700900240024B18684B
:1005B00000F00100704700BF0090024031B1074ACF
:1005C00041F21C03D1580843D0507047034941F20F
:1005D0001C028B5823EA00008850704700800240BC
:1005E00041F21403014AD050704700BF008002401E
:1005F000034941F218028B5843F480138B50704723
:100600000080024038B1084941F218028B5843F487
:1006100000538B507047044941F218028B5823F461
:1006200000538B50704700BF0080024038B108492A
:1006300041F218028B5843F002038B507047044973
:1006400041F218028B5823F002038B50704700BF11
:100650000080024008B50120FFF732FEFFF7C8FF17
:100660000120FFF73DFE0120FFF7CCFF0120FFF73F
:10067000DDFF08BD82B000230193114A136989018F
:1006800001F4F86103F01C030B43C00280B2034382
:1006900043F0010313610B49019B0133019313697B
:1006A00013F0010F02D0019B8B42F5D9019A064B42
:1006B0009A421DBF024B586980B2002002B07047B9
:1006C00000800240FEFF0400FFFF040010B483B06E
:1006D00000230193114C236903F01C0343F003032F
:1006E000890101F4F8611943C00280B201436261DB
:1006F000216122460A49019B01330193136913F0DA
:10070000010F02D0019B8B42F5D90198054BC01A0D
:1007100018BF012003B010BC704700BF008002402A
:10072000FEFF0400FFFF0400F0B587B005460C464D
:10073000002305930093904B1E6926F01C0601A828
:1007400005F0A4FF029A8D4B13448D498B4202D8C9
:1007500046F008060EE08B4B13448B498B4202D8BF
:1007600046F00C0606E0894B1344894A934288BF41
:1007700046F00406804B1E614FF4004200212046E3
:10078000FFF7A4FF0346002800F0F2808148FFF73E
:1007900027FD2B68002B4FD001267F4F009B013394
:1007A000009331462046FFF765FF00F0040080B259
:1007B00010B9009BBB42F1D9009A784B9A4200F0E5
:1007C000D480002100914FF480522046FFF77EFF35
:1007D0000346002800F0CC8001266F4F009B0133B8
:1007E000009331462046FFF745FF00F0200080B21D
:1007F00010B9009BBB42F1D9009A684B9A4200F0B5
:10080000B6800023009310212046FFF733FF00F04D
:1008100004039BB21BB14FF400632B6201E0002381
:100820002B6200F0020080B210B100236B6115E072
:100830004FF480436B6111E02A6A6B695B0843EAFD
:10084000D20292B200212046FFF740FF0346002863
:1008500000F08E806FF07F40FFF7C2FC464B1968B6
:100860004F4A0A406868A9680843E968084329694B
:10087000084369690843A9690843E9690843296A83
:100880000843696A0843A96A0843E96A0843296B6F
:100890000843696B01430A431A60A96BEA6B114371
:1008A0002A6C11436A6C1143AA6C1143EA6C114320
:1008B0002A6D11436A6D0A435A60AA6D9A60EA6D07
:1008C000DA609969686EAA6E1043EA6E10432A6F67
:1008D00010436A6F10434FF641720A400243296E7B
:1008E00042EA01429A61A96FEA6F0A43DA6141F272
:1008F000180419592B4A0A40D5F88000D5F88410FD
:100900000843D5F888100843D5F88C100843D5F86B
:1009100090100843D5F894100843D5F89810084370
:10092000D5F89C100843D5F8A01001430A431A518A
:10093000D5F8A410D5F8A8200A4342F40002D5F84F
:10094000AC100A43D5F8B0101143D5F8B8200A43CB
:10095000D5F8B41042EA810203F580531A601A6890
:1009600042F080021A60012302E0002300E000232D
:10097000184607B0F0BD00BF0080024000D3CEFE95
:10098000BFE1E40040F1E9FD3F787D0100796CFCB6
:10099000FF596202FFFF0F00FEFF0400FFFF04008B
:1009A0000F8120FF233FDEF810B40B4B23F003032D
:1009B0000A49C1F824364FF42050188000225A808A
:1009C0001A711A18C1F82826012414711080508059
:1009D000C1F82C3610BC7047E7040020D426002054
:1009E000002847D00346244AD2F82426904241D317
:1009F0002149D1F8280683423CD270B4A3F1080102
:100A0000002403F8044C1C4CD4F82C46A1423CBFF3
:100A1000194CC4F82C1633F8085C5419A14212D0B2
:100A2000267986B9A0420ED01348D0F82C0684420D
:100A300004BF1148C0F82C16505B23F8080C505B1B
:100A400010448C1A448033F8060C1418A14210D0BC
:100A5000257975B9084DD5F82C56A94204BF064929
:100A6000C1F82C4633F8081C115233F8083C1A44DC
:100A7000508070BC704700BFD426002003314FF671
:100A8000FC730B400B2B03D9B3F5205F01D957E062
:100A90000C232E4AD2F82426824255D82B49D1F86D
:100AA0002816884250D2F0B4A0F10804A41AA4B2C7
:100AB00030F8085CA5F10801091B89B2994241D3BD
:100AC00041D056193779DFB9555B04F108010B4461
:100AD0009BB21E49D1F82C168E4203D1D1181B4E61
:100AE000C6F82C16D11800260E71D5524C8020F86D
:100AF000083CD15AB1F5205F25D00A44538022E04A
:100B000003F114058D421ED804F108010B449BB279
:100B1000D1180E4DD5F82C56A9423CBF0B4DC5F847
:100B20002C1600250D7130F8085CD5524C8020F849
:100B3000083CD15AB1F5205F05D00A44538002E049
:100B4000002070470020F0BC704700BFD426002072
:100B500000285DD0F0B4034603334FF6FC741C400C
:100B60000B2C03D9B4F5205F01D953E00C242C4B96
:100B7000D3F82416D3F82C365B1A9BB2C4F5205553
:100B8000AB4249DA2646C8180279002A3BD1CA5A34
:100B9000083AD21A3746A24235D31437BA4213D391
:100BA00004F108021A4492B28C18002525710588B8
:100BB0008D5263800280012303718B5AB3F5205F4D
:100BC00004D00B445A8001E001230371144BD3F885
:100BD0002C36984215D11A799AB1114AD2F82816B2
:100BE0008B420ED0D2F824461B8823441A791AB9B6
:100BF0000B4AC2F82C3604E08B42F5D1084BC3F8FF
:100C00002C16083009E00388AB42BCDB002004E06E
:100C100000207047002000E00020F0BC704700BFBB
:100C2000D42600202DE9F04182B00121022005F0F8
:100C30007FFD0121084605F07BFD01214FF4805026
:100C400005F0A0FD244D05221146284605F056FC6E
:100C500005220621284605F051FCDFF88880052290
:100C60001146404605F04AFC2026009602238DF8E6
:100C7000043003238DF8053000248DF80640012749
:100C80008DF807706946284605F0ECFB4023009379
:100C90006946284605F0E6FB00966946404605F0A1
:100CA000E1FB0E490C804FF482734B808C80CC802A
:100CB0000C814FF400734B818E81CC8107230B8212
:100CC000074C204601F046FD3946204601F062FD02
:100CD00002B0BDE8F08100BF00000240042D0020FA
:100CE000003001400004024010B50446238903F09F
:100CF00002039BB2002BF9D0204601F05DFD238951
:100D000013F0010FFBD0204601F052FDC0B210BD20
:100D100070B521F008039BB22BB1102B03D0202B10
:100D200001D0302B0DD1134B98420DD0A3F5784351
:100D300098420BD003F58063984209D04FF0FF3002
:100D400070BD4FF0FF3070BD0B4E02E00B4E00E067
:100D50000B4E0D460446002101F01CFDB5813146C5
:100D6000204601F0F7FC0121204601F013FD002090
:100D700070BD00BF00300140042D0020162D002062
:100D8000282D002001807047008880B2704700BF86
:100D9000024A136801331360704700BF3C2D0020E6
:100DA000094B1A68094B9A4204D1094BA3FB003046
:100DB000800970474FF47A7303FB00F0054BA3FBE7
:100DC0000030C00B704700BF60000020000E2707F6
:100DD0008988888873B2E74510B5074B9868074B38
:100DE0001C68C0F5EA30C030FFF7DAFF4FF47A73C1
:100DF00003FB040010BD00BF10E000E03C2D00200C
:100E0000014B1868704700BF3C2D0020064B074A75
:100E10005A60F021064A82F8231000229A600721C6
:100E20001960044B1A60704710E000E0BFD4010065
:100E300000ED00E03C2D0020034B1B681844024AE3
:100E400013689842FCD870473C2D002008B5FFF786
:100E50009FFF08BDF0B40146466A058DAA19C46A11
:100E6000038F40F66830834288BF0346101BC31AC5
:100E7000002B01DB4D8509E0331B002B03DD002334
:100E80004B85184602E0A41B4C850020F0BC70473F
:100E900010B50446038D194489B241F2D0639942DA
:100EA00092BF018541F2D0630385FFF7D3FF40F283
:100EB000B353984208DD94F8223043F0020384F8DB
:100EC0002230204608F05CFD10BD00BF38B560B18F
:100ED0000446406818B105F053F8054600E00025C7
:100EE0002146042001F0BAFC00E00025284638BD68
:100EF00038B558B1034600241D681846FFF7E6FFD1
:100F00002044C4B22B46002DF6D100E00024204638
:100F100038BD00BF037C012B13D90A2B11D010B5AB
:100F20000446C06F18B105F02BF80023E367606F2B
:100F3000FFF7DEFFA06FFFF7DBFF00236367A36708
:100F400010BD704710B50C4602688A4202D1D368C2
:100F5000036016E0174B1A609AB1D36899420BD11F
:100F600005E0DA68944206D1124A136000E01346A5
:100F7000E268DA6005E01346002BF2D100220D4B47
:100F80001A600023E3602046FFF7C4FF237C0A2B8E
:100F90000DD0012B0BD094F8223013F0010F06D0A6
:100FA00043F0020384F82230204608F0E9FC0023D5
:100FB000237410BD9092002010B50446037C072BCB
:100FC00059D8DFE803F00429323B4358584B2E4BE5
:100FD0001A68904202D1C2681A6016E02B4B1A6060
:100FE0009AB1D36898420BD105E0DA68944206D1F1
:100FF000264A136000E01346E268DA6005E0134613
:10100000002BF2D10022214B1A600023E36021461D
:10101000022001F023FC30E001461D48FFF792FF5B
:101020002146032001F01AFC27E001461948FFF78A
:1010300089FF2146022001F011FC1EE0012108F089
:1010400065FC0346F0B90523237418E0012108F07C
:101050005DFC0346B0B90523237410E0012108F0BC
:1010600055FC034670B90923237408E0204608F0B4
:1010700087FC002306E0002304E0002302E0002CAC
:10108000F4D10023184610BD9492002090920020C5
:101090008C9200208492002010B5084642B114467C
:1010A0001189FFF7F5FE204604F06AFF002010BD0D
:1010B00013B9FFF781FF10BD002010BD2DE9F04FDF
:1010C00085B00446037C0A2B08D101462048FFF76F
:1010D00039FF2146022001F0C1FB36E00E46D0F870
:1010E0005880D0F8249008B1036800E000230293F0
:1010F00014F1040F14BF636800230393B4F818A01D
:10110000B4F820B0D4F89050676921461148FFF731
:1011100019FFA06F08B1FFF7EBFE606F08B1FFF792
:10112000E7FE2146022001F099FB1DB16FF004019A
:101130003846A8474EB1CDF804B0CDF800A003ABB7
:1011400002AA4946404608F067FD05B0BDE8F08FA9
:101150009892002084920020034A5068034B1B6839
:1011600018445060704700BF0000002088920020A3
:10117000F8B50546022001F05BFB0446002837D194
:10118000384B1B687BB1384A146801461A6BA21AA7
:101190008A4224BF11461846DB68002BF6D110B1F5
:1011A0000121FFF78BFF022001F042FB0446F8B952
:1011B0002E4B1B68B3B12C4A176806467F245A7C15
:1011C000954208D3A24206D8196B791AB14202D3CC
:1011D00014460E461846DB68002BF0D110B10121F1
:1011E000FFF76CFF022001F023FB0446002837D0F4
:1011F000A0220021204608F085FE4023637441F6BA
:101200008443A4F86E300025A4F8705041F2D063F6
:1012100023856385A572FF23E3724FF4067323874A
:101220000623A4F84830A4F84450A4F846304FF6FA
:10123000FF73E3860123A4F85230FFF78DFF606649
:10124000A065E064A066084B1B68236384F83450F3
:10125000074BC4F88430074BC4F8943084F89D5091
:101260002046F8BD989200208892002084920020A9
:101270009910000800DD6D0010B50446084605F021
:101280008BFF30B1838C23B1283B9BB29C4228BF9B
:101290001C46204610BD00BF30B585B004460D4643
:1012A000038A9BB223F44053CA8813430382838981
:1012B0009BB223F4B05323F00C0289882B890B4393
:1012C00069890B439BB213438381838A9BB223F4C6
:1012D0004073AA8913438382684605F0D7F91C4BF3
:1012E0009C4203D003F580639C4201D1039B00E044
:1012F000029BA28912F4004F03EB830303EB8303E9
:10130000296814BF49008900B3FBF1F1114BA3FB1D
:10131000012358090501642300FB1313A28912F469
:10132000004F09D0D90032310A4AA2FB0131C1F382
:10133000421242EA050307E01B013233054AA2FBD1
:101340000323C3F343132B439BB2238105B030BD6A
:10135000001001401F85EB5129B183899BB243F4F2
:10136000005383817047838923F400531B041B0CB3
:1013700083817047C1F30801818070470388194257
:1013800014BF012000207047DFF834D0002103E0B3
:101390000C4B5B58435004310B480C4B42189A429B
:1013A000F6D30B4A02E0002342F8043B094B9A4271
:1013B000F9D305F0B7F808F007FD02F017FA704707
:1013C0000000022000A9000800000020C80400203E
:1013D000C8040020B4970020FEE7000010B502F01A
:1013E000D5FB044690F8280094F829301B0443EA02
:1013F000006394F82B00034394F82A0043EA00208A
:1014000004F096FF034B1860A28D9A80E28DDA807B
:1014100010BD00BF402D002008B5034A938805F099
:1014200093FEC0B208BD00BF402D002052080FD06F
:1014300070B58C1E851E561EB6B201EB460634F8FA
:10144000020F04F06FFF25F8020FB442F7D170BD10
:10145000704700BF2DE9F0418EB018680D90002A4A
:101460003AD014460D465389082B0BD108226168E7
:1014700001A8FFF7DBFF01A802F06EFC10B101220A
:10148000174B1A706389142B1CD101A802F06AFB58
:1014900067686689043E3246394608A808F0BCFCF5
:1014A00007EB0608B85B04F03DFFADF83000B8F874
:1014B000020004F037FFADF8320001A802F04CFB47
:1014C00002F044FDBDF850300DAA2146284605F033
:1014D0003BFE204604F054FD0EB0BDE8F08100BF95
:1014E000D593002010B5FFF779FF05F047FE064CB5
:1014F000A060E288054905F089FD00220449A06842
:1015000005F038FE10BD00BF402D002004A30008E8
:1015100055140008014B9868704700BF402D00200B
:10152000F8B50546214B1C68A08904F0FBFEC0F30A
:101530000F30052838D91D4B1B68988904F0F2FE3E
:10154000000B0538800080B270B304F11402002350
:1015500040F2B35740F2B4561C46D15C012903D087
:1015600011B3022903D018E001339BB21AE0D1185D
:101570004978042918D1191D814215DC144494F8C6
:1015800002E0E17841EA0E214C1EA4B2BC4288BFC1
:101590003146298704339BB204E01444617819B1C1
:1015A0000B449BB28342D7D3F8BD00BF4C2D002023
:1015B0002DE9F0410446924B1B7913F0100F00F017
:1015C0006481B0F85C50406E226E8D4B9B68D11ADE
:1015D00000290FDB9A4204D1894AD268821A002A74
:1015E00008DB874AD268904214D1854A1268D289B2
:1015F000AA420FD9824A1168C9898EB2A4F85C1038
:101600002366D36863662EB194F89C3013B100232F
:1016100084F89C307A4BDA68E36CD11A002937DC05
:101620000021A4F86C107649098A002940F0228232
:101630002844B4F85C50616E2944884240F01A8214
:10164000B4F936100029C0F215829A4240F0128295
:1016500094F850305A1C9342BCBF134684F8503063
:1016600094F85030032B09D9B4F85220238F134437
:101670009BB29A4207D2A4F8523004E0032B02D165
:10168000204608F03FFB636F002B40F0BB80D5E0A5
:10169000012900F18D80A16D511A002900F3888085
:1016A00094F8221011F0040F07D021F0040184F8FF
:1016B0002210B4F85410A4F85210002084F84A0004
:1016C000B4F94450B4F8461001EBE501A4F8481011
:1016D000D31A9BB2A4F86C30B4F86E100B44A4F883
:1016E0006E3084F85000E264237C032B18D9B4F8E0
:1016F0005220B4F85430934207D9238F13449BB23D
:101700009A420DD2A4F852300AE0238F03FB03F370
:1017100093FBF2F313449BB29A4238BFA4F85230C1
:10172000A36F1BBB3AE0A56F2B68A367686804F042
:101730001DFDB4F86C305BB12B69988904F0F2FDA3
:1017400010F0010F04D0B4F86C30013BA4F86C30F9
:10175000686804F00BFDB4F87030181AA4F8700033
:101760002846FFF7B3FBA36F0BB917E0244F1B69A3
:10177000586804F0E9FD0546A36F9E891B699889A6
:1017800004F0D0FD10F0030018BF01200644FB68F0
:10179000ED1A3544002DC6DDA36F1BB94FF6FF735C
:1017A000E38601E00023E386002384F834306AE70F
:1017B0000023A4F86C3066E7656F2B686367686880
:1017C00004F0D4FCB4F86C305BB12B69988904F058
:1017D000A9FD10F0010F04D0B4F86C30013BA4F85F
:1017E0006C30686804F0C2FCB4F87030181AA4F8C1
:1017F00070002846FFF76AFB636F23B91EE000BF45
:101800004C2D00209E4FFD681B69586804F09CFD1C
:101810008046636F9E891B69988904F083FDC8EB3D
:10182000050510F0030018BF01200644AD1B002D74
:1018300004DBFB68A26D9B1A002BBDDDE36B23B3B9
:10184000226C8F49C968521A002A1EDAB4F9441072
:101850008C4A1268D21AA2EBE10292B213B211447E
:1018600009B2A4F84410002BBCBF524213B2B4F921
:101870004620A2EBA20213449BB2A4F8463003EB2D
:10188000E103A4F848300023E3637D4B1B8A002B5F
:1018900000F0D980626A7A498968561A012E2DD4DF
:1018A000501C401AC31A002B28DC3346744A956931
:1018B0006A89964210DD2989891B89B200209B1A0A
:1018C000298168812D686A899A42F8DB594209B2F8
:1018D000284604F019FB04E0714209B2284604F0DE
:1018E00013FB674B6A68DA61616A98681A8C024474
:1018F000521A1A845A6A996051600BE08B1A002BB5
:101900000FDA94F8223043F0020384F822302046A4
:1019100008F036F85A4B9968626A8B1A002BC0F2AD
:101920008D80238DC3F101030B449B1A002B00F320
:10193000858091427DD1524D2E8C6B6A988904F03E
:10194000F1FC10F0030018BF012033189BB22B826A
:10195000228D9A4237D26B6A988904F0E3FC10F02A
:10196000010F11D02E466B6A9D894FF6C07004F0AE
:10197000D3FC0540766AB08904F0D4FC00F03E0048
:1019800004F0CAFC2843B0813D4B228D1A845B6A67
:10199000988904F0C7FC00F0020083B21BB1384AFA
:1019A000138C013B1384364D298CA86904F0B2FBDB
:1019B0002E8C6B6A988904F0B5FC10F0030018BFF8
:1019C0000120304428822E4D298AAA680A44626286
:1019D000238D5B1A23852046FFF73CFAAB691A89F1
:1019E00012B1AB620023AB61254B5B6A988904F0AE
:1019F00099FC10F0010F06D0214A92F82C3043F0E8
:101A0000200382F82C3094F8223013F0010F0AD012
:101A100023F0010343F0020384F82230204607F04C
:101A2000AFFFBDE8F08143F0010384F82230BDE848
:101A3000F081204607F078FFBDE8F081204607F0EE
:101A400073FFBDE8F0810E4B9B68626A991A00290A
:101A500005DB01339B1A228D9B1A002B0EDD94F8B7
:101A6000223043F0020384F82230204607F088FF3A
:101A7000BDE8F081002384F8503004E6BDE8F08131
:101A80004C2D0020889200202DE9F04182B00546BF
:101A90000F464468934E3463208804F043FCC0F33F
:101AA000032004EB80043460336B188804F03AFCA4
:101AB000C0F3032081004942284604F025FA10B9FA
:101AC0002B89132B04D8284604F05AFA00F05CBC8A
:101AD000844B186B3946103001F0BEFD68B9814B5C
:101AE0001B6B1C694FF0704004F02EFC04404FF05B
:101AF000604004F029FC844204D1284604F040FAF6
:101B000000F042BC774B1B68988904F00BFC000B7B
:101B1000C0EB8030810009B2284604F0F5F920B10D
:101B2000284604F02DFA00F02FBC6E4C2668308851
:101B300004F0F8FB30802668708804F0F3FB7080B6
:101B40002668706804F000FC7060A0602668B068C9
:101B500004F0FAFBB060E0602668F08904F0E2FB74
:101B6000F0812368988904F0DDFBC0B200F03F03E8
:101B7000237110F0030118BF01212B89194489B288
:101B80002182594BD3F800C0BCF1000F29D027683F
:101B90003E88D4F830E06446002200E01C46238CE6
:101BA000B34216D1B4F818807B88984511D1DEF87D
:101BB0000C80636843450CD1DEF8108023684345F0
:101BC00007D15AB1E368D360C4F80CC0464B1C601F
:101BD00004E0E3682246002BE0D102E0002C40F054
:101BE0009683424B1B68002B47D03E4C22681688D8
:101BF000D4F830E01C8CB4423CD11C8B5788A742EF
:101C000038D1DEF80CC05F68674533D1DEF810C00C
:101C10001F6867452ED110F0040F27D110F0020F76
:101C200014D0304A90685A6A821A15D41F8DD21B7C
:101C3000002A11DC019600940EF10C030EF1100243
:101C400001442848C06807F0E7FF0FE010F0010FDB
:101C500002D0274A12681A6341B193F8222042F059
:101C6000020283F82220184607F08AFE284604F074
:101C700087F989E3DB68002BBCD11E4BD3F800C089
:101C8000BCF1000F00F05483164BD3F830E01A6813
:101C90006446002700E01C462CB123681BB1DEF827
:101CA0001060B3427DD1268B53889E4279D12FB1EB
:101CB000E368FB60C4F80CC00E4B1C6010F0100F02
:101CC0001AD0084B9C68D8681388019353880093F6
:101CD0000EF10C030EF110022144013007F09CFFBD
:101CE0005BE000BF4C2D00208492002098920020E1
:101CF000889200208C92002010F0020F4DD0607C62
:101D0000FFF736FA0646002847D0AE4B1B6B13F19F
:101D1000100F14BF1A6900220260228B028313F194
:101D20000C0F14BFDB6800234360A64B1A681188B0
:101D30000184032101749B68591C4162C162D289EC
:101D4000A0F85C20A0F85420013B0366636943615E
:101D5000E369C361238923F47E4323F0660303818F
:101D6000994B1A68C2601860FFF7DAFB311D308F9B
:101D7000FFF782FA3087012301930021009112239B
:101D80000A46304607F0DAFB20B100213046FFF763
:101D900095F902E0304607F0F3FD284604F0F0F82C
:101DA000F2E2E3682746002B7FF475AFC0E2D4F877
:101DB000846026B1002321466069B04704E0002317
:101DC00021461846FFF768F910B90023E36703E0DE
:101DD000284604F0D5F8D7E27C4B1C60794B1B7980
:101DE00013F0040F27D0237C022B07D1A36D754A73
:101DF000D268934214BF002301230BE0714B9B6810
:101E0000626A9B1A00F1F881228D9B1A002BCCBFCD
:101E100000230123002B00F0EF816A4A92F82C3056
:101E200043F0080382F82C3094F8223023F00103A9
:101E300084F82230E0E113F0020F00F08482237C6A
:101E4000023BDBB2012B40F27E8294F8223043F059
:101E5000020384F82230204607F092FDCCE1594B72
:101E60001B7903F01203122B52D1A36F1B69586820
:101E700004F06AFA0130534BDB68984248D1B4F859
:101E80006E300133A4F86E304E4A9368591C61627B
:101E9000E162E0641268D289A4F85C20013B236609
:101EA00004232374E118208FFFF7E6F9208700EB65
:101EB00080035B00A4F85430B4F85230012B04BF07
:101EC000400080B2A4F85200B4F87030013BA4F88E
:101ED0007030A06F0368A3671BB94FF6FF73E386EA
:101EE00003E00023E38684F84A30FEF7EFFFD4F8DE
:101EF00088301BB1002221466069984794F822304F
:101F000043F0020384F82230204607F039FD73E1E4
:101F10002C4B1B7913F0100F00F06E812948026BD7
:101F20000368058A81681E8801965B88009302F128
:101F30000C0310322944C06807F06EFE5CE1214BAF
:101F40001B7913F0100F53D01E4BD868E36CDB43A2
:101F5000C3423DD4A36DC31A002B39DC0423237480
:101F6000E3694BB1002221466069984720B1012105
:101F70002046FFF7A3F8A9E1B4F852502046FFF736
:101F800017FBB4F86C3013B1013BA4F86C30012D91
:101F9000238F04BF5B009BB2A4F85230094B93F827
:101FA0002C3013F0200F00F0278194F8223043F0FA
:101FB000020384F82230204607F0E2FC0723237452
:101FC0001AE100BF4C2D0020849200209C9200203A
:101FD0009A4B1A6B1D681E8A99682B8801936B882F
:101FE000009302F10C031032314407F015FE03E1B7
:101FF00013F0020F00F00081636A013B8F4A926880
:10200000934240F0F980204607F056FEF4E0204667
:10201000FFF7CEFA894B93F82C3013F0200F00F025
:10202000EB8094F8223043F0020384F822302046FB
:1020300007F0A6FC07232374DEE02046FFF7B8FA7A
:102040007E4B93F82C3013F0200F45D07B4B1B793F
:1020500013F0100F34D0A26D784BDB689A422FD169
:1020600094F8223043F0020384F82230204607F02F
:1020700087FC2046FEF74EFF714B1B689C4203D144
:10208000E2686F4B1A6014E06E4A13608BB1DA6835
:1020900094420AD105E0D3689C4205D1694B1A608D
:1020A0001346E268DA6004E01A46002AF3D1654B71
:1020B0001A600A232374644B1A68E2601C609BE078
:1020C00094F8223043F0020384F82230204607F0CF
:1020D00057FC082323748FE0584B1B7913F0100F23
:1020E00000F08A80A26D554BDB689A4240F08480F4
:1020F0000623237480E02046FFF75AFA4F4B93F8EB
:102100002C3013F0200F77D094F8223043F00203E4
:1021100084F82230204607F033FC2046FEF7FAFE12
:10212000474B1A68944202D1E2681A6015E0454BA9
:102130001A6092B1D3689C420AD105E0DA689442F1
:1021400005D1404A13601A46E368D36005E01346A0
:10215000002BF3D100223B4B1A600A2323743A4B25
:102160001A68E2601C6047E02046FFF721FA334B13
:102170001B7913F0100F3FD0A26D304BDB689A42F1
:102180003AD12046FEF7C6FE2D4B1B689C4203D178
:10219000E2682B4B1A6014E02A4A13608BB1DA68AC
:1021A000A2420AD105E0D3689C4205D1254B1A60B2
:1021B0001346E268DA6004E01A46002AF3D1214BA4
:1021C0001A600A232374204B1A68E2601C6013E033
:1021D0002046FFF7EDF9194B1B7913F0100F0BD0C8
:1021E000A26D164BDB689A4206D1144A92F82C3045
:1021F00043F0100382F82C30104B93F82C3013F07E
:10220000080F0FD0D4F890301BB16FF00501606952
:10221000984721460A48FEF795FE2146022000F025
:102220001DFB53E013F0100F10D021460448FEF7B9
:1022300089FE2146022000F011FB47E04C2D0020D2
:10224000849200209092002098920020B4F86C2094
:102250002AB1D4F8803013B12146606998474C4BBD
:102260009A6AC2B11B7913F0080F03D0537B43F075
:1022700001035373D4F8845025B1002321466069CB
:10228000A84704E0002321461846FEF705FF10B1D9
:102290003F4B9B6AE3673E4B93F82C3013F0200FC3
:1022A0000ED0D4F884502DB100231A46214660691F
:1022B000A84705E000231A4621461846FEF7ECFE23
:1022C0000022344B1A60204607F05AFB0022314BA3
:1022D0001A602F4B9869002856D003F051FE002257
:1022E0002B4B9A6150E02A4B1A6B1C681E8A996826
:1022F000D868238801936388009302F10C0310329D
:10230000314407F089FC284603F03AFE3CE0204BBC
:1023100000225A61298919846968D9619D615F62C7
:102320009A6283F82C20E26F002A7FF440AD53E5D7
:10233000174B1B68988903F0F5FF00F0040083B287
:10234000002BE0D1CFE7144B1B682363002384F8F4
:102350009D302046FFF7E4F8237C023B072B3FF635
:102360004BAF01A252F823F05F1E00083F1F000888
:102370000F2000083B200008F72000080F2000086D
:1023800069210008D121000802B0BDE8F08100BF3A
:102390004C2D00209C9200208892002008B5054B0F
:1023A0001B680BB902F05EFB024A1368013313602D
:1023B00008BD00BF3400002008B5054B1B682BB1D9
:1023C000013B034A13600BB902F060FB08BD00BF7C
:1023D0003400002030B583B004460D46FFF7DEFF21
:1023E0000B49002002F05AFA02F0D0FA04F03F0440
:1023F00044EA052402A921F8024D022300221046D6
:1024000002F060FA02F0CAFAFFF7D6FF03B030BD5F
:102410000024F40070B582B000238DF80730FAB1C3
:10242000F1B116460D460446FFF7B8FF0D490020EE
:1024300002F034FA02F0AAFA04F03F0002A901F80F
:10244000010D01230022104602F03CFA334600221F
:102450002946104602F036FA02F0A0FAFFF7ACFF68
:1024600002B070BD0024F40009B300B330B583B0EE
:102470000D460446FFF792FF0D49002002F00EFAC8
:1024800002F084FA02A9402301F8013D0123002251
:10249000104602F017FA2B4600222146104602F0A1
:1024A00011FA02F07BFAFFF787FF03B030BD7047E7
:1024B0000024F40010B582B00446FFF76FFF104906
:1024C000002002F0EBF902F061FA04F03F0464F03E
:1024D0007F0402A901F8014D01230022104602F0F9
:1024E000F1F901230DF106020021084602F0EAF994
:1024F00002F054FAFFF760FF9DF8060002B010BD2D
:1025000000127A0042B349B370B582B016460D4648
:102510000446FFF743FF1349002002F0BFF902F021
:1025200035FA04F03F0060F07F008DF807000123CA
:102530000DF106020DF10701002002F0C3F9334648
:102540002A460021084602F0BDF902F027FAFFF7FB
:1025500033FF9DF8060003E000207047002070471D
:1025600002B070BD00127A0021B328B330B583B039
:102570000D460446FFF712FF1149002002F08EF9C4
:1025800002F004FAC0238DF8073001230DF1060292
:102590000DF10701002002F095F92B46224600219B
:1025A000084602F08FF902F0F9F9FFF705FF9DF8F0
:1025B000060003E0002070470020704703B030BDE4
:1025C00000127A0030B583B005460C46FFF7E6FEF0
:1025D0000C49002002F062F902F0D8F9200440F022
:1025E0003E0040EA052002A941F8040D0323002221
:1025F000104602F067F902F0D1F9FFF7DDFE03B0F3
:1026000030BD00BF0024F40022B319B370B582B00E
:1026100016460D460446FFF7C1FE0F49002002F0A2
:102620003DF902F0B3F9200240F03E0002A921F882
:10263000020D02230022104602F044F93346002224
:102640002946104602F03EF902F0A8F9FFF7B4FE61
:1026500002B070BD704700BF0024F40010B582B016
:102660000446FFF79BFE1049002002F017F902F024
:102670008DF9240244F0BE0402A921F8024D022380
:102680000022104602F01EF901230DF1050200217F
:10269000084602F017F902F081F9FFF78DFE9DF868
:1026A000050002B010BD00BF00127A0008B54FF45B
:1026B000007005F0E5FD08BD08B54FF40041024883
:1026C00003F01AFF08BD00BF0004024008B54FF434
:1026D0000041024803F00EFF08BD00BF00040240A5
:1026E00000B583B040F6B8330193FFF7E5FF019BD7
:1026F0005A1E0192002BFAD1FFF7E8FF40F6B833DB
:102700000193019B5A1E0192002BFAD103B05DF890
:1027100004FB00BF08B5002002F018F906490020AC
:1027200002F0BCF802F042F9FFF7DAFF02F05AF9C2
:1027300002F0C0F908BD00BF00127A0008B50828F1
:102740001ABF00F0070040F0880183213C20FFF70A
:1027500041FE08BD10B4038803F441540A884B8835
:1027600013438A881343CA8813430A8913434A8947
:1027700013438A891343CA89134323439BB20380BB
:10278000838B23F400631B041B0C83830B8A03825B
:1027900010BC704729B103889BB243F0400303800B
:1027A0007047038823F040031B041B0C0380704711
:1027B000808980B2704700BF818170472DE9F04762
:1027C000184D25F00305184B03F62864174EB71E65
:1027D000143603F64C6C4FF000080434A646C4F8D7
:1027E000008037F8020FB8B1B6F800902B460022EF
:1027F000114600E05346196003EB090A01321946FD
:1028000093B29842F6D8013880B200FB099309FBD5
:102810000050CEF800001D4402366445DDD1BDE80D
:10282000F08700BF832D002068600020D8A2000838
:1028300008280DD8084B03EB8003D3F82C3E4BB18E
:102840001968054A02EB8000C0F82C1E1846704734
:1028500000207047184670476860002039B1044B6B
:1028600003EB8000D0F82C3E0B60C0F82C1E7047A4
:102870006860002028B1064A136843F0040313601F
:102880007047034A136823F004031360704700BFC6
:1028900000080650014B9868704700BF00080650BA
:1028A000034B5B68184214BF01200020704700BF33
:1028B000000806500023054A1370054A13700549A5
:1028C0000B7005490B70137153717047E192002032
:1028D000A0920020E0920020B86E002010B54D4B71
:1028E0005B7913F0080F05D14B4B09229A7008222F
:1028F0001A7086E0494B9B7A2BB9474B12229A708B
:1029000008221A707DE000283DD1454B59694A1EC6
:102910005A61444A107801F8010C117801311170A4
:102920005869421E5A613D4A917A0139C9B2917281
:1029300000F8011C5869411E59611189090A00F803
:10294000011C5969481E5861108901F8010C586929
:10295000411E59611188090A00F8011C5969481E75
:102960005861108801F8010C5969481E5861107BA4
:1029700001F8010C5969481E5861D27A01F8012CFE
:102980001A7E08321A76234B5A8A274B1A805A81AC
:10299000224B18884FF6FE7398420ED1224CCC235E
:1029A000E37308221D4B5968A01C03F015FFE37B5D
:1029B000C3F38103022B1ED113E04FF6FF7398423D
:1029C0000BD001F081FD4FF6FF73984205D1124BF9
:1029D00011229A7008221A7013E0134BC822DA737E
:1029E0005880114B5A884FF6FF739A4203D1412207
:1029F0000D4B9A7302E061220B4B9A730322064B34
:102A00001A700A22044B1A710122084B1A7004F042
:102A100029FF10BD3C9600209C960020E4920020E7
:102A200088940020E1920020A4960020B89600200F
:102A3000024B1878003018BF01207047B86E002094
:102A4000064A11680868064B186009791971927E68
:102A50001A720122034B1A70704700BF20960020A3
:102A6000F4920020B86E002010B5264A264B5A6119
:102A7000264A137952799A4209D00133DBB2052BE9
:102A800008BF00230133214A02EBC30300E0002307
:102A9000186802781979511AC9B2013A8318481E88
:102AA000194A10760239C9B2C9431944104642691D
:102AB000541E446113F8014D02F8014C8B42F6D1CB
:102AC000124B1B790133DBB2052B02D00F4A137175
:102AD00002E000220D4B1A710C4A1379013352F8AF
:102AE000330006F063FB084843690949DC789A78AB
:102AF00002EB04220A809A79013A9A7143699B7920
:102B00008B7210BD8794002088940020A092002032
:102B1000E49200202DE9F04104F0A4FE944B1868E3
:102B20001D7A4219934BB3F800C0934B1B780021D8
:102B30008F4C4FF002084FF0010E174602E043465B
:102B400071463E46022B2DD0032B3BD0012B04D0E7
:102B5000002933D0884A137030E0137803F0030360
:102B6000012B09D111B10122834B1A7006F01EFB13
:102B70000022814B1A7021E093786381D17803EBB6
:102B800001239BB263811179A181567901EB062162
:102B9000A181991C89B20129D1D99C450CBF02237E
:102BA0000323CDE711B10222734B1A7005F094FB99
:102BB00020B905F099FB00226F4B1A706F4C704DD5
:102BC000032625E011B103226B4B1A70B3792BB9A0
:102BD00006F0ECFA0022684B1A70EFE7694B5B795C
:102BE0000133DBB2052B40F0BB80B1E006F0DEFA2A
:102BF0000022614B1A70E1E7624B5A79013243F8C7
:102C0000320003EBC2031D7100225B4B1A70D5E743
:102C100023780E2B00F2A980DFE803F008223F7929
:102C2000A7A75A6CA7A7A7A7A7A74C00554B1A7927
:102C30005B799A4200F09980534B1B7B13F0020F93
:102C400040F09380504A43F002031373FFF70CFFE8
:102C50000120FFF743FE0E22484B1A70BDE8F081B9
:102C60002B78092B02D00A2B07D016E00020FFF7A3
:102C700035FE0222414B1A700FE003F0D1F804F048
:102C8000FBFC01F071FB04F021FD287318B1002258
:102C90003A4B1A7001E02670BAE73C4B1B78002BC8
:102CA00063D13B4B1A79364B1A730022334B1A709F
:102CB000BDE8F081354B1B78002B56D1324B1A7B87
:102CC0006FF341021A7300222C4B1A70BDE8F08199
:102CD0002E4B1B78002B48D12D4B07221A70274909
:102CE0000A700A221A710122284B1A7004F0BAFDE8
:102CF000BDE8F081254B1B78002B36D1244B1A7987
:102D00001F4B1A7300221D4B1A70BDE8F08114206E
:102D100004F00EFD002004F013FD01F033FB194A0E
:102D2000137843F0010313701A4B5A7942F00802EA
:102D30005A711A7942F001021A710023104A137372
:102D40000E4A1370BDE8F08100220E4B5A7153E712
:102D50000C4B1B79002BF7D148E70A4A53714BE71C
:102D6000084A12799A42F8D140E7BDE8F08100BFE5
:102D7000F4920020B0940020B86E0020E092002071
:102D8000D0920020A092002088940020B8960020C5
:102D90009C9600203C9600202DE9F8430646022729
:102DA000002300E0234607F1FF385FFA88F800258A
:102DB00001331FFA83F915F0FF0F08BF4C4604D00A
:102DC000404601F053FA204484B2B44211D039464F
:102DD000204601F06DFAB44201D2864202D9013593
:102DE000042DE8D10137FFB2052FDBD10020BDE86B
:102DF000F8833046BDE8F8832DE9F84F0746474B86
:102E00001B8833B383426CD0454BB3F810905E7D82
:102E1000013EF6B2484567D0B9F1000F1DD04FF022
:102E20000108711CC9B2484601F042FA4F4501D968
:102E3000874214D9013E08F101081FFA88F816F0FC
:102E4000FF0666D04846FFF7A7FF814600285DD100
:102E50004DE000264FF0010801E04FF00108013677
:102E6000F6B208F101081FFA88F83146484601F029
:102E70001FFAA0F10D039F4203DD87422AD90025E6
:102E800000E0002509F101091FFA89F906F1010B9B
:102E90000DB94C4604E0304601F0E8F9204484B214
:102EA000BC4227D05FFA8BFA5146204601F000FA67
:102EB000BC4201D2874206D90135EDB2042DE7D1DB
:102EC0004046BDE8F88F042D17D0A1465646BAF10A
:102ED000030FC6D9B8F10B0F34BF40460920BDE837
:102EE000F88F0120BDE8F88F0120BDE8F88F0A2097
:102EF000BDE8F88F3846BDE8F88F4046BDE8F88F4A
:102F00004046BDE8F88F4046BDE8F88F874288D13B
:102F1000F6E74FF00009002FA1D1F4E7B0940020AC
:102F20003C960020054B1B69002B05DA034B044A35
:102F30005A6002F188325A60704700BF003C02407C
:102F400023016745024A136943F000431361704748
:102F5000003C0240014BD860704700BF003C02407B
:102F60000E4BDB6813F4803F12D10C4BDB6813F07F
:102F7000100F0FD1094BDB6813F0EF0F0CD1074B8B
:102F8000DB6803F00203002B14BF07200820704702
:102F9000012070470520704706207047003C024022
:102FA00000B583B008238DF80730FFF7D9FF8DF8FF
:102FB00007009DF80730DBB2012B08D1FFF7D0FFE7
:102FC0008DF807009DF80730DBB2012BF6D09DF895
:102FD000070003B05DF804FB70B5054641B1012957
:102FE00008D002290CBF4FF400764FF4407603E07E
:102FF000002601E04FF48076FFF7D2FF08281ED1AB
:103000000F4C236923F44073236123691E43266117
:10301000236923F0F8032361236943F002031D436E
:103020002561236943F480332361FFF7B9FF2369E6
:1030300023F002032361236923F0F803236170BDA9
:10304000003C024070B505460E46FFF7A9FF082870
:1030500013D10A4C236923F440732361236943F499
:1030600000732361236943F0010323612E60FFF79E
:1030700097FF236923F00103236170BD003C0240E8
:103080002DE9F04107468846446863689A88D2B9BA
:103090001B6843606268034653F8081F5E689D68BA
:1030A000D868116056609560D0601969116101217E
:1030B000204605F0C7FF204603F058F80646204694
:1030C00002F05EFF00E000267C685CB163681D686A
:1030D000204603F04BF80644204602F051FF2C46F0
:1030E000002DF3D10A4B1B689F4203D13A68084B6D
:1030F0001A6002E03B68C8F8003039460520FFF747
:10310000ADFB034A93889B1B93803046BDE8F0815A
:10311000BC6E00202DE9F041054688460026184F78
:103120003B684BB3D5F80CC000242146204601E093
:10313000194613465A69624509D1D5F810E09A69D3
:10314000724504D1B3F80CE0AA88964509D0013441
:1031500030B193F81FE0C27F964598BF184600E053
:1031600018461A68002AE3D110B1FFF789FF064418
:10317000464501DA012CD3DC3046BDE8F08100BFC2
:10318000BC6E00202DE9F04F83B0074646683088BA
:1031900003F0C8F8C0F30320052840F05381F088FD
:1031A00003F0C0F88346708803F0BCF801903088C3
:1031B00003F0B8F88246384602F0D8FF8046BE4B8E
:1031C0009B8803440A2B0CDD01463046FFF7A2FF23
:1031D000002800F03781B84B9B8843440A2B00F34A
:1031E0003181B54B1C68ACB1F268002500E01C468B
:1031F0006369934207D13369A169994203D1A189D7
:10320000B388994204D023682546002BEFD101E012
:10321000BCBB2C460520FFF70BFB814668B9414635
:103220003046FFF777FF804500F30C810520FFF75C
:10323000FFFA8146002800F005812022002148463F
:1032400006F060FE032389F81F309B4B1A68C9F80B
:103250000020C3F8009032687568B068F168C9F85A
:103260000820C9F80C50C9F81000C9F814103269C8
:10327000C9F81820B9F1000F00F0E48025464C464B
:1032800017E0F08803F04EF8C0F30C0088B9E0892D
:1032900003F048F8C0F30C0058B13268D6F804E0E7
:1032A000B068F168A260C4F80CE020616161326925
:1032B000A261814A93889844A2F80480F08803F0C0
:1032C00031F800F4005080B270B9A37F43F00103DD
:1032D000A377CBF30C0B019B03EBCB09CAF3032AB7
:1032E000A9EB8A09A4F81C907E68708803F01AF88C
:1032F0008046308803F016F88246F08803F012F812
:10330000C0F30C00C600D7F80490002389F8003001
:1033100089F8013089F8023089F80330A9F804608F
:10332000B044CAF3032CA8EB8C0C1FFA8CFCA9F850
:1033300006C06268A2B3536899888E42C0F0878045
:1033400052D0DA88B2424FD84FF0010E1CE04268EA
:1033500091888E420CD2C9F80000002B00F0A980A1
:10336000D988B14240D8928862453DD31F601AE0A7
:103370008E4239D0D088B04236D823B1DB888B4218
:1033800018BF4FF0000E134618680028DFD163E025
:103390001F60DA88B9F804309A4240F0888002E071
:1033A0004FF0010E6760A37F13F0010F7FD0BEF1D5
:1033B000000F7CD0606843689B88002B77D1D9F8D8
:1033C0000030002B4BD05B68B9F806109A88914208
:1033D00006D06CE05268D9889388994267D1134629
:1033E0001A68002AF6D13AE0384602F0BFFE324AA7
:1033F0009388181A9080384602F0C2FD57E077682B
:103400004946304602F080FD3146404602F0C0FE9B
:103410003E68002EF3D1284B1B689C4203D12268E2
:10342000254B1A6001E023682B6021460520FFF739
:1034300015FA404602F09AFE1F4A9388181A9080A7
:1034400040463BE0384602F09BFD002036E0C9F8DC
:1034500000204FF0010E2CE0002B99D1A2E7A38BA6
:103460001433A38347683E68234653F8082FD3F8E4
:1034700004E09868D9683A60C7F804E0B860F96079
:103480001A693A61A08B02F047FF78800023BB7174
:10349000FB71BB72FB721421384600F041F9788150
:1034A000D4F804806FF01309002EA8D1B3E70020F0
:1034B00004E0676077E700BFBC6E002003B0BDE8A2
:1034C000F08F00BF2DE9F04F89B007460390894681
:1034D0000492B1F824B002220021104602F07AFDD5
:1034E0000190002800F0A380A0F80AB0A0F808B06E
:1034F000584D25F0030545607E682C46306871689C
:10350000B268F3680FC430692060E88802F00AFFEF
:10351000C0F30C0600F4005083B202933C89143CC3
:10352000A4B2ABF1140B5B46BBF1000FB8BF0BF1BB
:103530000703C3F3CF030593002C73D04FEAC30AEC
:103540001FFA8AFA0AF114039BB206934FF014088B
:1035500005EB08030793C6F30C07029B1F43A34523
:1035600021DA434652460799039802F099FE4044F7
:103570001FFA80F847F4005002F0CEFEE88006986B
:1035800002F0CAFE68804FF000036B8114212846C8
:1035900000F0C6F8688100221146022002F01AFDF0
:1035A000074620BB38E04346224605F11401039844
:1035B00002F076FE384602F0AFFEE8801434A4B282
:1035C000204602F0A9FE688000266E81142128465C
:1035D00000F0A6F868812146019802F09BFD324672
:1035E0003146022002F0F6FC0446A8B122E001991F
:1035F00002F0E8FDD9F81430049A39464846984755
:10360000384602F0BDFCCAEB0404A4B2059B1E447C
:10361000B6B2002C9FD105E0019802F0B1FC4FF04A
:10362000FF3014E0019802F0ABFC00200FE04FF0F7
:10363000FF300CE0019902F0C5FDD9F81430049A6E
:10364000214648469847204602F09AFCEAE709B02E
:10365000BDE8F08FC76E00200268531E13F1030F00
:1036600014D891F82D3003F0020303F0FF0093B15A
:103670004B689A420CD0896853400B420AD1C94327
:1036800031EA02030CBF012000207047012070477F
:10369000002070470020704729B103889BB243F097
:1036A000010303807047038823F001031B041B0CF4
:1036B00003807047C94389B201827047F8B5012978
:1036C00026D9831C8F1EC7F34E07BE1C00EB46068F
:1036D000002413F8025C13F8012C42EA052214447A
:1036E0000233B342F5D1013700EB470011F0010F6F
:1036F00004D000E00024037804EB0324A0B200EB24
:103700001440030C1B0433B183B203EB104002E0FE
:103710000029EFD1002080B202F0FEFDF8BD00BF0D
:1037200008B5FFF7CBFFC04380B208BD70B500B34A
:1037300005460026344669896868FFF7BFFF2044C4
:1037400084B204EB10446B8913F0010F07D0C6F16B
:103750000106F6B223029BB2C4F307241C432D6872
:10376000002DE8D136B123029BB2C4F307241C43D9
:1037700000E00024E04380B270BD00BF08B502F055
:103780003FFF4FF4C06005F063FCFDF73FFB08BD51
:1037900008B502F005FB002000F0DCF8012000F085
:1037A000D9F800F027FC00F095F900F0C5FB00F017
:1037B000F1F901F061FB094B1B7813B1084802F0E5
:1037C000E1FA00F019FFFDF78DFE044B1B7823B1E1
:1037D000044B1968044802F0D5FA08BD5E000020C9
:1037E00008A300086000002020A3000808B5FFF728
:1037F000C5FFFFF7CDFF01F043FA002008BD00BF71
:1038000030B583B00121084602F092FF01238DF804
:10381000063000228DF807208DF804304FF4007533
:10382000009502238DF80530054C6946204602F0CC
:1038300019FE2946204602F05FFE03B030BD00BFEE
:103840000000024008B54FF40071024802F052FE39
:1038500008BD00BF000002402DE9F04782B00446D9
:1038600089462A4B03EB800253F82000936801211C
:10387000184302F05DFF3CB9244B03EB84030121A4
:10388000186902F07FFF06E0204B03EB840301215F
:10389000186902F069FF1D4D2F19DFF874803A7E18
:1038A000397F58F8240002F029FE08EB840697F8C7
:1038B000202097F82410B06802F020FE00238DF835
:1038C00006304FF0010A8DF807A002278DF804702A
:1038D00005EB44052B8D00938DF80570694658F86B
:1038E000240002F0BFFD8DF80470AB8D0093694693
:1038F000B06802F0B7FD49463069FDF7CDFC51468E
:103900003069FDF729FD02B0BDE8F08750A300083B
:103910003800002008B5054A02EB4002044B03EBD7
:103920008000118E806902F0E7FD08BD50A30008F9
:103930003800002008B5054A02EB4002044B03EBB7
:103940008000118E806902F0D5FD08BD50A30008EB
:103950003800002070B582B00646104D84002B1947
:103960000121586B02F0E4FE05EB46052B8E009317
:1039700001238DF8043000228DF806208DF80730E1
:1039800002238DF80530064B1C446946A06902F0FD
:1039900069FD3046FFF7CEFF02B070BD50A30008AE
:1039A0003800002008B501214FF08040FFF782FE6B
:1039B000344B01221A705B68C82B07D9314A0023A7
:1039C00053609360304A82F824301BE02E4B93F80A
:1039D0002430BBB12B4B1B7B5BB14FF400712B48E8
:1039E00002F08AFD274B00221A735A6801325A608E
:1039F0000CE04FF40071254802F07CFD0122214BC0
:103A00001A7303E01F4A9368013393601D4B9B6850
:103A1000002B36D01C4A116A012911D100214FF028
:103A20008040FFF739FE174B00225A609A601A61F6
:103A3000154903200862012081F824001A7008BD8E
:103A4000B3F5FA5F1DD90F4A136901331361994227
:103A500010D800214FF08040FFF71EFE094B0022D6
:103A60005A601A61084903200862012081F8240085
:103A70001A7003E00122044B83F824200022014B3A
:103A80009A6008BDA4740020380000200010024095
:103A900008B54FF4001004F0E5FB18B14FF4001026
:103AA00004F0EEFB08BD00BF08B54FF4003004F091
:103AB000E7FB08BD38B5FFF735FAF320FFF74AFA00
:103AC0000225302429462046FFF786FA0828F9D136
:103AD00038BD00BF084B93F8253063B1074A084B47
:103AE000084813F8011B02F8011B8342F9D1002298
:103AF000014B83F82520704738000020B87400205F
:103B0000107AFF1F1C7AFF1F044A431E073012F869
:103B1000011F03F8011F8342F9D17047B7740020D9
:103B200000487047B8740020F8B507460E46FFF706
:103B3000C1FFB6080DD03D1F0024C7F1006707F193
:103B40000417781955F8041FFFF77CFA0134B442C2
:103B5000F7D1FFF7F7F9F8BD08B53021FFF7E4FF1B
:103B600008BD00BFF0B4084E044606F130073546E4
:103B70000FCD20606160A260E3602E461034BD422C
:103B8000F5D1F0BC704700BF000004080048704742
:103B9000000004083F4B93F82630002B79D070B515
:103BA0003D4802F0EFF83D4802F0ECF83C4C3D4E49
:103BB0003D4D14F8011F304602F0E4F8AC42F8D154
:103BC0003A4802F0DFF83A4CE1683A4802F0DAF895
:103BD0002169394802F0D6F8384802F0D3F8A18AB2
:103BE000374802F0CFF8E18A364802F0CBF8218B53
:103BF000354802F0C7F8618B344802F0C3F8344806
:103C000002F0C0F81B34334E334D14F8011F304618
:103C100002F0B8F8AC42F8D1244802F0B3F82F48CB
:103C200002F0B0F82B4E2E4D14F8011F304602F072
:103C3000A9F8AC42F8D11D4802F0A4F8294802F0D6
:103C4000A1F8244E284D14F8011F304602F09AF8CE
:103C5000AC42F8D1154802F095F8244802F092F8E9
:103C60001C4E234D14F8011F304602F08BF8AC4275
:103C7000F8D10E4802F086F80D4CA18D1D4802F0D7
:103C800081F8E18D1C4802F07DF81C4802F07AF8BA
:103C900070BD704738000020FCA3000828A400086D
:103CA0000300040838A400080B000408A4A60008B8
:103CB0000000040840A400084CA400085CA400080C
:103CC00070A4000884A4000894A40008A4A4000818
:103CD000B8A40008C8A400081F000408CCA4000869
:103CE00023000408E0A4000827000408F4A4000846
:103CF0002B00040808A500081CA5000830A5000832
:103D000000B58DB0FFF7E6FE01230093114A0DF1D7
:103D100003030DF10B0012F8011F03F8011F83428A
:103D2000F9D101230393C923049341F21013ADF891
:103D300014304FF4FA63ADF81630ADF8183041F294
:103D40008833ADF81A306846FFF706FF0DB05DF80E
:103D500004FB00BFB774002010B58CB0038813F0CB
:103D6000010F05D0FFF7CCFF00F0B8FE01207CE08A
:103D700004466846FFF7F6FE238803F4805292B2A9
:103D800032B16288132A05D9ADF81620012102E06C
:103D9000002100E0002103F4807292B2BAB1A2883F
:103DA000B2F57A7F15D903F0100080B238B1E088FF
:103DB000824232BF0120002000200FD204E0BDF873
:103DC0001A0090424ED90120ADF8182002E00020E0
:103DD00000E0002003F0100292B242B1E288BDF888
:103DE0001840944205D2ADF81A20012202E00022C8
:103DF00000E0002209B900B952B3ADF814306846AA
:103E0000FFF7AAFE00F06AFE194B93F826300BB3B9
:103E1000BDF81610174801F0B5FF154B93F8263082
:103E2000D3B1BDF81810144801F0ACFF104B93F853
:103E300026309BB1BDF81A10104801F0A3FF0C4BBF
:103E400093F8263063B10E4801F09CFF01200CE08E
:103E500000200AE0012008E0012006E0012004E043
:103E6000012002E00029C8D100200CB010BD00BF25
:103E7000380000205CA5000870A5000884A5000893
:103E80009CA5000810B58CB0FFF724FE0123009319
:103E9000284A0DF103030DF10B0012F8011F03F87E
:103EA000011F8342F9D101200390C923049341F2F9
:103EB0001013ADF814304FF4FA63ADF81630ADF8C6
:103EC000183041F28833ADF81A30C0218DF81C103B
:103ED000A8228DF81D200A238DF81E306F248DF83E
:103EE0001F40FF248DF820408DF82140FE248DF8DE
:103EF000224000248DF823408DF824108DF82520D1
:103F00008DF826308DF827008DF828108DF829209F
:103F10008DF82A308DF82B3040F20743ADF82C3065
:103F200040F20643ADF82E306846FFF715FE0CB0A0
:103F300010BD00BFB774002008B5034B1B68012BF0
:103F400001D0FFF79FFF08BD0000040808B50B4B28
:103F500093F8263013B10A4801F014FF012383F3CC
:103F60001388BFF34F8F0749CA6802F4E062064B1B
:103F70001343CB60BFF34F8FFEE700BF3800002034
:103F8000B0A5000800ED00E00400FA0538B50546CC
:103F90000C4601F039FF30B301F066FD0D2806D163
:103FA000134B196A00226A541A62012038BD08288E
:103FB00006D10F4B186AC8B101381862002038BD0D
:103FC0000B4B1B6AA34203D30020094B186238BD78
:103FD000A0F12002D2B25E2A07D8E8540133044A85
:103FE0001362002038BD002038BD002038BD00BF5E
:103FF000A4740020F0B585B0FFF702FCFCF700FFC9
:10400000044605211D4801F0BDFE1D4D1D4E1E4FED
:1040100025E00A2101A8FFF7B9FF294601A805F00C
:10402000BFFF28B9194801F0ADFEFFF72BFF1DE0D7
:10403000FCF7E6FE001BA6FB00235B094FF4FA72B7
:1040400002FB130343B9642101FB00F0A7FB00311D
:10405000090B0F4801F096FE0120FCF7EDFEFCF77E
:10406000CFFE001B41F287339842D2D9094801F0B4
:1040700089FEFFF7E7FB05B0F0BD00BFC0A5000853
:10408000E8A50008D34D62105917B7D1F4A5000870
:1040900010A6000818A60008002304494FF6FF7276
:1040A0005A520A33B3F5AA7FFAD17047B094002070
:1040B0002DE9F041DFF860E000274FF6FF7C4FF07C
:1040C00001083EF8023C634514D002789EF80030A7
:1040D0009A4216D00EE014F8016F12F8015FAE425A
:1040E00004D10133DBB2082BF5D101E0082B01D15B
:1040F0000F700AE00137FFB20EF10A0E222FE0D155
:1041000003E0044672464346E5E7B7F1220018BFD4
:104110000120BDE8F08100BFB294002070B40022FD
:1041200013460A4E4FF6FF75945BAC4203D08442AF
:1041300001D10B7004E00133DBB20A32222BF3D140
:10414000B3F1220018BF012070BC7047B09400206A
:104150002DE9F047174C00254FF6FF7C4FF0010981
:104160005FFA85F834F8023C634518D08B4216D1CB
:10417000077823789F4219D011E017F801AF16F89D
:1041800001EFF24504D10133DBB2082BF5D101E098
:10419000082B04D182F800800120BDE8F0870135AA
:1041A0000A34222DDCD10020BDE8F08707462646E0
:1041B0004B46E2E7B2940020F0B583B004460D46CA
:1041C0000DF10702FFF7C4FF38B19DF8073003EB8C
:1041D00083031F4A32F8130037E0034600228DF8AC
:1041E00007201B4A11884FF6FF72914224D111E03B
:1041F0005089884205D10EB18DF80730222B09D1A4
:1042000023E00133DBB20A323E46222BF0D14FF6D7
:10421000FF701AE003EB83030D4E06EB4300082208
:104220002146023002F0D8FA9DF8073003EB8303F1
:1042300026F81350002008E001238DF80730044AC7
:1042400000264FF6FF711F46D2E703B0F0BD00BF56
:10425000B094002010B582B00446684602F0EAFA35
:1042600021466846FFF7A8FF02B010BD01380928B3
:1042700019D8DFE800F01A05080A0C0E10121416FF
:104280004FF4B370704756207047122070470020DB
:1042900070470020704700207047002070470020C2
:1042A0007047002070470020704740F2A6507047CA
:1042B00010B504460846FFF7D9FF0D3404EB800023
:1042C00080B210BD10B40B4B0B4C03F188011A796E
:1042D00012F0010F06D01A7802EB820234F8122095
:1042E000824204D008338B42F1D1002000E018460E
:1042F00010BC704704930020B0940020F0B5184C17
:10430000DFF860E04FF0010C04F18807237913F027
:10431000010F1DD0227802EB82030EEB4303997844
:104320000378994214D102EB82020EEB4202023270
:104330000146634612F8016F11F8015FAE4205D1E4
:104340000133DBB2082BF5D12046F0BD082B04D099
:104350000834BC42DAD10020F0BD2046F0BD00BFD9
:1043600004930020B094002008B5054B002103F110
:104370008802197108339342FBD1FFF78DFE08BD07
:104380000493002038B50B4D002385F85C3085F888
:104390005D30094B1C88687D0130C0B2FFF766FFB5
:1043A000631C9BB203EB8000A5F85800A5F85A30B7
:1043B00038BD00BF3C960020B0940020F8B53E4BBD
:1043C0001B7913F0010F0DD03C4C0123227912F020
:1043D000010F6BD00133DBB20834112BF6D14FF64D
:1043E000FF7566E0344C364B1A884FF6FF739A42DD
:1043F00011D0334A01234FF6FF765589B54207D0D5
:104400000133DBB20A32222BF7D14FF6FF7550E0B1
:10441000222B01D14DE0002305462370227942F082
:1044200001026FF347022271617011F0020F15D083
:10443000244EB6F85A7003EB8303214A22F8137016
:10444000707D0130C0B2FFF711FF3844A6F85A0062
:1044500096F85D30013386F85D300FE0194AB2F806
:10446000581003EB8303164820F813100131A2F80B
:10447000581092F85C30013382F85C30247804EBF9
:1044800084000F4B03EB4000831C6A1E0A3012F8B5
:10449000011F03F8011B8342F9D104EB8404084B8C
:1044A00033F8145005E04FF6FF7502E0112B9AD156
:1044B000F9E72846F8BD00BF049300200C930020C4
:1044C000B09400203C9600202DE9F843204B1B8837
:1044D000834237D010B91F4B1D8A35E006461D4B6D
:1044E00093F8158008F102085FFA88F81A4C04F175
:1044F0008807DFF85C9014F8043C13F0010F1BD020
:1045000014F8073C13F0020F0ED014F8083C03EB2C
:10451000830339F8135041462846FFF7C9FEAE42DF
:104520000AD3864208D80FE014F8083C03EB830353
:1045300039F81350AE4207D00834BC42DBD14FF6F5
:10454000FF7501E04FF6FF752846BDE8F88300BF10
:10455000B09400203C9600200C930020F8B507464C
:104560000E461546FFF712FB0368012B30D10446B7
:10457000007F637F1B0443EA0063E07F0343A07F67
:1045800043EA002001F0D4FE386094F8200094F84B
:1045900021301B0443EA006394F82300034394F89A
:1045A000220043EA002001F0C3FE306094F82400AA
:1045B00094F825301B0443EA006394F82700034372
:1045C00094F8260043EA002001F0B2FE2860F8BD0E
:1045D000064801F0ADFE3860054801F0A9FE3060E4
:1045E000044801F0A5FE2860F8BD00BF6F0AA8C00E
:1045F00000FEFFFF010AA8C010B588B0FCF7D4F98F
:10460000FEF7DCF805AA06A907A8FFF7A7FF0A4CE2
:104610000A4B02930A4B01930023009305AB06AAB1
:1046200007A9204601F0DAFE204601F0FDFE2046F3
:1046300001F000FF08B010BD8C930020FD58000869
:104640007551000808B5024800F038FD08BD00BFEC
:104650008C93002070B40F4B00221A70DA740E4D48
:104660002C7B661C2E731C7599740121D9711881DD
:104670009A710A4A12881A822121597140211971AE
:10468000904204D11A461B7843F00103137070BCAA
:10469000704700BF2097002044970020B09400206E
:1046A0000023024A1370024A13707047C893002017
:1046B000C093002008B50A4B1B7813F0010F0DD0F2
:1046C00002F098F8064B5B68C01AC82806D900208B
:1046D000FFF720F902F08EF8014B586008BD00BFCB
:1046E000C093002010B5204B186A9B7C132B02D07E
:1046F000FF2B10D031E01C4B93F824300A2B2ED125
:104700000378417803EB012189B20230FFF754FDB1
:1047100000F040FB10BD0378022B02D0032B03D026
:104720001FE000F037FB10BD437863B10F4C2378D6
:1047300043F00103237002F05DF860600020FFF792
:10474000F9F8002010BD094B1A786FF300021A70B7
:104750000020FFF7EFF8002010BD002010BD18204A
:1047600010BD002010BD00BFBC960020C0930020EB
:1047700008B50322084B83F82020084B1A88084B01
:10478000110A83F87E1083F87D20012283F87C20B3
:10479000FF21FFF75FFF08BD20970020B0940020A5
:1047A0000894002008B50222064B83F82020064B0F
:1047B00083F87E10032283F87D20FF21FFF74AFF54
:1047C00008BD00BF209700200894002038B505469A
:1047D000094C204602F02EF8084B1B881A0A04F8F0
:1047E000012C04F8023C0A22054B83F820201321F7
:1047F0002846FFF72FFF38BD7F940020B09400209B
:104800002097002070B505461D4B1E7976B11D4BD3
:104810001D4A741EE4B2601C184413F8011B02F810
:10482000011D8342F9D1194B1C1B00E0164C04F802
:10483000016C174B9A7D04F8022C002204F8032C1B
:104840001B8A1A0A04F8042C04F8053C114B1B8837
:104850001A0A04F8062C04F8073CA4F10F0001F032
:10486000E9FF022304F8103C054B1B7910330A4A78
:1048700082F82030FF212846FFF7ECFE70BD00BF14
:1048800044970020E496002087940020869400201E
:104890003C960020B09400202097002008B5054BDE
:1048A00099428CBF044B054B19880548FCF76AFAFE
:1048B00008BD00BF00127A00CA930020CC930020EC
:1048C0000030014013B3F0B583B00D4616461C46C8
:1048D000B9B9B2B918E01DB115F8013B8DF8073030
:1048E0009DF807103846FCF7FFF98DF807001EB158
:1048F0009DF8073006F8013B013CA4B2002CEAD138
:1049000002E0A4B2024FE6E703B0F0BD704700BF7B
:104910000030014000B583B00121084601F008FFD6
:104920001023009301238DF8043003228DF8052015
:1049300000228DF806208DF807306946024801F004
:1049400091FD03B05DF804FB0000024010B5FCF7D8
:1049500069F90B4C10212046FCF7DAF92046FCF7E8
:1049600013FA084B188008212046FCF7D1F920469D
:10497000FCF70AFA044B1880FFF7CCFF10BD00BF0C
:1049800000300140CC930020CA93002008B51021CC
:10499000014801F0B1FD08BD0000024008B510213A
:1049A000014801F0A7FD08BD0000024000B583B03A
:1049B0000121022001F0BCFE4FF4004300930123CB
:1049C0008DF8043000228DF805208DF806208DF832
:1049D00007306946024801F045FD03B05DF804FB6D
:1049E00000040240F0B587B00121042001F0A0FED0
:1049F0004FF40076049600248DF8144002278DF8B9
:104A000015708DF8164001258DF8175004A914482B
:104A100001F028FD29464FF4804001F0B3FE092142
:104A2000384600F0FBFB02968DF80C400C238DF805
:104A30000D308DF80E5002A803F0CCFB17238DF833
:104A400004308DF805508DF806408DF8074001A818
:104A500004F008FB304603F013FC07B0F0BD00BFC4
:104A60000008024000B583B017238DF804300123FD
:104A70008DF8053000238DF806308DF8073001A839
:104A800004F0F0FA03B05DF804FB00BF00B583B09A
:104A900017238DF8043001238DF8053000228DF89E
:104AA00006208DF8073001A804F0DCFA03B05DF8A9
:104AB00004FB00BF08B50121402001F047FE0120A2
:104AC000FDF7D8FE08BD00BF10B501242046FDF754
:104AD000E7FE0028FAD0FDF7DDFE10BD08B5FFF7B0
:104AE00055F8828A02F480539BB223B1124BC18ADB
:104AF00059801A8003E04FF4FA620F4B5A80828A81
:104B000002F480739BB223B10B4B018B99801A8006
:104B100003E04FF4FA62084B9A80828A02F0100395
:104B20009BB223B1044B418BD9801A8008BD41F25E
:104B30008832014BDA8008BDE4930020F8B5134BAE
:104B400093F824601F6AFCF7E5FC04460222314614
:104B5000032001F03FFAA0B1054647600146204618
:104B6000FCF75AFCC4B2284601F00AFA084B1B783D
:104B70004BB1064B1A8B3146064801F003F920462B
:104B8000F8BDFF20F8BD2046F8BD00BFBC96002050
:104B90005E00002050A6000838B50F4C0823237093
:104BA00010236370FCF7B6FC05460222217803202F
:104BB00001F010FA78B10446074B436001462846DD
:104BC000FCF72AFC204601F0DBF9044B1B7813B1FB
:104BD000034801F0D7F838BDC87400205E000020FB
:104BE0006CA600082DE9F04387B000221D4B1A6027
:104BF0001C461D4E1D4D3746DFF8808003F078FEC1
:104C000001F0F8FD2368C01AF388984204D9FFF731
:104C1000C3FF01F0EFFD20602B78002BEED00023C6
:104C20002B7041464FF6FF7221F8502F1048027B3F
:104C300002F1010E80F80CE0049303920822029224
:104C400001974FF00109CDF800904A46484604F01C
:104C50008FF81322074B1A72074B83F8009003F06A
:104C600047FECBE7D0930020E4930020D5930020AB
:104C70004497002014970020EA960020C874002072
:104C800070B50024384B1C6001F098FD03F0FEFA6B
:104C9000FFF724FF2046FEF74DFE0120FEF74AFEF7
:104CA000324B1C701D46324C03F022FE2B78042B35
:104CB00056D8DFE803F003203F414B000020FEF709
:104CC00039FE237823B103F013FE2378002BFAD1A9
:104CD000284A0D231370284B0A2119704FF0FF3119
:104CE000596004211972132313720126267003F0F0
:104CF000FFFD2E70D8E72378002BD5D11D4B1B7AF2
:104D00005BB91E4B1B7813B11D4801F03BF8002026
:104D1000FEF700FE02232B70C6E7184B1B7813B179
:104D2000184801F02FF84FF4FA60FCF785F80023DB
:104D30002B70B9E7FFF756FF01F05CFD124B1B68C3
:104D4000C01AC728B0D90022104B1A700022104B8D
:104D5000A3F8502001F04EFD034B1860FFF742FF0F
:104D600000232B70A0E700BFDC930020D493002029
:104D7000EA96002014970020D09200205E000020C8
:104D8000B8A60008C8A60008D8930020ED9300201C
:104D9000C87400200020704708B5FFF7CFFE01F06F
:104DA00029FD024B1860002008BD00BFD0930020F1
:104DB00070B5461E084D0024FEF7B2FE025D16F8DF
:104DC000013F534015F8012F134203D10134082C41
:104DD000F2D170BD002070BD1FA6000838B5054691
:104DE000FFF7E6FF044638B9044804F019FA2846EC
:104DF00004F018FA04F012FA204638BD28A600087C
:104E000010B50446044804F00BFA204604F00AFAF0
:104E100004F004FA012010BD38A6000808B50248C5
:104E200000F0B0FF08BD00BFE8A6000808B50248C2
:104E300000F0A8FFFEE700BFF8A6000808B502488A
:104E400000F0A0FFFEE700BF10A7000808B5024869
:104E500000F098FFFEE700BF28A7000808B5024849
:104E600000F090FFFEE700BF40A70008704700BFBA
:104E7000704700BF704700BF2DE9F043B1B001217A
:104E80001F2001F055FC4023019301248DF80840B8
:104E90004FF000088DF80A808DF80B4002278DF83E
:104EA00009706E4D01A9284601F0DCFA21464FF445
:104EB000804001F067FC4FF4807301934FF00309C9
:104EC0008DF809908DF808708DF80A808DF80B80A8
:104ED000634E01A9304601F0C5FA8F23019301A961
:104EE000304601F0BFFA0B224146304601F006FB86
:104EF0000B222146304601F001FB0B223946304699
:104F000001F0FCFA0B224946304601F0F7FA0B2279
:104F10000721304601F0F2FA43F60343019306F508
:104F2000806601A9304601F09DFA0B2241463046C9
:104F300001F0E4FA0B222146304601F0DFFA0B22A1
:104F40000A21304601F0DAFA0B221146304601F010
:104F5000D5FA0B220C21304601F0D0FA0B220D219C
:104F6000304601F0CBFA3E23019301A9284601F017
:104F700079FA0B222146284601F0C0FA0B22394665
:104F8000284601F0BBFA0B224946284601F0B6FA42
:104F90000B220421284601F0B1FA0B2205212846F4
:104FA00001F0ACFA0423019305F500650DEB030154
:104FB000284601F057FA0B223946284601F09EFA9E
:104FC00021464FF0606001F0B3FBFBF719F9FBF7E6
:104FD000E5FAFBF7EBFA0128FBD001A8FBF71CF977
:104FE00001240194002308934FF400720B920C9358
:104FF0000F93129314931593169321934FF000720D
:1050000022924FF40011249126932793042329938D
:105010002A924FF480332B934FF480032C934FF458
:1050200000532D934FF480432F93214601A8FBF7A3
:105030007BFB21460B48FBF7C1FA3D238DF804307A
:1050400002238DF805308DF806408DF8074001A841
:1050500004F008F831B0BDE8F08300BF000802405A
:10506000000002404000010008B501E0FFF7EAFA45
:10507000FBF726FA0028F9D14020FBF7B1FA4FF4EC
:105080008030FBF7ADFA08BD70B50B4B1B689E680E
:1050900061B10C46002562896168701904F0BCFE9C
:1050A00063891D442468002CF5D100E00025A8B2D6
:1050B000FBF75AF9002070BD287A00202DE9F04155
:1050C00084B0074601A8FBF733F9DDF80880032216
:1050D000BDF80410104600F07DFF064660B104469E
:1050E0000025628908EB0501606804F095FE63897C
:1050F0001D442468002CF4D11C4B19688B68012BCB
:1051000003D90B688A6812B90CE0039BFAE7002206
:105110004FF00045154C1D60DB680132216888683E
:105120008242F8D300238B6041F21403104AD35813
:1051300013F0800F08D01346802141F214029950D9
:10514000002141F20802995056B13B693946304678
:105150009847044638B1304600F012FF204602E07E
:105160004FF0FF30FFE704B0BDE8F0815886002023
:105170000080024010B50446732380F82E3074235B
:1051800080F82F301F4B43611F4B8361062380F84B
:105190002630FEF7C5FC037884F82730437884F87E
:1051A0002830837884F82930C37884F82A3003794A
:1051B00084F82B30437984F82C3004F12701002047
:1051C000FBF79EF840F2DC53A384322384F82D30A1
:1051D0000E4C02220E492046FBF7B8F902220D4977
:1051E0000D48FBF73DF94FF440012046FBF7D2F99B
:1051F0004FF4400104F12000FBF7CCF9FBF72AFA49
:10520000002010BD49580008895000082C7A002061
:105210009C8600206C7A00205C86002010B401F08F
:1052200003039B0001F0FC0101F1804101F59C3179
:105230008C680F229A4024EA02028A608A689840A9
:105240001043886010BC704770B170B504460626E4
:105250002568606800F094FE21463046FDF7FEFAAE
:105260002C46002DF4D170BD704700BF2DE9F04FE2
:1052700083B0054690B1584A137803EB830002EBE4
:105280008002927C022A09D12C680246524800EB27
:1052900082029268944201D158B299E04F4B0020AB
:1052A00086460A26844601903446B046B1465FFAE7
:1052B00080FA0A2C03D19A7B0AB944B231E01A462B
:1052C0009F7B012F1AD14DB1D5F800B05F68BB4567
:1052D00004D1414B83F800A040B279E017682FB1A8
:1052E000D27B72451DD346B296461AE0D27B019F0F
:1052F000BA4216D34FFA80F9019212E0022F10D170
:105300004DB1D5F800B05F68BB4504D1324B83F88E
:1053100000A040B25CE0D27B624524BF4FFA80F827
:105320009446013014330A28C1D10A2C03D111F05C
:10533000010F49D13CE011F0020F3CD1092C01DCF6
:10534000E4B21BE0B8F1090F02DC5FFA88F415E063
:10535000B9F1090F02DC5FFA89F40FE0092E2DDCA8
:10536000F4B21D4EA7003B1906EB83035868FFF704
:105370006BFF274406EB870600237360234604EB8C
:105380008402154901EB82020021917435B128682D
:1053900004EB8402104901EB820290600E4A03EB99
:1053A000830302EB83030021D974147060B20FE011
:1053B0004FF0FF300CE04FF0FF3009E04FF0FF30CE
:1053C00006E04FF0FF3003E011F0020FBAD0F8E72B
:1053D00003B0BDE8F08F00BF2075002024750020C9
:1053E000F8B506460F464C6806210139C9B2585C2B
:1053F0006054555C601885710029F6D14FF4006047
:1054000000F08AFFA081B369394630469847F8BD5D
:1054100000295ED02DE9F0410C46096800295BD0D7
:105420001E461746054601462046FEF715F9002898
:1054300056D1D4F800804FF0704000F085FF08EAA4
:1054400000084FF0604000F07FFF80454CD03146AF
:105450002046FFF70BFF00284BDB064600EB8003DE
:10546000254A02EB830302229A745D61062300EB56
:105470008004214A02EB8404013BDBB2F95CE218B0
:105480001173002BF8D100EB80001B4B03EB800065
:105490000023C374416859B306EB8606164B03EB31
:1054A00086064FF006080B6873604C684046FDF7AF
:1054B000D5F93B4605F1270221462846FFF790FF24
:1054C000204600F05DFD71680029ECD10020BDE8A8
:1054D000F0816FF0090070476FF00900BDE8F081BE
:1054E0006FF00900BDE8F0816FF00900BDE8F081C0
:1054F0000020BDE8F08100BF2075002080B108B514
:1055000003464968D1F81A005A6842409868024236
:1055100005D1184600238A1D1A31FFF779FF08BD0F
:10552000704700BF00287AD02DE9F04182B00646CE
:1055300014460D465389292B03D8104600F020FD50
:105540006AE05768B7F80E80012000F0E5FE80455C
:1055500017D1B7F8128040F2046000F0DDFE8045FC
:105560000FD1B7F810804FF4006000F0D5FE8045F1
:1055700007D1B7F80C8040F6060000F0CDFE80455C
:1055800003D0204600F0FCFC46E0F8690190736807
:1055900093B1D7F8262093420ED1012307F11602CA
:1055A00001A93046FFF734FFB88A00F0B5FE0128A4
:1055B0000FD0022829D02CE0002307F1160201A900
:1055C0003046FFF725FFB88A00F0A6FE022820D15A
:1055D0001BE0022000F0A0FEB882FB69C7F826306D
:1055E0007368FB610623013BDBB2FA18917D82F8F8
:1055F0002010F954E95C9175E95C9171002BF2D1AE
:10560000B36921463046984703E001A9304603F0CC
:105610000DFF204600F0B4FC02B0BDE8F0817047F9
:10562000F8B505460F4600222A21032000F0D2FCDF
:10563000002840D006464468012000F06DFEA0829C
:1056400006231E48013BDBB2E91891F827E0E21877
:1056500082F816E010F803E082F820E000EB030E79
:105660009EF808E004F803E091F827109171002BF0
:10567000E8D16B68E3613B68C4F82630012000F094
:105680004BFEE0814FF4006000F046FE208240F2C5
:10569000046000F041FE608240F6060000F03CFE2F
:1056A000A081AB693146284698470446304600F051
:1056B00067FC2046F8BD4FF0FF30F8BD58A7000842
:1056C000F8B507460D46164601462846FDF7C4FFC5
:1056D00000287DD12C684FF0704000F035FE04406A
:1056E0004FF0604000F030FE844274D0002D75D041
:1056F0002B68002B75D001212846FFF7B7FD041E4B
:1057000072DB04EB84034E4A02EB83039B7C33B9C8
:1057100004EB840302EB830301229A7405E0012B5E
:1057200003D0002E40F081807AE029463846FFF70A
:1057300077FF0546002E59D004EB8403404A02EB64
:1057400083039B7C022B0CD104EB84043D4B03EBC5
:105750008403083307F1270231463846FFF740FE3D
:10576000F8BD012B43D1337B012B41D1334602E0FD
:105770001A7B012A3DD11B68002BF9D142E031464A
:10578000384600F027FD002842D0384600F0F8FBEC
:105790003CE000230B604E6004EB8403284A02EBDC
:1057A00083035A680AB906E01A461368002BFBD136
:1057B00011600020F8BD04EB8404214B03EB84034B
:1057C00059600020F8BD304600F0DAFB2846F8BDED
:1057D0006FF00900F8BD6FF00900F8BD6FF0090027
:1057E000F8BD6FF00900F8BD2046F8BDF8BDF8BD62
:1057F000334600221989032000F0ECFB07460028FD
:10580000BDD103E0304600F0BDFC02E02846F8BD03
:105810003E460620FDF70CF801460028B9D1D2E734
:1058200029463846FFF7FCFEF8BD04EB8403044A22
:1058300002EB83039B7C022B86D04FF0FF30F8BD38
:105840002075002024750020F0B583B004460E4674
:1058500015460E21304600F057FB002845D1214661
:105860002846FDF7F9FEC0BB2F684FF0704000F0EE
:105870006BFD07404FF0604000F066FD87421CD191
:1058800001238DF8003000238DF801305E238DF860
:105890000230286800F058FDC0F306408DF8030080
:1058A000286800F051FD000A8DF80400286800F017
:1058B0004BFD8DF805006B4610E02A686368534085
:1058C000A268134203D0E36893B104F10C05324699
:1058D00029462046FFF7F4FE0CE0074B04F12702AF
:1058E00031462046FFF77CFD04E06FF0010001E047
:1058F0006FF0030003B0F0BD60A7000838B50446A0
:105900000D464368988900F007FDB0F5006F04D09C
:1059100040F60603984213D019E021462846FFF7C7
:10592000EDFD6FF00D01204600F0EEFA18B12046B3
:1059300000F026FB0EE02946204601F051FC09E06C
:10594000224605F127012846FFF7ECFD02E020463C
:1059500000F016FB002038BD10B50B4604490024AA
:105960000C7048708A7003311846FEF7D7FB10BDE3
:10597000EC750020374B1B78002B68D0F0B583B056
:105980001E46344C03EBC30203EB42022244157B58
:105990006278954253D103EBC30203EB42022244E7
:1059A000957DA27895424AD12546E47803EBC3025F
:1059B00003EB42022A4404EB8407274D05EB47051D
:1059C0001779AA7897423AD103EBC30203EB42035B
:1059D000224A134404EB8404214A02EB44040122CA
:1059E00013F8017F14F8015FAF4204D10132D2B243
:1059F000082AF5D101E0082A21D10C46054606EB1C
:105A0000C60306EB43030DF1070116481844FEF7E1
:105A10004FFBA0B10F4A06EBC60306EB430313444A
:105A20005B7D2B709DF8073003EB83030A4931F847
:105A300013302380137801331370012304E0054AE7
:105A40001378013313700023184603B0F0BD1846D5
:105A5000704700BFEC750020B0940020F075002066
:105A6000B2940020F975002038B5064D2024214657
:105A70002846FBF783FC0028F9D0024B9888C0B277
:105A800038BD00BF004C004070B5064601460648D0
:105A9000FBF770FC044D402421462846FBF76EFCC2
:105AA0000028F9D0304670BD004C004010B50446C7
:105AB0000A2802D10D20FFF7E7FF2046FFF7E4FF99
:105AC00010BD00BF08B5064B1B6823B1591C044A22
:105AD0001160187008BD034B1B6803B1984708BDDF
