:020000040800F2
:100000000000022015060008E1200008F520000885
:100010000521000815210008252100080000000026
:100020000000000000000000000000003521000872
:1000300041210008000000004D210008F9030008DC
:100040006506000865060008F91100086506000845
:100050006506000865060008650600089D3700086B
:1000600065060008650600086506000865060008C4
:1000700065060008650600086506000865060008B4
:1000800065060008650600086506000865060008A4
:100090006506000865060008650600086506000894
:1000A0006506000865060008650600086506000884
:1000B000C11000086506000865060008650600080E
:1000C0006506000865060008650600086506000864
:1000D0006506000865060008650600086506000854
:1000E0006506000819120008650600086506000884
:1000F0006506000865060008650600086506000834
:100100006506000865060008650600086506000823
:100110006506000865060008650600086506000813
:100120006506000865060008650600086506000803
:1001300065060008650600086506000865060008F3
:1001400065060008650600086506000865060008E3
:1001500065060008650600086506000865060008D3
:1001600065060008650600086506000865060008C3
:100170006506000865060008650600080000000026
:100180006506000810B5054C237833B9044B13B14C
:100190000448AFF300800123237010BD90040020B9
:1001A000000000006C4A0008084B10B51BB108495C
:1001B0000848AFF300800848036803B910BD074B37
:1001C000002BFBD0BDE81040184700BF0000000026
:1001D000940400206C4A00088C04002000000000F9
:1001E00080B584B000AF78600B46FB7000BF7B68C1
:1001F0001B899BB203F00203002BF8D0FB789BB263
:100200001946786800F070FB00BF7B681B899BB2C1
:1002100003F00103002BF8D0786800F059FB034687
:10022000FB73FB7B18461037BD4680BD80B483B09E
:1002300000AF78600B467B807B687A881A8000BFAD
:100240000C37BD4680BC704780B483B000AF034616
:100250003960FB7197F90730002B0BDA0D49FB79F8
:1002600003F00F03043B3A68D2B21201D2B20B443E
:100270001A7609E0084997F907303A68D2B21201B4
:10028000D2B20B4483F8002300BF0C37BD4680BCBC
:10029000704700BF00ED00E000E100E080B582B0F3
:1002A00000AF78607B68B3F1807F01D3012311E058
:1002B0000A4A7B6823F07F43013B53600F214FF0D4
:1002C000FF30FFF7C1FF054B00229A60034B072266
:1002D0001A60002318460837BD4680BD10E000E0D4
:1002E00080B400AF044B1B680133034A136000BFA6
:1002F000BD4680BC704700BFAC04002080B485B010
:1003000000AF78600D4B1B680D4A934206D17B68A5
:100310000C4AA2FB03239B09FB6009E07B684FF4B6
:100320007A7202FB03F3084AA2FB0323DB0BFB6098
:10033000FB6818461437BD4680BC70472C0000206F
:10034000000E27078988888873B2E74580B582B098
:1003500000AF00F01FF87860084B1B683B607868BE
:10036000FFF7CCFF01463B684FF47A7202FB03F3C0
:100370000B4418460837BD4680BD00BFAC040020C2
:1003800080B400AF024B1B681846BD4680BC704766
:10039000AC04002080B400AF044B9B68C3F5EA3383
:1003A000C0331846BD4680BC704700BF10E000E077
:1003B00080B500AF0348FFF771FF034B00221A60BE
:1003C00000BF80BDC0D40100AC04002080B485B063
:1003D00000AF7860074B1A687B681344FB6000BF6E
:1003E000044B1A68FB689A42FAD300BF1437BD4623
:1003F00080BC7047AC04002080B500AFFFF770FFF1
:1004000000BF80BD80B58AB000AF7860396000233E
:100410007B6200233B620023FB610023BB617B689E
:100420001B8A9BB27B627B6A23F440537B623B68EE
:10043000DB881A467B6A13437B627B6A9AB27B68CD
:100440001A827B689B899BB27B627B6A23F4B053E0
:1004500023F00C037B623B689A883B681B8913433B
:100460009AB23B685B8913439BB21A467B6A13437B
:100470007B627B6A9AB27B689A817B689B8A9BB21B
:100480007B627B6A23F440737B623B689B891A46DC
:100490007B6A13437B627B6A9AB27B689A8207F11C
:1004A0000803184602F018FF7B68304A934203D0D5
:1004B0007B682F4A934202D17B693B6201E03B6932
:1004C0003B627B689B899BB21BB2002B0CDA3A6AB9
:1004D00013469B0013449A001A443B681B685B0058
:1004E000B2FBF3F3FB610BE03A6A13469B00134443
:1004F0009A001A443B681B689B00B2FBF3F3FB6154
:10050000FB691C4AA2FB03235B091B017B627B6A1C
:100510001B09642202FB03F3FA69D31ABB617B68EF
:100520009B899BB21BB2002B0CDABB69DB00323318
:10053000104AA2FB03235B0903F007037A6A134303
:100540007B620BE0BB691B0132330A4AA2FB032327
:100550005B0903F00F037A6A13437B627B6A9AB2EA
:100560007B681A8100BF2837BD4680BD001001405E
:10057000001401401F85EB5180B483B000AF786058
:100580000B46FB70FB78002B08D07B689B899BB2E5
:1005900043F400539AB27B689A8107E07B689B8999
:1005A0009BB223F400539AB27B689A8100BF0C3748
:1005B000BD4680BC704700BF80B483B000AF786098
:1005C0000B467B807B88C3F308039AB27B689A80D2
:1005D00000BF0C37BD4680BC704700BF80B485B0FB
:1005E00000AF78600B467B800023FB737B681B8821
:1005F0009AB27B8813409BB2002B02D00123FB737D
:1006000001E00023FB73FB7B18461437BD4680BC1A
:10061000704700BFDFF834D0002103E00C4B5B587B
:10062000435004310B480C4B42189A42F6D30B4A04
:1006300002E0002342F8043B094B9A42F9D302F04E
:10064000D9FB03F0B3FA00F0BBFB704700000220B7
:100650006C4A000800000020900400209004002054
:10066000509A0120FEE7000080B584B000AF034639
:100670000A46FB711346BB7100F0FAF811490020DD
:1006800001F0F4FA01F052FBFB799BB203F03F0357
:100690009BB2FB81BB791B021AB2FB891BB21343CD
:1006A0001BB29BB2FB8107F10E0102230022002046
:1006B00001F0FEFA01F044FB00F0ECF800BF103747
:1006C000BD4680BD0024F40080B584B000AF034671
:1006D0003960FB711346BB710023FB73BB79002BA0
:1006E00022D03B68002B1FD000F0C2F81049002038
:1006F00001F0BCFA01F01AFBFB7903F03F03DBB217
:10070000FB7307F10F0101230022002001F0D0FA52
:10071000BB791BB200223968002001F0C9FA01F050
:100720000FFB00F0B7F800E000BF1037BD4680BDFA
:100730000024F40080B584B000AF0346FB7100F0E4
:1007400097F81349002001F091FA01F0EFFA97F9B8
:10075000073003F03F035BB263F07F035BB2DBB2B1
:10076000FB7307F10F0101230022002001F0A0FA22
:1007700007F10E0201230021002001F099FA01F097
:10078000DFFA00F087F8BB7B18461037BD4680BD06
:1007900000127A0080B584B000AF03463960FB7167
:1007A0001346BB71BB79002B02D03B68002B01D1F3
:1007B000002325E000F05CF81349002001F056FA10
:1007C00001F0B4FA97F9073003F03F035BB263F02E
:1007D0007F035BB2DBB2FB7307F10E0207F10F017F
:1007E0000123002001F064FABB791BB23A680021B2
:1007F000002001F05DFA01F0A3FA00F04BF8BB7B9A
:1008000018461037BD4680BD00127A0080B584B00E
:1008100000AF78600B46FB70FB78002B02D07B6842
:10082000002B01D100231DE000F022F80F49002029
:1008300001F01CFA01F07AFAC023FB7307F10E02F3
:1008400007F10F010123002001F032FAFB781BB2FF
:100850007A680021002001F02BFA01F071FA00F013
:1008600019F8BB7B18461037BD4680BD00127A00D0
:1008700080B500AF064B1B68002B01D101F06AFA6E
:10088000034B1B680133024A136000BF80BD00BFE9
:100890000000002080B500AF084B1B68002B0AD079
:1008A000064B1B68013B054A1360044B1B68002B79
:1008B00001D101F063FA00BF80BD00BF000000203D
:1008C00080B500AF022003F023F800BF80BD00BF59
:1008D00080B483B000AF78607B689B899BB2184678
:1008E0000C37BD4680BC704780B483B000AF7860E1
:1008F0000B467B807B687A889A8100BF0C37BD46A7
:1009000080BC704780B400AF064B1B69002B05DA32
:10091000044B054A5A60034B044A5A6000BFBD4667
:1009200080BC7047003C024023016745AB89EFCD96
:1009300080B400AF044A044B1B6943F000431361C9
:1009400000BFBD4680BC7047003C024080B584B00B
:1009500000AF78600B46FB700023FB600823FB723E
:10096000FB78002B02D10023FB6010E0FB78012B09
:1009700003D14FF48073FB6009E0FB78022B03D1B5
:100980004FF40073FB6002E04FF44073FB6000F033
:10099000B3F80346FB72FB7A082B2FD11A4A1A4B85
:1009A0001B6923F4407313611749174B1A69FB68DD
:1009B00013430B61144A144B1B6923F0F8031361B2
:1009C0001149114B1A697B68134343F002030B6111
:1009D0000D4A0D4B1B6943F48033136100F08CF812
:1009E0000346FB72084A084B1B6923F0020313619C
:1009F000054A054B1B6923F0F8031361FB7A18467F
:100A00001037BD4680BD00BF003C024080B584B0B9
:100A100000AF786039600823FB7300F06DF803467F
:100A2000FB73FB7B082B1ED1114A114B1B6923F46E
:100A3000407313610E4A0E4B1B6943F4007313613C
:100A40000B4A0B4B1B6943F0010313617B683A6847
:100A50001A6000F051F80346FB73054A044B1B690A
:100A600023F001031361FB7B18461037BD4680BDA0
:100A7000003C024080B483B000AF7860034A7B68DA
:100A8000D36000BF0C37BD4680BC7047003C0240BD
:100A900080B483B000AF0823FB71164BDB6803F40E
:100AA0008033002B02D00123FB711CE0114BDB686B
:100AB00003F01003002B02D00523FB7113E00D4B54
:100AC000DB6803F0EF03002B02D00623FB710AE082
:100AD000084BDB6803F00203002B02D00723FB71F5
:100AE00001E00823FB71FB7918460C37BD4680BC3A
:100AF000704700BF003C024080B582B000AF0823C1
:100B0000FB71FFF7C5FF0346FB7103E0FFF7C0FF72
:100B10000346FB71FB79DBB2012BF7D0FB79DBB22B
:100B200018460837BD4680BD80B485B000AF7860F8
:100B300039600023FB817B681B88FB817B68284A26
:100B4000934213D07B68274A93420FD07B68B3F15E
:100B5000804F0BD07B68244A934207D07B68234A9E
:100B6000934203D07B68224A934208D1FB8923F049
:100B70007003FB813B685A88FB891343FB817B68C8
:100B80001C4A93420CD07B681B4A934208D0FB89D5
:100B900023F44073FB813B681A89FB891343FB8173
:100BA0007B68FA891A803B685A687B68DA623B681E
:100BB0001A887B681A857B68094A934203D07B6850
:100BC000084A934204D13B689B7A9AB27B681A86A2
:100BD0007B6801229A8200BF1437BD4680BC7047F3
:100BE00000000140000401400004004000080040F3
:100BF000000C0040001000400014004080B483B09E
:100C000000AF78600B46FB70FB78002B08D07B6848
:100C10001B889BB243F080039AB27B681A8007E07E
:100C20007B681B889BB223F080039AB27B681A8092
:100C300000BF0C37BD4680BC704700BF80B483B096
:100C400000AF78600B46FB70FB78002B08D07B6808
:100C50001B889BB243F001039AB27B681A8007E0BD
:100C60007B681B889BB223F001039AB27B681A80D1
:100C700000BF0C37BD4680BC704700BF80B483B056
:100C800000AF78600B467B8013467B707B78002B2F
:100C900008D07B689B899AB27B8813439AB27B68A1
:100CA0009A8109E07B689B899AB27B88DB439BB27F
:100CB00013409AB27B689A8100BF0C37BD4680BC56
:100CC000704700BF80B483B000AF78600B467B8074
:100CD0007B88DB439AB27B681A8200BF0C37BD4623
:100CE00080BC704780B500AF02F0B2F84FF4C0602E
:100CF00002F01CFEFFF75CFB00BF80BD80B582B038
:100D000000AF01F029FA002000F02CF9012000F0DA
:100D100029F900F08FF900F0EDFE0A4801F024FCFB
:100D200000F09AFE0346002B02D0074B7B6001E0E7
:100D3000064B7B607968064801F016FC00BF083757
:100D4000BD4680BDA0420008A83F0008BC40000886
:100D5000E442000880B582B000AF01F07BF90346A1
:100D6000002B11D100237B6004E000F09FF97B6829
:100D700001337B607B68092BF7DD0E4801F0F4FB43
:100D8000002000F0FFFD02E0012000F0FBFD01F07B
:100D900061F90346002B03D1074801F0E5FBFEE7AC
:100DA000064801F0E1FB01F07FF900BF0837BD46BE
:100DB00080BD00BFE84200080C430008244300083F
:100DC00080B500AFFFF78EFFFFF798FFFFF7C2FF78
:100DD0000023184680BD00BF80B582B000AF01215E
:100DE000012002F023FB0123BB710023FB710123CF
:100DF0003B714FF400733B6002237B713B46194605
:100E0000054801F04FFC4FF40071034801F000FD6C
:100E100000BF0837BD4680BD0000024080B500AF6E
:100E20004FF40071024801F0E5FC00BF80BD00BF37
:100E30000000024080B584B000AF03463960FB710A
:100E4000FB793C4A52F82320FB793B4951F8233087
:100E500013430121184602F0E9FAFB79002B08D16F
:100E6000FB79364A52F823300121184602F01AFB6A
:100E700007E0FB79314A52F823300121184602F08D
:100E8000F3FAFB792E4A52F82300FB792D4AD35C02
:100E900099B2FB792C4AD35C1A4601F0C7FCFB7966
:100EA0002A4A52F82300FB79294AD35C99B2FB798C
:100EB000284AD35C1A4601F0B9FC0023BB73012316
:100EC000FB7302233B73FB79234A32F81330BB6078
:100ED00002237B73FB791A4A52F8233007F1080288
:100EE0001146184601F0DEFB02233B73FB791B4AD7
:100EF00032F81330BB60FB79144A52F8233007F103
:100F000008021146184601F0CDFBFB79144A52F84D
:100F1000233039681846FFF775FAFB79104A52F802
:100F2000233001211846FFF727FB00BF1037BD46CD
:100F300080BD00BF3C430008444300083443000820
:100F40000C000020544300085C43000814000020FB
:100F500058430008604300084C4300085043000811
:100F60000400002080B584B000AF0346FB71FB791C
:100F7000124A52F823300121184602F057FAFB7941
:100F80000F4A32F81330BB6001233B730023BB735D
:100F90000123FB7302237B73FB790A4A52F8233047
:100FA00007F108021146184601F07CFBFB79184650
:100FB00000F00AF800BF1037BD4680BD6843000846
:100FC000644300081C00002080B582B000AF0346D7
:100FD000FB71FB79064A52F82300FB79054A32F887
:100FE0001330194601F006FC00BF0837BD4680BD2E
:100FF0001C0000206443000880B582B000AF0121CE
:10100000102002F013FA4FF400733B6001233B7190
:101010000023BB710123FB7102237B713B46194600
:10102000034801F03FFB00BF0837BD4680BD00BF4D
:101030000010024080B584B000AFFFF7DDFF012152
:10104000012002F011FA6323BB604A23BB80002316
:10105000BB810023FB803B1D19464FF08040FFF70A
:1010600063FD01214FF08040FFF7C8FD00214FF0E4
:101070008040FFF7E3FD1C233B7002237B700123BC
:10108000BB700123FB703B46184602F061FC012156
:101090004FF08040FFF716FE012201214FF0804003
:1010A000FFF7ECFD00BF1037BD4680BD80B500AF37
:1010B00001214FF08040FFF7C1FD00BF80BD00BFA0
:1010C00080B500AF01214FF08040FFF7FBFD424BA0
:1010D00001221A70414B1B68C82B08D93F4B0022D4
:1010E0001A603F4B00221A603E4B00221A703D4BA3
:1010F0001B78002B1AD03C4B1B78002B0DD04FF4E3
:1011000000713A4801F084FB374B00221A70334BD0
:101110001B680133314A13600DE04FF4007133480E
:1011200001F068FB304B01221A7004E02C4B1B6865
:1011300001332B4A13602A4B1B68002B1BD02C4B0E
:101140001B68012B17D100214FF08040FFF776FD7F
:10115000224B00221A60224B00221A60254B0022EB
:101160001A60234B03221A601E4B01221A701A4B7D
:1011700000221A702DE01A4B1B68B3F5FA5F28D9CC
:101180001C4B1B6801331B4A13601A4B1A68184B1F
:101190001B689A4217D300214FF08040FFF74EFDA5
:1011A0000E4B00221A600E4B00221A60114B0022D7
:1011B0001A600F4B03221A600A4B01221A70064B69
:1011C00000221A7002E0074B01221A70044B002221
:1011D0001A6000BF80BD00BFC0040020B40400201E
:1011E000B804002028000020B104002000100240B4
:1011F00024000020BC04002080B500AF4FF4001094
:1012000002F062FB0346002B03D04FF4001002F003
:101210007FFB00BF80BD00BF80B500AF4FF4003042
:1012200002F076FB00BF80BD80B500AFFFF76AFB20
:10123000F320FFF71FFC00BF02213020FFF786FBE1
:101240000346082BF8D100BF80BD00BF80B483B037
:1012500000AF104B1B78002B17D00F4B7B60002387
:101260003B600CE07B6819780C4A3B6813440A46E3
:101270001A707B6801337B603B6801333B603B68DD
:101280000B2BEFD9034B00221A7000BF0C37BD4661
:1012900080BC704729000020107AFF1FC404002082
:1012A00080B400AF024B1846BD4680BC704700BFFB
:1012B000C404002080B584B000AF78603960FFF7C7
:1012C000B3FF0023FB6011E0FB689B0003F10063A8
:1012D00003F58023FA68920079680A44126811467F
:1012E0001846FFF793FBFB680133FB603B689A08E5
:1012F000FB689A42E8D8FFF71BFB00BF1037BD46DA
:1013000080BD00BF80B582B000AF786038217868BA
:10131000FFF7D0FF00BF0837BD4680BD80B582B063
:1013200000AF786038220449786802F067FC00BF9B
:101330000837BD4680BD00BF0000040880B400AF80
:10134000024B1846BD4680BC704700BF0000040831
:1013500080B584B000AF6B4B1B78002B00F0CD80C4
:10136000FFF7ECFF7860684801F0FEF8674801F08D
:10137000FBF80023FB730AE0FB7B7A6813441B79BC
:101380001946634801F0F0F8FB7B0133FB73FB7BEC
:10139000072BF1D95F4801F0E7F87B68DB68194655
:1013A0005D4801F0E1F85D4801F0DEF87B681B69FB
:1013B000184600F017FC5A4801F0D6F87B685B69C4
:1013C000184600F00FFC574801F0CEF87B681B8BE5
:1013D0001946554801F0C8F87B685B8B194653489D
:1013E00001F0C2F87B689B8B1946514801F0BCF8AC
:1013F0007B68DB8B19464F4801F0B6F87B681B6AA7
:10140000012B01D14C4B00E04C4B19464C4801F0EC
:10141000ABF800F021FB0346002B6BD1494801F0EB
:10142000A3F80023BB730BE0BB7B7A68134493F8EB
:1014300024301946444801F097F8BB7B0133BB7355
:10144000BB7B032BF0D9334801F08EF83F4801F005
:101450008BF800237B730BE07B7B7A68134493F853
:1014600028301946384801F07FF87B7B01337B73C5
:101470007B7B032BF0D9274801F076F8344801F044
:1014800073F800233B730BE03B7B7A68134493F8BB
:101490002C3019462C4801F067F83B7B01333B7335
:1014A0003B7B032BF0D91B4801F05EF8294801F083
:1014B0005BF80023FB720BE0FB7A7A68134493F825
:1014C00030301946204801F04FF8FB7A0133FB72A7
:1014D000FB7A032BF0D90F4801F046F87B689B8E0E
:1014E00019461D4801F040F87B68DB8E19461B4801
:1014F00001F03AF81A4801F037F800BF1037BD463E
:1015000080BD00BFB0040020E04300080C44000888
:101510001C440008244400082844000834440008FF
:10152000404400084C44000860440008744400082B
:101530008444000894440008A8440008AC4400080F
:10154000B0440008C0440008D0440008D444000857
:10155000E8440008FC440008104500082445000841
:101560003845000880B59EB000AFFFF799FE386798
:10157000FFF76CFE0123BB63002387F8773010E090
:1015800097F8773097F87720396F0A44127807F187
:1015900078010B4403F83C2C97F87730013387F837
:1015A000773097F87730072BEAD901237B6400F076
:1015B00037FB0346BB643B461846FFF7AFFE7B692B
:1015C000FB6441F21013A7F850304FF4FA63A7F808
:1015D00052304FF4FA63A7F8543041F28833A7F839
:1015E00056300023BB6500F037FA0346002B37D195
:1015F000C02387F85C30A82387F85D300A2387F87A
:101600005E306F2387F85F30FF2387F86030FF2359
:1016100087F86130FE2387F86230002387F8633053
:10162000C02387F86430A82387F865300A2387F839
:101630006630012387F86730C02387F86830A82315
:1016400087F869300A2387F86A300A2387F86B30F5
:1016500040F20743A7F86C3040F20643A7F86E301B
:1016600007F138031846FFF74DFE00BF7837BD4637
:1016700080BD00BF90B591B000AFFFF75FFEF8638B
:10168000FB6B1B68012B01D0FFF76CFFFB6B1B6A28
:10169000DAB20C4B1A70FB6B1C6900F0C1FA0346FE
:1016A0009C420BD03B1D1846FFF738FE00F0B8FAFD
:1016B00003467B613B1D1846FFF724FE00BF4437FD
:1016C000BD4690BDB004002080B584B000AF786006
:1016D00039600023FB7300F0C1FF0346002B3AD0B2
:1016E00000F054FF0346FB73FB7B0D2B0AD11C4B10
:1016F0001B687A68134400221A70194B00221A6082
:10170000012329E0FB7B082B0AD1154B1B68002B1A
:1017100004D0134B1B68013B114A136000231BE0EC
:101720000F4B1A683B689A4204D30D4B00221A6093
:10173000002311E0FB7B1F2B0DD9FB7B7E2B0AD8EE
:10174000074B1B687A681344FA7B1A70044B1B68BA
:101750000133034A1360002318461037BD4680BD8D
:10176000D004002080B592B000AF6E4800F0FCFEBF
:1017700007F13C030A21184600F020FF07F13C0363
:101780006949184602F0B0FA0346002B0CD16748AD
:1017900000F0EAFE3B1D1846FFF7C0FD01237B6207
:1017A0003B1D1846FFF7AEFD07F13C0360491846A4
:1017B00002F09AFA0346002B0CD15E4800F0D4FEEA
:1017C0003B1D1846FFF7AAFD00237B623B1D184610
:1017D000FFF798FD07F13C035749184602F084FAD9
:1017E0000346002B23D1554800F0BEFE07F13C0311
:1017F0000A21184600F0E2FE07F13C035049184662
:1018000002F072FA0346002B08D007F13C034D4961
:10181000184602F069FA0346002B05D14A4800F049
:10182000A3FEFFF79FFE02E0484800F09DFE07F18F
:101830003C034749184602F057FA0346002B6CD088
:1018400007F13C034349184602F04EFA0346002BC9
:1018500010D1414800F088FE002000F0F9FA03465C
:10186000002B03D13D4800F07FFE03E03C4800F030
:101870007BFE53E007F13C033A49184602F034FA84
:101880000346002B1CD1384800F06EFE07F13C03E4
:101890000A21184600F092FE07F13C032849184639
:1018A00002F022FA0346002B08D007F13C03254939
:1018B000184602F019FA0346002B01D100F0E0FBB4
:1018C00007F13C032949184602F00EFA0346002BA3
:1018D00009D1FFF7CFFE264B01221A70FFF738FD22
:1018E000234B00221A7007F13C032249184602F0EC
:1018F000FBF90346002B02D11F4800F035FE07F12B
:101900003C031E49184602F0EFF90346002B7FF412
:101910002CAF1B4800F028FE27E700BF00BF483768
:10192000BD4680BDC8450008D0450008D445000824
:10193000E4450008E8450008F8450008FC450008B3
:101940003046000834460008384600085046000873
:1019500064460008684600086C460008BC4600085B
:10196000CC460008F0460008F4460008304700085E
:10197000B0040020344700083847000854470008E6
:101980005847000880B588B000AF0346FB71FFF7E9
:1019900023FAFB79002B4AD0FEF7F2FC0346FB61E9
:1019A0000521274800F0E0FD33E007F10C030A2190
:1019B0001846FFF789FE07F10C032249184602F08A
:1019C00093F90346002B02D1FFF7CCFE2BE0FEF784
:1019D000D7FC03461A46FB69D31ABB61BA691A4B96
:1019E000A3FB02135B094FF4FA7101FB03F3D31A53
:1019F000002B0BD1BB69642202FB03F3134AA2FB49
:101A000003231B0B1946124800F0AEFD0120FEF720
:101A1000DDFCFEF7B5FC03461A46FB69D31A41F21A
:101A200087329342C1D90B4800F09EFD01E0FFF7D9
:101A300099FEFFF7F3F900BF2037BD4680BD00BF18
:101A4000F047000818480008D34D62105917B7D165
:101A5000244800082C48000880B584B000AF00235B
:101A6000FB730121102001F0E1FC0123BB71012374
:101A7000FB7100233B7101233B6002237B713B46DA
:101A800019460B4800F00EFE0023BB6008E0012160
:101A9000074800F095FE0346FB73BB680133BB604B
:101AA000BB68632BF3DDFB7B18461037BD4680BD5A
:101AB0000010024080B485B000AF78600023FB6066
:101AC0000EE0FA6813469B0013445B00FB607B68E2
:101AD0001B78303BFA681344FB607B6801337B6002
:101AE0007B681B78002BECD1FB6818461437BD4689
:101AF00080BC7047F0B599B000AF374B1C4607F17A
:101B0000200604F1300E35462346186859689A6855
:101B1000DB680FC5103410367445F4D12F4A3B1DD5
:101B200007CA83E80700391D07F11403032218468A
:101B300002F064F80023FB75002387F85F30002370
:101B4000BB6516E007F12002BB6D9B00134407F153
:101B500014021146184602F0C7F80346002B05D1BF
:101B6000BB6DDBB2013387F85F3005E0BB6D01333D
:101B7000BB65BB6D0B2BE5D93B1D043307F1100092
:101B80000222194602F03AF80023BB743B1D0733CA
:101B900007F118000422194602F030F800233B77C1
:101BA00007F118031846FFF785FF786507F1100362
:101BB0001846FFF77FFF38657B6D1A0397F85F3093
:101BC0001B021A433B6D13431A46054B1A6000BFB4
:101BD0006437BD46F0BD00BF3448000864480008C3
:101BE000E808002080B586B000AF78607B681B0BEA
:101BF000C3F30B037B617B681B0A03F00F033B619C
:101C00007B68DBB2FB60FB683A697969034800F0E6
:101C1000ABFC00BF1837BD4680BD00BF7048000850
:101C200080B400AF024B1B681846BD4680BC7047AD
:101C3000E808002080B485B000AF78607A68094B6E
:101C40001340FB60FB68002B05D0FB68064A9342FB
:101C500001D8012300E0002318461437BD4680BC9C
:101C6000704700BF1FFF7F001EFF7F0080B582B05E
:101C700000AF786039603B68094A934206D9094B46
:101C80001B8819460848FEF7D1FA05E0074B1B8868
:101C900019460548FEF7CAFA00BF0837BD4680BDA1
:101CA00000127A00EC08002000300140EE0800200D
:101CB00080B586B000AFF860B9607A607B80B7F914
:101CC0000230002B2AD0BB68002B1ED17B68002B72
:101CD00026D01AE0BB68002B05D0BB681B78FB75CB
:101CE000BB680133BB60FB7DDBB219460E48FEF7D3
:101CF00077FA0346FB757B68002B06D0FB7DDAB2D2
:101D00007B681A707B6801337B60B7F902309AB246
:101D1000013A92B27A80002BDCD102E000BF00E0F1
:101D200000BF1837BD4680BD0030014080B500AF10
:101D30001021024800F06CFD00BF80BD0000024091
:101D400080B500AF1021024800F054FD00BF80BDF7
:101D50000000024080B582B000AF07233B71012331
:101D60007B710023BB710023FB713B1D184601F002
:101D7000EFFD00BF0837BD4680BD00BF80B582B013
:101D800000AF07233B7101237B710023BB7101234B
:101D9000FB713B1D184601F0DBFD00BF0837BD4657
:101DA00080BD00BF80B584B000AF78600023FB73B6
:101DB000FFF752FE0346002B07D07B6803F08853E1
:101DC000002B09D00123FB7306E07B6803F0085366
:101DD000002B01D00123FB73FB7B18461037BD4657
:101DE00080BD00BF80B588B000AF78607A6807F129
:101DF0000C031449184600F0E1FF0023FB7711E0C3
:101E0000FB7F07F12002134413F8142CF97F7B6841
:101E10000B440C49CB5C9A4201D000230DE0FB7FC0
:101E20000133FB77FB7F0F2BEAD9074B1B78002B85
:101E300002D0064800F098FB012318462037BD4623
:101E400080BD00BFF0080020B004002078480008E2
:101E500080B5ADF5846D00AF3B1D18600023C7F859
:101E60001C346A4B00221A7007F108034FF4C83281
:101E70006749184601F034F90346C7F81C34C820F6
:101E8000FEF7A4FAD7F81C34002B7FD0D7F81C3407
:101E9000B3F5C83F7AD200F0C3F80346002B6FD0E9
:101EA000D7F81C34023B5A4A1344C7F8183409E0E7
:101EB000D7F81834023BC7F81834D7F81C34023B63
:101EC000C7F81C34D7F818341B8841F61A229342FD
:101ED000EED0D7F81C34143B1846FFF783FF0346B7
:101EE000002B04D14B4800F03FFB002388E0D7F8DB
:101EF0001C34043B464A1344C7F81034D7F8103456
:101F00001B681846FFF74EFF0346002B33D0D7F867
:101F100010341B681846FFF78DFE0346002B2AD0AD
:101F2000D7F81C143C4800F01FFBD7F810341A688F
:101F30003A4B13401846FFF755FEFFF7FFF90346EB
:101F4000C7F80C34D7F80C345B691846FFF772FEFB
:101F50000346002B0BD0D7F810341A68D7F80C348E
:101F60005B699A4211D3294B01221A700DE0274B6D
:101F700001221A7009E0274800F0F6FA00233FE03A
:101F8000244800F0F1FA00233AE000BF1F4B1B7811
:101F9000002B34D0FEF7B6FCF320FEF76BFD00BF3C
:101FA00002212820FEF7D2FC0346082BF8D1184B5B
:101FB000C7F808340023C7F8143415E0D7F81434F0
:101FC00003F1007303F500439800D7F814349B0025
:101FD000D7F8082413441B681946FEF717FDD7F8F5
:101FE00014340133C7F81434D7F81C349A08D7F8DE
:101FF00014349A42E2D8FEF79BFC012300E0002350
:10200000184607F58467BD4680BD00BFF0980120E3
:10201000F008002088480008984800081FFF7F004B
:1020200080B483B000AF084B7B607B681A68074BB5
:102030001340074A934201D1012300E000231846D0
:102040000C37BD4680BC7047F00800200000FE2F12
:102050000000022080B400AF064B1A68064B134004
:10206000064A934201D1012300E000231846BD46F1
:1020700080BC7047000002080000FE2F0000022014
:1020800080B500AFFEF73EFCF320FEF7F3FC00BF87
:1020900002212820FEF75AFC0346082BF8D1FEF750
:1020A00047FC00BF80BD00BF80B582B000AF4FF4D9
:1020B00000314FF0006001F0ABFC074B1B687B6008
:1020C000064B1B683B603B6883F308887B68984736
:1020D00000BF0837BD4680BD0400020800000208AA
:1020E00080B500AF024800F03FFA00BF80BD00BFDE
:1020F000B848000880B500AF014800F035FAFEE7A7
:10210000C848000880B500AF014800F02DFAFEE78E
:10211000E048000880B500AF014800F025FAFEE76E
:10212000F848000880B500AF014800F01DFAFEE74E
:102130001049000880B400AF00BFBD4680BC7047A6
:1021400080B400AF00BFBD4680BC704780B400AF14
:1021500000BFBD4680BC704780B584B000AF4FF46F
:10216000E1333B600023BB800023FB8000233B81E5
:102170000023BB810C237B813B4619460120FEF7DF
:1021800059FE054B054A1A60054B064A1A6000BF06
:102190001037BD4680BD00BFF8980120DD21000842
:1021A000F49801208D25000880B582B000AF034669
:1021B000FB71FB799BB219460748FEF7FDF900BF9A
:1021C00040210548FEF70AFA0346002BF8D0FB79B8
:1021D00018460837BD4680BD004C004080B582B02F
:1021E00000AF0346FB71FB790A2B02D10D20FFF7EC
:1021F000DBFFFB791846FFF7D7FF03461846083781
:10220000BD4680BD80B582B000AF0346FB710C4B6C
:102210001B68002B07D00A4B1B685A1C08490A6030
:10222000FA791A7008E0074B1B68002B04D0054BA5
:102230001B68FA79104698470837BD4680BD00BF35
:10224000D8040020F898012080B582B000AF7860F3
:1022500006E07B685A1C7A601B781846FFF7D2FFAD
:102260007B681B78002BF4D100BF0837BD4680BDCA
:1022700080B58EB000AF786039607B685A1C7A6098
:102280001B78FB77FB7F002B00F06781FB7F252B02
:1022900004D0FB7F1846FFF7B5FF5DE100237B62AA
:1022A0007B685A1C7A601B78FB77FB7F302B07D149
:1022B00001237B627B685A1C7A601B78FB7709E0FC
:1022C000FB7F2D2B06D102237B627B685A1C7A6030
:1022D0001B78FB770023BB620EE0BA6A13469B00B3
:1022E00013445B001A46FB7F1344303BBB627B68A0
:1022F0005A1C7A601B78FB77FB7F2F2B02D9FB7F60
:10230000392BEAD9FB7F6C2B02D0FB7F4C2B08D1F9
:102310007B6A43F004037B627B685A1C7A601B78FB
:10232000FB77FB7F002B00F01A81FB7FBB77BB7F25
:10233000602B02D9BB7F203BBB77BB7F423B162B78
:1023400073D801A252F823F01324000801240008D6
:102350001F2400082B2400082B2400082B2400082D
:102360002B2400082B2400082B2400082B24000811
:102370002B2400082B2400082B2400081924000813
:102380002B2400082B2400082B240008A523000878
:102390002B2400081F2400082B2400082B240008ED
:1023A000252400083B681A1D3A601B68BB610023A6
:1023B000FB6202E0FB6A0133FB62BA69FB6A134409
:1023C0001B78002BF6D102E02020FFF71BFF7B6A71
:1023D00003F00203002B05D1FB6A5A1CFA62BA6AA9
:1023E0009342F1D3B869FFF72FFF02E02020FFF7F7
:1023F00009FFFB6A5A1CFA62BA6A9342F6D3ABE051
:102400003B681A1D3A601B68DBB21846FFF7FAFEFC
:10241000A2E002237B630DE008237B630AE00A232A
:102420007B6307E010237B6304E0FB7F1846FFF724
:10243000E9FE91E07B6A03F00403002B04D03B68C3
:102440001A1D3A601B680BE0BB7F442B04D13B682C
:102450001A1D3A601B6803E03B681A1D3A601B684E
:102460003B62BB7F442B09D13B6A002B06DA3B6AF7
:102470005B423B627B6A43F008037B6200233B6361
:102480003B6A7A6BB3FBF2F2796B01FB02F29B1AA7
:10249000BB773A6A7B6BB2FBF3F33B62BB7F092BE2
:1024A00008D9FB7F782B01D1272200E00722BB7FD0
:1024B0001344BB773B6B5A1C3A63BA7F3032D2B2BB
:1024C00007F138010B4403F8302C3B6A002B02D093
:1024D0003B6B0F2BD4D97B6A03F00803002B08D089
:1024E0003B6B5A1C3A6307F1380213442D2203F860
:1024F000302C3B6BFB627B6A03F00103002B01D0A5
:10250000302300E02023BB7703E0BB7F1846FFF7B2
:1025100079FE7B6A03F00203002B05D1FB6A5A1C8B
:10252000FA62BA6A9342F0D33B6B013B3B6307F11B
:1025300008023B6B13441B781846FFF763FE3B6BA6
:10254000002BF1D102E02020FFF75CFEFB6A5A1C51
:10255000FA62BA6A9342F6D38FE600BF00E000BF8A
:1025600000BF3837BD4680BD0FB480B582B000AF24
:1025700007F114037B6079683869FFF779FE00BFC3
:102580000837BD46BDE8804004B0704780B582B0D2
:1025900000AF0023FB7120210748FEF71FF8034618
:1025A000002BF8D0044B9B889BB2FB7100BFFB79DA
:1025B00018460837BD4680BD004C004080B584B049
:1025C00000AF78603960244B1B68002B01D10023D9
:1025D0003EE00023FB60204B1B6898470346BB602E
:1025E000BB68002B01D1002332E0BB680D2B25D046
:1025F000BB68082B0BD1FB68002B08D0FB68013BA4
:10260000FB60BB68DBB21846FFF7FCFD15E0BB685A
:102610001F2BE0DD3B685A1EFB689A42DBDDFB683E
:102620005A1CFA601A467B681344BA68D2B21A7010
:10263000BB68DBB21846FFF7E5FDCCE700BFFB68DF
:102640007A68134400221A700A20FFF7DBFD012389
:1026500018461037BD4680BDF498012080B500AF04
:1026600020210548FDF7BAFF0346002B01D00123C6
:1026700000E00023184680BD004C004080B400AF4D
:1026800000BFBD4680BC704780B400AF044A137BD6
:1026900043F00103137300BFBD4680BC704700BF09
:1026A0008C99012080B487B000AF78603960002336
:1026B0007B6100233B610023FB6000237B6176E0AC
:1026C00001227B6902FA03F33B613B681A683B69AC
:1026D0001340FB60FA683B699A4265D17B681A68CF
:1026E0007B695B00032101FA03F3DB431A407B683B
:1026F0001A607B681A683B681B7919467B695B0026
:1027000001FA03F31A437B681A603B681B79012BBB
:1027100003D03B681B79022B2ED17B689A687B69BA
:102720005B00032101FA03F3DB431A407B689A60E4
:102730007B689A683B685B7919467B695B0001FAA4
:1027400003F31A437B689A607B685A687B699BB283
:10275000194601238B40DB431A407B685A607B6833
:102760005B683A68927911467A6992B201FA02F28C
:1027700092B21A437B685A607B68DA687B699BB2C5
:102780005B00032101FA03F3DB431A407B68DA6044
:102790007B68DA683B68DB7919467B695B0001FA84
:1027A00003F31A437B68DA607B6901337B617B69E1
:1027B0000F2B85D900BF1C37BD4680BC704700BFBA
:1027C00080B485B000AF78600B467B800023FB733C
:1027D0007B681A697B881340002B02D00123FB73AE
:1027E00001E00023FB73FB7B18461437BD4680BC19
:1027F000704700BF80B483B000AF78600B467B8029
:102800007B687A881A8300BF0C37BD4680BC70474E
:1028100080B483B000AF78600B467B807B687A8899
:102820005A8300BF0C37BD4680BC704780B485B06A
:1028300000AF78600B467B8013467B700023FB6003
:102840000023BB607A787B8803F007039B0002FAC1
:1028500003F3FB607B88DB089BB218467B88DB08B0
:102860009BB21A467B68083253F822207B8803F01B
:1028700007039B000F2101FA03F3DB4302EA030184
:102880007B6800F1080243F822107B88DB089BB2CA
:102890001A467B68083253F82220FB681343BB605A
:1028A0007B88DB089BB21A467B680832B96843F81C
:1028B000221000BF1437BD4680BC704780B4A3B05F
:1028C00000AF786039600023C7F8803012E0D7F895
:1028D00080309B007A6813441A68D7F880309B00D8
:1028E00007F188010B4443F8402CD7F880300133BE
:1028F000C7F88030D7F88030032BE8DD0023FB6772
:102900000023BB6756E0BB6F5A1CBA671A463B6888
:1029100013441B781A46FB6F9B0007F188010B4498
:1029200043F8802CBB6F5A1CBA671A463B681344A5
:102930001B781A02FB6F9B0007F188010B4453F8C8
:10294000803C1A43FB6F9B0007F188010B4443F85E
:10295000802CBB6F5A1CBA671A463B6813441B781D
:102960001A04FB6F9B0007F188010B4453F8803C6D
:102970001A43FB6F9B0007F188010B4443F8802C3E
:10298000BB6F5A1CBA671A463B6813441B781A0679
:10299000FB6F9B0007F188010B4453F8803C1A43FE
:1029A000FB6F9B0007F188010B4443F8802CFB6F01
:1029B0000133FB67FB6F0F2BA5DD00237B67BFE0B7
:1029C00000233B67B5E03A6F6F4B1340002B03DAEF
:1029D000013B63F0030301335B4203F00303BB6677
:1029E0003A6F694B1340002B03DA013B63F003039A
:1029F00001331946654A7B6F9B0013440B441B78D7
:102A000087F86730BB6E013303F003039B007A68DD
:102A100013441B683B66BB6E023303F003039B0049
:102A20007A6813441B68FB65BB6E033303F0030332
:102A30009B007A6813441B68BB657B6F012B16D023
:102A4000022B2AD0002B3CD13A6EFB6D1A403B6E14
:102A5000D943BB6D0B401A433B6F9B0007F18801C4
:102A60000B4453F8803C1344C7F884303EE03A6E80
:102A7000BB6D1A40BB6DD943FB6D0B401A434449F3
:102A80003B6F0B441B789B0007F188010B4453F804
:102A9000803C1344C7F8843028E03A6EFB6D5A40FE
:102AA000BB6D5A403A493B6F0B4410331B789B0077
:102AB00007F188010B4453F8803C1344C7F8843075
:102AC00014E0BB6DDA433B6E1A43FB6D5A4030494C
:102AD0003B6F0B4420331B789B0007F188010B44AC
:102AE00053F8803C1344C7F8843000BFBB6E9B0092
:102AF0007A6813441A68D7F884301A4425487B6FE3
:102B000019013B6F0B4450F823301344C7F884304D
:102B1000BB6E9B007A68134497F86720D7F884103F
:102B2000C2F12002D1413A6E0A441A603B6F013370
:102B30003B673B6F0F2B7FF746AF7B6F01337B67A4
:102B40007B6F032B7FF73CAF0023FB6614E0FB6E2B
:102B50009B007A681A44FB6E9B0079680B441968E5
:102B6000FB6E9B0007F18800034453F8403C0B4484
:102B70001360FB6E0133FB66FB6E032BE7DD00BFCA
:102B80008C37BD4680BC7047030000805849000860
:102B9000284900086849000880B483B000AF786015
:102BA0007B6800221A607B6800225A617B68084AB1
:102BB0005A607B68074A9A607B68074ADA607B68DC
:102BC000064A1A6100BF0C37BD4680BC704700BF83
:102BD0000123456789ABCDEFFEDCBA9876543210FD
:102BE00080B586B000AFF860B9607A60FB681A689B
:102BF0007B681A44FB681A6000237B6120E0FB6855
:102C00005B697A69B9680A441178FA6813440A461C
:102C10001A76FB685B695A1CFB685A61FB685B6942
:102C2000402B0AD1FB681A1DFB6818331946104661
:102C3000FFF744FEFB6800225A617B6901337B6128
:102C40007A697B689A42DADB00BF1837BD4680BDDF
:102C500080B588B000AF786039607B685B697A685E
:102C6000134480221A767B685B695A1C7B685A6120
:102C70007B685B69FB6108E07A68FB691344183381
:102C800000221A70FB690133FB61FB693F2BF3DD06
:102C90007B685B69382B16DD7B681A1D7B681833EF
:102CA00019461046FFF70AFE0023BB6108E07A6868
:102CB000BB691344183300221A70BB690133BB612E
:102CC000BB693F2BF3DD7B681B68DB00FB600023E7
:102CD0007B6117E07B6938337A69383279680A4456
:102CE000117E7A69D20002F01802F86820FA02F226
:102CF000D2B20A43D1B27A6813440A461A767B6983
:102D000001337B617B69032BE4DD7B681B681B0E51
:102D1000DBB25B09DAB27B6883F854207B681A1D4A
:102D20007B68183319461046FFF7C8FD00233B6146
:102D30003CE03B693A6813447A6851683A69D200CA
:102D400002F0180221FA02F2D2B21A703B6904337F
:102D50001A463B6813447A6891683A69D20002F0D7
:102D6000180221FA02F2D2B21A703B6908331A46ED
:102D70003B6813447A68D1683A69D20002F01802BD
:102D800021FA02F2D2B21A703B690C331A463B6840
:102D900013447A6811693A69D20002F0180221FAE4
:102DA00002F2D2B21A703B6901333B613B69032BDB
:102DB000BFDD00BF2037BD4680BD00BF80B59AB0E3
:102DC00000AFF860B9607A6007F110031846FFF7AA
:102DD000E3FE07F110037A68B9681846FFF700FFB1
:102DE00007F11003F9681846FFF732FF00BF683794
:102DF000BD4680BD80B500AF124A124B1B6843F040
:102E0000010313600F4B00229A600E4A0D4B1B68A2
:102E100023F0847323F4803313600A4B0A4A5A6008
:102E2000084A084B1B6823F480231360054B0022DB
:102E3000DA6000F089F8054B4FF000629A6000BF3D
:102E400080BD00BF003802401030002400ED00E0DB
:102E500080B487B000AF00233B6100237B61022375
:102E6000FB600023BB6002237B60324B9B6803F056
:102E70000C033B613B69042B07D0082B09D0002BC6
:102E80003FD12D4B2D4A1A603FE02B4B2C4A1A6044
:102E90003BE0284B5B6803F480039B0DBB60254B34
:102EA0005B6803F03F037B60BB68002B0DD0244AB6
:102EB0007B68B2FBF3F21F4B596847F6C0730B40B7
:102EC0009B0903FB02F37B610CE01C4A7B68B2FBAD
:102ED000F3F2184B596847F6C0730B409B0903FB8C
:102EE00002F37B61134B5B6803F440331B0C01332B
:102EF0005B00FB607A69FB68B2FBF3F30E4A136078
:102F000003E00D4B0D4A1A6000BF0A4B9B6803F0AB
:102F1000F0031B090B4AD35CDBB23B61064B1A681A
:102F20003B6922FA03F3044A136000BF1C37BD4615
:102F300080BC7047003802402C0000200024F400C0
:102F400040787D013000002080B483B000AF0023C2
:102F50007B6000233B602F4A2E4B1B6843F4803379
:102F600013602C4B1B6803F400333B607B68013318
:102F70007B603B68002B03D17B68B3F5A06FF0D179
:102F8000244B1B6803F40033002B02D001233B6069
:102F900001E000233B603B68012B36D11D4A1D4BED
:102FA0009B6893601B4A1B4B9B6843F400439360F0
:102FB000184A184B9B6843F4A0539360154B164A6C
:102FC0005A60144A134B1B6843F08073136000BFB0
:102FD000104B1B6803F00073002BF9D00F4B40F22D
:102FE00003721A600B4A0B4B9B6823F00303936038
:102FF000084A084B9B6843F00203936000BF054BEF
:103000009B6803F00C03082BF9D100BF0C37BD46B9
:1030100080BC704700380240193C4005003C02402B
:1030200080B485B000AF03460A46FB711346BB80EF
:103030000723FB601DE0BB88DB0B9BB25AB2F9791A
:10304000FB6841FA03F35BB253405BB2DBB203F0BF
:103050000103FB72BB885B00BB80FB7A002B05D0B1
:10306000BB8883F4815383F00103BB80FB68013B81
:10307000FB60FB68002BDEDABB8818461437BD46C0
:1030800080BC704780B586B000AF78603960FDF7CE
:1030900077F903467B61FFF7E1FA0346002B0BD07B
:1030A000FFF774FA0346FB737B68002B02D07B6842
:1030B000FA7B1A7001230EE03B68002BEBD0FDF782
:1030C0005FF903461A467B69D31A3B613A693B684C
:1030D0009A42E0D9002318461837BD4680BD00BF8C
:1030E00080B58EB000AFF860B9607A6000233B63B2
:1030F0000023FB6200233B75002387F82B3000235D
:103100007B62FF23FB74002387F82130BB68BB611F
:103110000023FB614320FFF747F807F115034FF445
:103120007A711846FFF7AEFF0346002B03D1432008
:10313000FFF73AF8CBE07B7D042B07D100237B62BD
:103140000620FFF731F800BFFB69C1E07B7D182B3B
:1031500002D102237B6212E07B7D242B02D1032368
:103160007B620CE07B7D012B02D18023FB6206E0B9
:103170007B7D022B40F0AA804FF48063FB6207F155
:1031800014034FF47A711846FFF77CFF0346002BB7
:1031900001D104237B6207F115034FF47A711846BD
:1031A000FFF770FF0346002B01D105237B6200234C
:1031B00087F8213000237B8400233B6300237B635B
:1031C00028E007F115034FF47A711846FFF75AFF0C
:1031D0000346002B01D106237B627A7D97F82130CC
:1031E000134487F821307B7D7A8C11461846FFF70F
:1031F00017FF03467B843B7D97F82B209A4206D02D
:103200003B6B5A1C3A63FA6813447A7D1A707B6BE5
:1032100001337B637A6BFB6A9A42D2D307F11303C3
:103220004FF47A711846FFF72DFF0346002B01D1AA
:1032300007237B62FB7C9BB21B02FB8207F113031B
:103240004FF47A711846FFF71DFF0346002B01D19A
:1032500007237B62FB7C9AB2FB8A1344FB827B6A66
:10326000002B03D1FA8A7B8C9A4205D01520FEF7F9
:103270009BFF00237B622AE03B7D87F82B30FA69B5
:10328000FB6A1A447B689A4204D91820FEF78CFF27
:10329000FB691DE000237B630CE0FA697B6B134440
:1032A000BA691344F9687A6B0A4412781A707B6B16
:1032B00001337B637A6BFB6A9A42EED3FA69FB6A4D
:1032C0001344FB610620FEF76FFF26E700BF24E7EB
:1032D00018463837BD4680BD80B489B000AF7860ED
:1032E0000023BB6100237B610023FB6102233B6160
:1032F0000023FB600223BB60484B9B6803F00C0378
:10330000BB61BB69042B07D0082B09D0002B3FD130
:103310007B68434A1A603FE07B68424A1A603BE0A0
:103320003E4B5B6803F480039B0DFB603B4B5B688B
:1033300003F03F03BB60FB68002B0DD0394ABB682C
:10334000B2FBF3F2354B596847F6C0730B409B094B
:1033500003FB02F3FB610CE0314ABB68B2FBF3F202
:103360002E4B596847F6C0730B409B0903FB02F3D1
:10337000FB612A4B5B6803F440331B0C01335B0099
:103380003B61FA693B69B2FBF3F27B681A6003E0C8
:103390007B68234A1A6000BF204B9B6803F0F00350
:1033A000BB61BB691B09BB611F4ABB6913441B7826
:1033B000DBB27B617B681A687B69DA407B685A60A4
:1033C000164B9B6803F4E053BB61BB699B0ABB616E
:1033D000154ABB6913441B78DBB27B617B685A6872
:1033E0007B69DA407B689A600C4B9B6803F460430E
:1033F000BB61BB695B0BBB610B4ABB6913441B78A8
:10340000DBB27B617B685A687B69DA407B68DA6093
:1034100000BF2437BD4680BC704700BF0038024063
:103420000024F40040787D014000002080B483B087
:1034300000AF78600B46FB70FB78002B06D0094983
:10344000084B1A6B7B6813430B6306E00549054B79
:103450001A6B7B68DB4313400B6300BF0C37BD4620
:1034600080BC70470038024080B483B000AF786001
:103470000B46FB70FB78002B06D00949084B1A6CF1
:103480007B6813430B6406E00549054B1A6C7B68A7
:10349000DB4313400B6400BF0C37BD4680BC704754
:1034A0000038024080B483B000AF78600B46FB70F8
:1034B000FB78002B06D00949084B5A6C7B681343F4
:1034C0004B6406E00549054B5A6C7B68DB431340AF
:1034D0004B6400BF0C37BD4680BC704700380240CB
:1034E00080B485B000AFF860B9601346FB710CE0A2
:1034F000BB681A78FB681A70FB680133FB60BB6815
:103500000133BB60FB79013BFB71FB79002BEFD1F1
:1035100000BF1437BD4680BC704700BF80B586B081
:1035200000AF0346FB7100233B610023FB603223A5
:10353000FB72FB79042B59D997F90730002B55DB27
:10354000FB79052B12D12B4B5B691B7803F0200311
:10355000002B01D0FFF798F80523BB72FA7D07F125
:103560000A031146184600F057F940E000F08EF9C2
:103570000346002B09D1FB799BB2013B9BB2184655
:1035800000F09AFAF860FB683B613B69002B2ED093
:103590003B69FA791A703B6901333B61FB79023B65
:1035A000DBB219463869FDF731F92520FDF7C2F87D
:1035B0000346FB75FB7D002B0AD100BFFB7A5A1E28
:1035C000FA72002BFAD12520FDF7B4F80346FB75FB
:1035D000FB7D184600F0FEF80346FB75FFF74EF83A
:1035E000FB7D1946F86800F017F900E000BF1837B6
:1035F000BD4680BD8C99012090B5A7B000AF0023D7
:1036000087F89730002387F89630012387F89530A4
:10361000002387F894304FF000034FF00004C7E90F
:103620002234FDF725F9FDF74BF907225549012012
:10363000FDF7B0F803461A46534B1A70032252495D
:103640000020FDF741F803224F495048FFF748FF9B
:103650004E4B5B7803F00103DBB2002B07D14A4BE2
:103660001B78002B06D1484B5B78002B02D1FDF76D
:1036700011F984E0444BDB7803F0070387F89730B7
:10368000414B9B7987F894303F4BDB7887F8963035
:103690003E4B1B7803F00203DBB2002B38D03B4BD0
:1036A0005B7803F04003DBB2002B22D0384B1B7851
:1036B000002B05D0364B1B78013BDAB2344B1A7025
:1036C000334B1B78002B23D0324B1B78002B1FD0A1
:1036D00097F89730022B03D097F89730042B17D127
:1036E00097F8963019460320FCF7BEFFFDF7D2F895
:1036F00045E0294B5B691B7803F02003002B01D1C7
:10370000FEF7C2FF234B00221A70214B00221A70D1
:103710001E4B1B7803F00403DBB2002B04D097F898
:1037200094301846FFF7FAFE2420FDF703F803460D
:1037300003F01F0387F88730144B1B7803F0010355
:10374000DBB2002B03D197F88730002B15D197F807
:10375000963023F0170387F89630012387F89530C9
:1037600097F8962097F89530134387F8963097F896
:10377000963019460320FCF777FFFDF78BF89C374E
:10378000BD4690BDAD990120AC990120A8990120BA
:1037900050000020E70400208C99012080B584B0FF
:1037A00000AF022000F090F80346002B0DD0FCF78C
:1037B000CDFD0346FB60FFF71FFFFCF7C7FD034687
:1037C000BB60BA68FB68D31A7B6000BF1037BD4688
:1037D00080BD00BF80B485B000AF0346FB71FB79AC
:1037E000E52B01D9FF2311E0FB79092B01D8002338
:1037F0000CE0FB7941F6D33202FB03F3FB60FB687C
:103800001A0CFB791344FB60FB68DBB218461437D3
:10381000BD4680BC704700BF80B483B000AF786005
:103820000B46FB707B681B78052B05D1164A137974
:103830006FF38613137121E0134B93F82D3001338E
:10384000DAB2114B83F82D200F4B93F82D30052B56
:1038500003D10D4B002283F82D200B4B93F82D3014
:10386000094906337A6841F83320074B93F82D3025
:10387000054A0633DB001344FA781A7100BF0C378F
:10388000BD4680BC704700BFD899012080B483B08A
:1038900000AF0C4B93F82D300133FB71FB79052BF6
:1038A00001D10023FB71074B93F82C30FA799A422F
:1038B0000CBF01230023DBB218460C37BD4680BC89
:1038C000704700BFD899012080B485B000AF786000
:1038D0000023FB730023BB600C4B1A687B6813400A
:1038E000BB600A4B5A697B681340002B05D0BB684C
:1038F000002B02D00123FB7301E00023FB73FB7B51
:1039000018461437BD4680BC704700BF003C0140DC
:1039100080B483B000AF7860034A7B68536100BF16
:103920000C37BD4680BC7047003C014080B483B07A
:1039300000AF7860054A7B6843F0BF6343F400330F
:10394000D36000BF0C37BD4680BC704700ED00E07F
:1039500080B485B000AF78600023FB730023BB7395
:103960000F237B737B68DB78002B38D0264BDB681A
:10397000DB4303F4E0631B0AFB73FB7BC3F104032B
:10398000BB737A7BFB7B42FA03F37B737B685B78C8
:103990001A46BB7B02FA03F3FB737B689A787B7B46
:1039A0001340DAB2FB7B1343FB73FB7B1B01FB73FE
:1039B000164A7B681B781344FA7B83F80023134A6A
:1039C0007B681B785B09DBB218467B681B7803F0C9
:1039D0001F03012101FA03F342F820300FE00B49E5
:1039E0007B681B785B09DBB218467B681B7803F0A9
:1039F0001F0301229A4000F1200341F8232000BF59
:103A00001437BD4680BC704700ED00E000E100E0E7
:103A100080B483B000AF7860396007493B6823F019
:103A2000604323F07F037A6813438B6000BF0C3739
:103A3000BD4680BC704700BF00ED00E080B485B09B
:103A400000AF78607B681B78FB817B6801331B7853
:103A50009BB21B029AB2FB891344FB81FB89C3F31F
:103A60000E03FB81FB8918461437BD4680BC7047A6
:103A700080B483B000AF78600B467B807B88DAB27D
:103A80007B681A707B6801337B607B681B7823F04E
:103A90007F03DAB27B681A707B681A787B881B0A0E
:103AA0009BB2DBB21344DAB27B681A7000BF0C37EA
:103AB000BD4680BC704700BF80B586B000AF0346EE
:103AC000FB80FB88002B01D1002368E0FB88112BD1
:103AD00001D81223FB80344B7B6100237B827B69FE
:103AE00001331B785BB2002B07DA7869FFF7A6FF7A
:103AF00003461A46FB88934214D97869FFF79EFF64
:103B000003461A467B8A13449BB202337B827B8A2C
:103B1000B3F5806F01D3002341E07B8A224A13442E
:103B20007B61DCE700BF7869FFF788FF03461A4630
:103B3000FB88D31A3B823B8A112B0BD87B6901335C
:103B40007A690132127802F07F02D2B21A707B6970
:103B5000023324E0FB8819467869FFF789FFFB8868
:103B600002337A691344FB60FB680133FA6801325F
:103B7000127862F07F02D2B21A703B8A023B9BB28B
:103B80001946F868FFF774FF7B6901337A690132DF
:103B9000127802F07F02D2B21A707B6902331846A3
:103BA0001837BD4680BD00BFE804002070B50F4E39
:103BB0000F4D761BB61018BF002405D0013455F800
:103BC000043B9847A642F9D10A4E0B4D00F0E0F9AC
:103BD000761BB61018BF002406D0013455F8043BFC
:103BE0009847A642F9D170BD70BD00BF8004002087
:103BF000800400208804002080040020844641EADC
:103C0000000313F0030349D1403A23D30B68036048
:103C10004B6843608B688360CB68C3600B6903614A
:103C20004B6943618B698361CB69C3610B6A036232
:103C30004B6A43628B6A8362CB6AC3620B6B03631A
:103C40004B6B43638B6B8363CB6BC36340304031FF
:103C5000403ADBD230320BD30B6803604B684360D1
:103C60008B688360CB68C36010301031103AF3D298
:103C70000C3205D351F8043B40F8043B043AF9D226
:103C8000043208D0D2071CBF11F8013B00F8013BF9
:103C900001D30B8803806046704700BF082A13D306
:103CA0008B07B1D010F00303AED0C3F10403D21AD6
:103CB000DB071CBF11F8013B00F8013BA4D331F82E
:103CC000023B20F8023B9FE7043AD9D3013A11F8AE
:103CD000013B00F8013BF9D20B7803704B7843703D
:103CE0008B7883706046704780EA010C1CF0030FEC
:103CF00037D110F0030C20F0030021F0030150F83D
:103D0000042B08BF51F8043B0ED08CF0030C6FF06D
:103D10007F434FEACC0C23FA0CFC51F8043B42EAF7
:103D20000C0243EA0C0300BFA2F1013C9A4201BF1E
:103D30002CEA020C1CF0803F50F8042B51F8043B95
:103D4000F2D04FEA02604FEA1222012828BFB0EBFE
:103D5000036F08BF1B0AF4D003F0FF03000EC01A64
:103D6000704710F0030F0AD010F8012B11F8013B37
:103D7000012A28BF9A42F4D0A2EB030070474DF805
:103D8000045D50F8042B01F0030521F0030151F804
:103D9000043B022D26D04DD822F07F45B5EB132FE2
:103DA000A2F1013C2CEA020C0DD11CF0803C08BFB2
:103DB00051F8043B0AD185EA0205B5EB036F0CD13B
:103DC00050F8042BE8E74FEA13235BE03CF07F4C0C
:103DD00054D10B784FEA126554E04FEA126503F0B4
:103DE000FF034FE04FEA0245A2F1013C4FEA1545BF
:103DF0002CEA020CB5EB134F18D11CF0803C08BF25
:103E000051F8043B07D185EA0205B5EB034F09D110
:103E100050F8042BE6E75FEA0C4C2FD10B884FEAF1
:103E200012452FE04FEA03434FEA12454FEA13438E
:103E300028E000BF02F0FF05B5EB136FA2F1013CD3
:103E40002CEA020C0DD11CF0803C08BF51F8043B59
:103E50000AD185EA0205B5EB032F0AD150F8042BED
:103E6000E8E74FEA13630DE012F0FF0F06D051F8B8
:103E7000043B4FEA122523F07F4303E04FF000009C
:103E800020BC704705F0FF0203F0FF00012828BFA7
:103E9000904204BF2D0A1B0AF4D0A2EB000020BC04
:103EA000704700BF024B13B1024800F005B87047DD
:103EB00000000000C53E0008002301461A461846CF
:103EC00000F014B838B5074D074C2C1BA41005D0D2
:103ED000013C55F8043D9847002CF9D1BDE8384025
:103EE00000F05CB88C040020880400202DE9F04725
:103EF000254C064625688846D5F84841924699469D
:103F0000C4B360681F2817DC411C76B104EB800342
:103F1000C3F888A0D4F88851012282401543022EAC
:103F2000C4F88851C3F808911ED0831C616000203A
:103F300044F82380BDE8F087144B03B34FF4C870F6
:103F4000AFF300800446D0B1D5F84831002784E8AB
:103F500088003846C5F848410121C4F88871C4F882
:103F60008C71002EE1D0D1E7D4F88C311A43C4F81B
:103F70008C21DAE705F5A674C5F84841C1E74FF092
:103F8000FF30BDE8F08700BF684A0008000000006D
:103F9000F8B500BFF8BC08BC9E467047F8B500BF36
:103FA000F8BC08BC9E4670470D0A0924242424242A
:103FB00024245C202424242424242424242424248D
:103FC0002424245C20202020200D0A0924242020E1
:103FD0005F5F24245C5C5F5F5F5F242420202424D7
:103FE00020205F5F24245C202020200D0A09242447
:103FF000207C20202424207C202020242420202FEA
:104000002424207C20202424207C2020200D0A0928
:104010002424242424242420207C20202424202020
:104020002F20242424242424245C207C2020200DE0
:104030000A09242420205F5F24243C2020242420FB
:10404000202F2020242420205F5F24245C20202097
:10405000200D0A092424207C20202424207C2424D0
:1040600020202F2020202424207C20202424207C79
:104070002020200D0A092424207C20202424202410
:10408000242424242424245C2424242424242420BC
:10409000207C2020200D0A095C5F5F7C20205C5F73
:1040A0005F5C5F5F5F5F5F5F5F5F5C5F5F5F5F5F26
:1040B0005F5F2F202020200D0A0D0A000D0A092421
:1040C000242424242424245C202424242424245C44
:1040D000202020200D0A095C5F5F5F5F24242020E0
:1040E000242420205F5F24245C20200D0A09202046
:1040F0002020242420202F2424202F20205C5F5FD8
:104100007C200D0A09202020242420202F20242474
:10411000207C242424245C20200D0A09202024242F
:1041200020202F20202424207C5C5F2424207C203D
:104130000D0A0920242420202F2020202424207C44
:1041400020202424207C200D0A0924242424242433
:1041500024245C2024242424242420207C200D0AD0
:1041600020095C5F5F5F5F5F5F5F5F7C5C5F5F5FDD
:104170005F5F5F2F20200D0A0D0A00000D0A092441
:10418000245C20202024245C202424242424245C57
:104190002024242424242424245C202020200D0AEC
:1041A000092424207C2020242420242420205F5F34
:1041B00024245C242420205F5F5F5F5F7C2020201C
:1041C0000D0A092424207C20202424202424202FAC
:1041D00020205C5F5F2424207C20202020202020C1
:1041E00020200D0A092424207C20202424205C2463
:1041F00024242424242024242424245C202020205B
:104200002020200D0A092424207C20202424207C26
:104210005C5F5F5F5F2424242420205F5F7C20207C
:10422000202020200D0A092424207C202024242062
:1042300024245C2020202424202424207C202020CE
:104240002020202020200D0A095C2424242424245A
:1042500020205C24242424242420202424242424F6
:104260002424245C202020200D0A09205C5F5F5F4D
:104270005F5F5F2F205C5F5F5F5F5F5F2F5C5F5FF3
:104280005F5F5F5F5F5F7C2020200D0A0000000001
:10429000554E4B4E4F574E2044455649434500001E
:1042A0000A0D202323232323232323232323232013
:1042B000B1E0D2EBCAB1BCE42028446563203139B7
:1042C0002032303136202D2031313A32373A3138F0
:1042D00029202023232323232323232323232320B1
:1042E0000000000025730000D3A6D3C3B3CCD0F2E6
:1042F000B2BBB4E6D4DAA3A1D0E8D2AAD6D8D0C251
:10430000C9D5D0B4B3CCD0F2A3A10A00B4EDCEF39A
:10431000A3A1D3A6D3C3C6F4B6AF20CAA7B0DCA36B
:10432000A10A0000D3A6D3C3B3CCD0F2BFAACABCA3
:10433000A1A30A0010000000000008000100000016
:10434000040000000100000004000000000200045E
:1043500000040008090A00000A0B0000070800001A
:1043600007080000800000010200000002000000B9
:1043700052544320B3F5CABCBBAFCAA7B0DC00009F
:104380000D0A20506F776572204F6E20526573655D
:1043900074206F636375727265642E2E2E2E0A0070
:1043A0000D0A2045787465726E616C2052657365E4
:1043B00074206F636375727265642E2E2E2E0A0050
:1043C0000D204E6F206E65656420746F20636F6EE4
:1043D000666967757265205254432E2E2E2E0A0090
:1043E0002D2D2D2D2D2D2D2D2D2D2D2D2D2D2D44E6
:1043F0006576696365496E666F2D2D2D2D2D2D2DEA
:104400002D2D2D2D2D2D2D2D2D2D0A002D2D4D41F8
:104410004320416464726573733A2000253032583A
:10442000000000000A0000002D2D534E3A202530D8
:1044300038640A002D2D5645522046573A20000078
:104440002D2D5645522053573A2000002D2D4E65F4
:1044500074576F726B2053657474696E67200A001D
:104460002D2D2D2D7C5F747970653A2025303478A0
:104470000A0000002D2D2D2D7C5F69646C653A20AB
:1044800025640A002D2D2D2D7C5F74783A2025643B
:104490000A0000002D2D2D2D7C5F68656172743A35
:1044A0002025640A000000004F4E00004F464600E1
:1044B0002D2D44454255473A2025730A000000003F
:1044C0002D2D495020416464726573733A200000B9
:1044D00025642E002D2D4D41534B2041646472659F
:1044E00073733A20000000002D2D47415445574179
:1044F0005920416464726573733A20002D2D544134
:104500005247455420416464726573733A20000039
:104510002D2D49502053454E4420504F52543A209F
:1045200025640A002D2D4950205245435620504FF6
:1045300052543A2025640A002D2D2D2D2D2D2D2D80
:104540002D2D2D2D2D2D2D446576696365496E66C3
:104550006F20454E442D2D2D2D2D2D2D2D2D2D2D06
:104560002D2D0A004E657453657474696E67204979
:10457000646C653D25640A004E6574536574746906
:104580006E672054783D25640A0000004E65745320
:10459000657474696E672048656172743D25640AAC
:1045A00000000000CDF8C2E7B2CECAFDC9E8D6C30C
:1045B000B3C9B9A6210A0000CFB5CDB3BCB4BDAB19
:1045C000D6D8C6F4A3A10A000A44454255473E0086
:1045D0002D7600000AB5F7CAD4C4A3CABDBFAAC6C7
:1045E000F42E0A002D6E00000AB5F7CAD4C4A3CA7F
:1045F000BDB9D8B1D52E0A002D7200000ABCB4BDD9
:10460000ABD6B4D0D0BBD6B8B4B3F6B3A7C9E8D64E
:10461000C3A3AC5BC8B7C8CF5DC7EBCAE4C8EB594E
:10462000A3ACC6E4CBFBB2BBD6B4D0D0A3A10A00E6
:104630005900000079000000D5FDD4DAD6B4D0D0FE
:10464000BBD6B8B4B3F6B3A7C9E8D6C3A1A30A00D2
:10465000B3F6B3A7C9E8D6C3B2D9D7F7C8A1CFFB81
:10466000A1A30A002D7100002D7500000ABFAACA7F
:10467000BCC6F4B6AF586D6F64656D20314BCFC2C8
:10468000D4D8C9FDBCB6B3CCD0F2A3ACC7EBCEF046
:10469000CAE4C8EBC8CEBACED7D6B7FBA3A1C9FD32
:1046A000BCB6B3C9B9A6BAF3BDABD7D4B6AFD4CBF9
:1046B000D0D0B3CCD0F2A1A30A000000B3CCD0F28A
:1046C000C9FDBCB6CAA7B0DCA3A10A00B3CCD0F226
:1046D000C9FDBCB6B3C9B9A6A3A1BCB4BDABD4CB0C
:1046E000D0D0D3A6D3C3B3CCD0F2A1A30A0000008C
:1046F0002D650000A3A1BEAFB8E6A3A1BCB4BDABBD
:10470000C7BFD6C6B2C1B3FDD3A6D3C3B3CCD0F214
:10471000A3A1A3ACC8B7C8CFC7EBCAE4C8EB59A3E1
:10472000ACC6E4CBFBB2BBD6B4D0D0A1A30A000088
:104730002D7000002D730000C9E8B1B8D0C5CFA21C
:10474000C9E8D6C3B9A6C4DCD4DDCAB1B2BBD6A70A
:10475000B3D60A002D6800002D7620B5F7CAD4C460
:10476000A3CABD0A2D6E20B9D8B1D5B5F7CAD4C435
:10477000A3CABD0A2D7220BBD6B8B4B3F6B3A7C97D
:10478000E8D6C30A2D7120CDCBB3F6444542554738
:104790000A2D7520CAB9D3C3586D6F64656D203179
:1047A0004BC9FDBCB6B3CCD0F20A2D6520C7BFD62D
:1047B000C6B2C1B3FDD3A6D3C3B3CCD0F20A2D7019
:1047C00020B4F2D3A1C9E8B1B8D0C5CFA20A2D73E5
:1047D00020C9E8D6C3C9E8B1B8D0C5CFA20A2D68B0
:1047E00020B4F2D3A1B0EFD6FAD0C5CFA20A000010
:1047F000CFB5CDB3C6F4B6AFD6D0A3ACC7EBB5C872
:10480000B4FD2564C3EB2E0ABCD3D4D8BDF8B6C81A
:10481000A3BA202000000000323332737461727436
:104820000000000008082532642500000808313027
:10483000300A00004A616E00466562004D617200F8
:10484000417072004D6179004A756E004A756C00C6
:1048500041756700536570004F6374004E6F7600BA
:1048600044656300446563203139203230313600BD
:104870002564256425640A004D443520D0A3D1E980
:10488000B3C9B9A6A3A10A000ACEDED0A7CEC4BC84
:10489000FEA3A10A000000000ABBF1C8A1B5BDCE6D
:1048A000C4BCFEB3A4B6C8A3BA25642CB0E6B1BE9E
:1048B000BAC53A20000000000A0D204E4D495F485D
:1048C000616E646C657220000A0D20486172644656
:1048D00061756C745F48616E646C657220000000E5
:1048E0000A0D204D656D4D616E6167655F48616EB3
:1048F000646C6572200000000A0D204275734661E9
:10490000756C745F48616E646C6572200000000015
:104910000A0D2055736167654661756C745F486167
:104920006E646C657220000001060B00050A0F041E
:10493000090E03080D02070C05080B0E0104070AF7
:104940000D000306090C0F0200070E050C030A01F7
:10495000080F060D040B0209070C111605090E14A9
:10496000040B1017060A0F1578A46AD756B7C7E8C4
:10497000DB702024EECEBDC1AF0F7CF52AC6874781
:10498000134630A8019546FDD8988069AFF7448B4F
:10499000B15BFFFFBED75C892211906B937198FDCC
:1049A0008E4379A62108B44962251EF640B340C063
:1049B000515A5E26AAC7B6E95D102FD65314440299
:1049C00081E6A1D8C8FBD3E7E6CDE121D60737C3FE
:1049D000870DD5F4ED145A4505E9E3A9F8A3EFFCDA
:1049E000D9026F678A4C2A8D4239FAFF81F67187A6
:1049F00022619D6D0C38E5FD44EABEA4A9CFDE4BD3
:104A0000604BBBF670BCBFBEC67E9B28FA27A1EAEE
:104A10008530EFD4051D880439D0D4D9E599DBE67B
:104A2000F87CA21F6556ACC4442229F497FF2A43A0
:104A3000A72394AB39A093FCC3595B6592CC0C8F30
:104A40007DF4EFFFD15D84854F7EA86FE0E62CFEFC
:104A5000144301A3A111084E827E53F735F23ABDEB
:0C4A6000BBD2D72A91D386EB580000206F
:104A6C000100000000100140004C0040000002401A
:104A7C00000802400000024000080240000402400E
:104A8C00000402400300000001010000000E270793
:104A9C0000000000000000000102030406070809E2
:104AAC0000000000010203040102030406070809C8
:104ABC000100000000000000000000004403002082
:104ACC00AC030020140400200000000000000000D3
:104ADC0000000000000000000000000000000000CA
:104AEC0000000000000000000000000000000000BA
:104AFC0000000000000000000000000000000000AA
:104B0C000000000000000000000000000000000099
:104B1C000000000000000000000000000000000089
:104B2C000000000000000000000000000000000079
:104B3C000000000000000000000000000000000069
:104B4C000000000000000000000000000000000059
:104B5C000000000000000000000000000000000049
:104B6C0001000000000000000E33CDAB34126DE6E6
:104B7C00ECDE05000B00000000000000000000004F
:104B8C000000000000000000000000000000000019
:104B9C000000000000000000000000000000000009
:104BAC0000000000000000000000000000000000F9
:104BBC0000000000000000000000000000000000E9
:104EEC00A53E0008A901000885010008000000008B
:0400000508000000EF
:00000001FF
