:020000040802F0
:100000000000022089130208115002082150020842
:10001000315002084150020851500208000000000F
:100020000000000000000000000000006150020815
:100030006550020800000000695002084D0E0208D9
:10004000D9130208D9130208A13B0208D9130208E8
:10005000D9130208D9130208D9130208D9130208C8
:10006000D9130208D9130208D9130208D9130208B8
:10007000D9130208D9130208D9130208D9130208A8
:10008000D9130208D9130208D9130208D913020898
:10009000D9130208D9130208D9130208BD6C02084B
:1000A000D9130208D9130208D9130208D913020878
:1000B000B53A0208D9130208D9130208D913020865
:1000C000D9130208D9130208D9130208D913020858
:1000D000D9130208D9130208D9130208D913020848
:1000E000D9130208B93B0208D9130208D913020830
:1000F000D9130208D9130208D9130208D913020828
:10010000D9130208D9130208D9130208D913020817
:10011000D9130208D9130208D9130208D913020807
:10012000D9130208D9130208D9130208D9130208F7
:10013000D91302085D520208D9130208D913020824
:10014000D9130208D9130208D9130208D9130208D7
:10015000D9130208D9130208D9130208D9130208C7
:10016000D9130208D9130208D9130208D9130208B7
:10017000D9130208D9130208D9130208000000009D
:10018000D913020810B5054C237833B9044B13B1C9
:100190000448AFF300800123237010BDC804002081
:1001A000000000008CA90208084B10B51BB10849DB
:1001B0000848AFF300800848036803B910BD074B37
:1001C000002BFBD0BDE81040184700BF0000000026
:1001D000CC0400208CA90208C40400200000000008
:1001E00084B0019000230393019B0393039B2BB1E5
:1001F000039B013B0393039B002BF9D104B0704791
:1002000008B501214FF0007006F0B0FB00214FF05F
:10021000007006F0ABFB08BD0123036000234360C0
:100220008360C36003614FF4804242618361C361B4
:100230004FF40062026243628362C36203634363FA
:100240008363C36340220264202242648364C364E4
:10025000036543658365C3650366802242668366E2
:10026000C366036743678367C3674FF08062C0F864
:1002700080204FF00072C0F88420C0F888304FF41E
:100280000011C0F88C10C0F89030C0F89430C0F85D
:100290009830C0F89C30C0F8A030C0F8A4204FF4CB
:1002A0008032C0F8A8204FF48002C0F8AC204FF490
:1002B0000052C0F8B020C0F8B430C0F8B830704771
:1002C00028B1064A136843F0080313607047034AD5
:1002D000136823F008031360704700BF00800240DA
:1002E00028B1064A136843F0040313607047034AB9
:1002F000136823F004031360704700BF00800240BE
:100300004A790B7943EA0223074A8350CA788B78EB
:100310001B0443EA02630A7813434A7843EA022340
:10032000024A8350704700BF408002404480024030
:1003300030B40B4B1A681368C3F30D43043B0949EF
:1003400009688C68012C86BF09688D689568D46837
:1003500003490C6003604560826030BC704700BF99
:100360002C7A002060860020394B1B681A68002A0E
:1003700062DBF0B540F2F45290420FD9354AA2FB4D
:100380000012920A94B240F2F45101FB120292B2AE
:1003900002B10134012C01D08CB939E01A6842F065
:1003A00040521A602A4B1A68C0F30C005060116862
:1003B00041F0004111601A68D2681A602AE000F228
:1003C000F450254E06FB0400C0F30C060022204F1B
:1003D00040F2F455601E5AB9D7F800E0DEF800107C
:1003E00041F08051CEF800105D60824228D102E0D9
:1003F0005D60904204D1196841F0005119605E605F
:10040000196841F000411960DB6801329442E2D181
:100410000F4A136041F21403104AD35813F0040F2B
:100420000CD01346042141F214029950002141F2EC
:10043000040299500120F0BD002070470120F0BD5A
:10044000196841F000411960DB680132C3E700BF61
:10045000307A00200BB002AC0CFAFFFF00800240A3
:10046000F0B58446124B1860C2B114468646034666
:1004700000224FF0004744F2F456651E1F605E6094
:100480009960954286BF03F12000D860C3F80CE064
:100490000132203301F2F4519442EFD141F20C03C6
:1004A000044A42F803C0044A044B1A60F0BD00BF7E
:1004B0002C7A002000800240207A002060860020F4
:1004C000204B1B681A68002A0BDB1A6812F4807F25
:1004D00007D01D4A1268536093680133936001206E
:1004E00070471A68002A14DB1A6812F4007F10D0D3
:1004F000186810F480700CD1134A11680B601368EF
:1005000000225A6001229A600E4B1A68D2681A6063
:1005100070471A68002A11DB186810F400700FD1B8
:100520001A6812F480720CD1074908688168013199
:100530008160D968034B19601046704700207047EE
:10054000002070472C7A002060860020F0B5864697
:100550000E4B18609AB11446034600224FF48016E1
:10056000651E1E609960954286BF03F12007DF601B
:10057000D8600132203301F2F4519442F1D141F2BA
:100580001003034A42F803E0F0BD00BF307A0020B8
:10059000008002400368194301607047024A1368F3
:1005A00043F001031360704700900240024B18684B
:1005B00000F00100704700BF0090024031B1074ACF
:1005C00041F21C03D1580843D0507047034941F20F
:1005D0001C028B5823EA00008850704700800240BC
:1005E00041F21403014AD050704700BF008002401E
:1005F000034941F218028B5843F480138B50704723
:100600000080024038B1084941F218028B5843F487
:1006100000538B507047044941F218028B5823F461
:1006200000538B50704700BF0080024038B108492A
:1006300041F218028B5843F002038B507047044973
:1006400041F218028B5823F002038B50704700BF11
:100650000080024008B50120FFF732FEFFF7C8FF17
:100660000120FFF73DFE0120FFF7CCFF0120FFF73F
:10067000DDFF08BD82B000230193114A136989018F
:1006800001F4F86103F01C030B43C00280B2034382
:1006900043F0010313610B49019B0133019313697B
:1006A00013F0010F02D0019B8B42F5D9019A064B42
:1006B0009A421DBF024B586980B2002002B07047B9
:1006C00000800240FEFF0400FFFF040010B483B06E
:1006D00000230193114C236903F01C0343F003032F
:1006E000890101F4F8611943C00280B201436261DB
:1006F000216122460A49019B01330193136913F0DA
:10070000010F02D0019B8B42F5D90198054BC01A0D
:1007100018BF012003B010BC704700BF008002402A
:10072000FEFF0400FFFF0400F0B587B005460C464D
:10073000002305930093904B1E6926F01C0601A828
:1007400006F08AF8029A8D4B13448D498B4202D8E9
:1007500046F008060EE08B4B13448B498B4202D8BF
:1007600046F00C0606E0894B1344894A934288BF41
:1007700046F00406804B1E614FF4004200212046E3
:10078000FFF7A4FF0346002800F0F2808148FFF73E
:1007900027FD2B68002B4FD001267F4F009B013394
:1007A000009331462046FFF765FF00F0040080B259
:1007B00010B9009BBB42F1D9009A784B9A4200F0E5
:1007C000D480002100914FF480522046FFF77EFF35
:1007D0000346002800F0CC8001266F4F009B0133B8
:1007E000009331462046FFF745FF00F0200080B21D
:1007F00010B9009BBB42F1D9009A684B9A4200F0B5
:10080000B6800023009310212046FFF733FF00F04D
:1008100004039BB21BB14FF400632B6201E0002381
:100820002B6200F0020080B210B100236B6115E072
:100830004FF480436B6111E02A6A6B695B0843EAFD
:10084000D20292B200212046FFF740FF0346002863
:1008500000F08E806FF07F40FFF7C2FC464B1968B6
:100860004F4A0A406868A9680843E968084329694B
:10087000084369690843A9690843E9690843296A83
:100880000843696A0843A96A0843E96A0843296B6F
:100890000843696B01430A431A60A96BEA6B114371
:1008A0002A6C11436A6C1143AA6C1143EA6C114320
:1008B0002A6D11436A6D0A435A60AA6D9A60EA6D07
:1008C000DA609969686EAA6E1043EA6E10432A6F67
:1008D00010436A6F10434FF641720A400243296E7B
:1008E00042EA01429A61A96FEA6F0A43DA6141F272
:1008F000180419592B4A0A40D5F88000D5F88410FD
:100900000843D5F888100843D5F88C100843D5F86B
:1009100090100843D5F894100843D5F89810084370
:10092000D5F89C100843D5F8A01001430A431A518A
:10093000D5F8A410D5F8A8200A4342F40002D5F84F
:10094000AC100A43D5F8B0101143D5F8B8200A43CB
:10095000D5F8B41042EA810203F580531A601A6890
:1009600042F080021A60012302E0002300E000232D
:10097000184607B0F0BD00BF0080024000D3CEFE95
:10098000BFE1E40040F1E9FD3F787D0100796CFCB6
:10099000FF596202FFFF0F00FEFF0400FFFF04008B
:1009A0000F8120FF233FDEF810B40B4B23F003032D
:1009B0000A49C1F824364FF42050188000225A808A
:1009C0001A711A18C1F82826012414711080508059
:1009D000C1F82C3610BC7047E7040020D426002054
:1009E000002847D00346244AD2F82426904241D317
:1009F0002149D1F8280683423CD270B4A3F1080102
:100A0000002403F8044C1C4CD4F82C46A1423CBFF3
:100A1000194CC4F82C1633F8085C5419A14212D0B2
:100A2000267986B9A0420ED01348D0F82C0684420D
:100A300004BF1148C0F82C16505B23F8080C505B1B
:100A400010448C1A448033F8060C1418A14210D0BC
:100A5000257975B9084DD5F82C56A94204BF064929
:100A6000C1F82C4633F8081C115233F8083C1A44DC
:100A7000508070BC704700BFD426002003314FF671
:100A8000FC730B400B2B03D9B3F5205F01D957E062
:100A90000C232E4AD2F82426824255D82B49D1F86D
:100AA0002816884250D2F0B4A0F10804A41AA4B2C7
:100AB00030F8085CA5F10801091B89B2994241D3BD
:100AC00041D056193779DFB9555B04F108010B4461
:100AD0009BB21E49D1F82C168E4203D1D1181B4E61
:100AE000C6F82C16D11800260E71D5524C8020F86D
:100AF000083CD15AB1F5205F25D00A44538022E04A
:100B000003F114058D421ED804F108010B449BB279
:100B1000D1180E4DD5F82C56A9423CBF0B4DC5F847
:100B20002C1600250D7130F8085CD5524C8020F849
:100B3000083CD15AB1F5205F05D00A44538002E049
:100B4000002070470020F0BC704700BFD426002072
:100B500000285DD0F0B4034603334FF6FC741C400C
:100B60000B2C03D9B4F5205F01D953E00C242C4B96
:100B7000D3F82416D3F82C365B1A9BB2C4F5205553
:100B8000AB4249DA2646C8180279002A3BD1CA5A34
:100B9000083AD21A3746A24235D31437BA4213D391
:100BA00004F108021A4492B28C18002525710588B8
:100BB0008D5263800280012303718B5AB3F5205F4D
:100BC00004D00B445A8001E001230371144BD3F885
:100BD0002C36984215D11A799AB1114AD2F82816B2
:100BE0008B420ED0D2F824461B8823441A791AB9B6
:100BF0000B4AC2F82C3604E08B42F5D1084BC3F8FF
:100C00002C16083009E00388AB42BCDB002004E06E
:100C100000207047002000E00020F0BC704700BFBB
:100C2000D42600202DE9F04182B00121022005F0F8
:100C300065FE0121084605F061FE01214FF4805058
:100C400005F086FE244D05221146284605F03CFDA0
:100C500005220621284605F037FDDFF888800522A9
:100C60001146404605F030FD2026009602238DF8FF
:100C7000043003238DF8053000248DF80640012749
:100C80008DF807706946284605F0CCFC4023009398
:100C90006946284605F0C6FC00966946404605F0C0
:100CA000C1FC0E490C804FF482734B808C80CC8049
:100CB0000C814FF400734B818E81CC8107230B8212
:100CC000074C204601F046FD3946204601F062FD02
:100CD00002B0BDE8F08100BF00000240042D0020FA
:100CE000003001400004024010B50446238903F09F
:100CF00002039BB2002BF9D0204601F05DFD238951
:100D000013F0010FFBD0204601F052FDC0B210BD20
:100D100070B521F008039BB22BB1102B03D0202B10
:100D200001D0302B0DD1134B98420DD0A3F5784351
:100D300098420BD003F58063984209D04FF0FF3002
:100D400070BD4FF0FF3070BD0B4E02E00B4E00E067
:100D50000B4E0D460446002101F01CFDB5813146C5
:100D6000204601F0F7FC0121204601F013FD002090
:100D700070BD00BF00300140042D0020162D002062
:100D8000282D002001807047008880B2704700BF86
:100D9000024A136801331360704700BF3C2D0020E6
:100DA000094B1A68094B9A4204D1094BA3FB003046
:100DB000800970474FF47A7303FB00F0054BA3FBE7
:100DC0000030C00B704700BF60000020000E2707F6
:100DD0008988888873B2E74510B5074B9868074B38
:100DE0001C68C0F5EA30C030FFF7DAFF4FF47A73C1
:100DF00003FB040010BD00BF10E000E03C2D00200C
:100E0000014B1868704700BF3C2D0020064B074A75
:100E10005A60F021064A82F8231000229A600721C6
:100E20001960044B1A60704710E000E0BFD4010065
:100E300000ED00E03C2D0020034B1B681844024AE3
:100E400013689842FCD870473C2D002008B5FFF786
:100E50009FFF08BDF0B40146466A058DAA19C46A11
:100E6000038F40F66830834288BF0346101BC31AC5
:100E7000002B01DB4D8509E0331B002B03DD002334
:100E80004B85184602E0A41B4C850020F0BC70473F
:100E900010B50446038D194489B241F2D0639942DA
:100EA00092BF018541F2D0630385FFF7D3FF40F283
:100EB000B353984208DD94F8223043F0020384F8DB
:100EC0002230204608F04CFE10BD00BF38B560B19E
:100ED0000446406818B105F033F9054600E00025E6
:100EE0002146042001F0BAFC00E00025284638BD68
:100EF00038B558B1034600241D681846FFF7E6FFD1
:100F00002044C4B22B46002DF6D100E00024204638
:100F100038BD00BF037C012B13D90A2B11D010B5AB
:100F20000446C06F18B105F00BF90023E367606F4A
:100F3000FFF7DEFFA06FFFF7DBFF00236367A36708
:100F400010BD704710B50C4602688A4202D1D368C2
:100F5000036016E0174B1A609AB1D36899420BD11F
:100F600005E0DA68944206D1124A136000E01346A5
:100F7000E268DA6005E01346002BF2D100220D4B47
:100F80001A600023E3602046FFF7C4FF237C0A2B8E
:100F90000DD0012B0BD094F8223013F0010F06D0A6
:100FA00043F0020384F82230204608F0D9FD0023E4
:100FB000237410BD9892002010B50446037C072BC3
:100FC00059D8DFE803F00429323B4358584B2E4BE5
:100FD0001A68904202D1C2681A6016E02B4B1A6060
:100FE0009AB1D36898420BD105E0DA68944206D1F1
:100FF000264A136000E01346E268DA6005E0134613
:10100000002BF2D10022214B1A600023E36021461D
:10101000022001F023FC30E001461D48FFF792FF5B
:101020002146032001F01AFC27E001461948FFF78A
:1010300089FF2146022001F011FC1EE0012108F089
:1010400055FD0346F0B90523237418E0012108F08B
:101050004DFD0346B0B90523237410E0012108F0CB
:1010600045FD034670B90923237408E0204608F0C3
:1010700077FD002306E0002304E0002302E0002CBB
:10108000F4D10023184610BD9C92002098920020B5
:10109000949200208C92002010B5084642B114466C
:1010A0001189FFF7F5FE204605F04AF8002010BD33
:1010B00013B9FFF781FF10BD002010BD2DE9F04FDF
:1010C00085B00446037C0A2B08D101462048FFF76F
:1010D00039FF2146022001F0C1FB36E00E46D0F870
:1010E0005880D0F8249008B1036800E000230293F0
:1010F00014F1040F14BF636800230393B4F818A01D
:10110000B4F820B0D4F89050676921461148FFF731
:1011100019FFA06F08B1FFF7EBFE606F08B1FFF792
:10112000E7FE2146022001F099FB1DB16FF004019A
:101130003846A8474EB1CDF804B0CDF800A003ABB7
:1011400002AA4946404608F057FE05B0BDE8F08FB8
:10115000A09200208C920020034A5068034B1B6829
:1011600018445060704700BF00000020909200209B
:10117000F8B50546022001F05BFB0446002837D194
:10118000384B1B687BB1384A146801461A6BA21AA7
:101190008A4224BF11461846DB68002BF6D110B1F5
:1011A0000121FFF78BFF022001F042FB0446F8B952
:1011B0002E4B1B68B3B12C4A176806467F245A7C15
:1011C000954208D3A24206D8196B791AB14202D3CC
:1011D00014460E461846DB68002BF0D110B10121F1
:1011E000FFF76CFF022001F023FB0446002837D0F4
:1011F000A0220021204608F075FF4023637441F6C9
:101200008443A4F86E300025A4F8705041F2D063F6
:1012100023856385A572FF23E3724FF4067323874A
:101220000623A4F84830A4F84450A4F846304FF6FA
:10123000FF73E3860123A4F85230FFF78DFF606649
:10124000A065E064A066084B1B68236384F83450F3
:10125000074BC4F88430074BC4F8943084F89D5091
:101260002046F8BDA0920020909200208C92002091
:101270009910020800DD6D0010B50446084606F01E
:1012800071F830B1838C23B1283B9BB29C4228BFBC
:101290001C46204610BD00BF30B585B004460D4643
:1012A000038A9BB223F44053CA8813430382838981
:1012B0009BB223F4B05323F00C0289882B890B4393
:1012C00069890B439BB213438381838A9BB223F4C6
:1012D0004073AA8913438382684605F0BDFA1C4B0C
:1012E0009C4203D003F580639C4201D1039B00E044
:1012F000029BA28912F4004F03EB830303EB8303E9
:10130000296814BF49008900B3FBF1F1114BA3FB1D
:10131000012358090501642300FB1313A28912F469
:10132000004F09D0D90032310A4AA2FB0131C1F382
:10133000421242EA050307E01B013233054AA2FBD1
:101340000323C3F343132B439BB2238105B030BD6A
:10135000001001401F85EB5129B183899BB243F4F2
:10136000005383817047838923F400531B041B0CB3
:1013700083817047C1F30801818070470388194257
:1013800014BF012000207047DFF834D0002103E0B3
:101390000C4B5B58435004310B480C4B42189A429B
:1013A000F6D30B4A02E0002342F8043B094B9A4271
:1013B000F9D305F09DF908F0F7FD02F071FA7047D6
:1013C000000002208CA9020800000020C8040020B0
:1013D000C8040020C0970020FEE7000010B502F00E
:1013E0005FFC044690F8300094F831301B0443EA67
:1013F000006394F83300034394F8320043EA00207A
:1014000005F076F8034B1860A28E9A80E28EDA809F
:1014100010BD00BF402D002008B5034A938805F099
:1014200079FFC0B208BD00BF402D002052080FD088
:1014300070B58C1E851E561EB6B201EB460634F8FA
:10144000020F05F04FF825F8020FB442F7D170BD36
:10145000704700BF2DE9F04190B018680F90002A46
:101460003AD014460D465389082B0BD108226168E7
:1014700001A8FFF7DBFF01A802F04AFC10B101222E
:10148000174B1A706389142B1CD101A802F0F2FBD0
:1014900067686689043E324639460AA808F0ACFD02
:1014A00007EB0608B85B05F01DF8ADF83800B8F892
:1014B000020005F017F8ADF83A0001A802F0D4FBDD
:1014C00002F0BCFCBDF858300FAA2146284605F0B2
:1014D00021FF204604F034FE10B0BDE8F08100BFCB
:1014E000E193002010B5FFF779FF05F02DFF064CC2
:1014F000A060E288054905F06FFE00220449A0685B
:1015000005F01EFF10BD00BF402D0020E4A402081E
:1015100055140208014B9868704700BF402D002009
:10152000F8B50546214B1C68A08904F0DBFFC0F329
:101530000F30052838D91D4B1B68988904F0D2FF5D
:10154000000B0538800080B270B304F11402002350
:1015500040F2B35740F2B4561C46D15C012903D087
:1015600011B3022903D018E001339BB21AE0D1185D
:101570004978042918D1191D814215DC144494F8C6
:1015800002E0E17841EA0E214C1EA4B2BC4288BFC1
:101590003146298704339BB204E01444617819B1C1
:1015A0000B449BB28342D7D3F8BD00BF4C2D002023
:1015B0002DE9F0410446924B1B7913F0100F00F017
:1015C0006481B0F85C50406E226E8D4B9B68D11ADE
:1015D00000290FDB9A4204D1894AD268821A002A74
:1015E00008DB874AD268904214D1854A1268D289B2
:1015F000AA420FD9824A1168C9898EB2A4F85C1038
:101600002366D36863662EB194F89C3013B100232F
:1016100084F89C307A4BDA68E36CD11A002937DC05
:101620000021A4F86C107649098A002940F0228232
:101630002844B4F85C50616E2944884240F01A8214
:10164000B4F936100029C0F215829A4240F0128295
:1016500094F850305A1C9342BCBF134684F8503063
:1016600094F85030032B09D9B4F85220238F134437
:101670009BB29A4207D2A4F8523004E0032B02D165
:10168000204608F02FFC636F002B40F0BB80D5E0B4
:10169000012900F18D80A16D511A002900F3888085
:1016A00094F8221011F0040F07D021F0040184F8FF
:1016B0002210B4F85410A4F85210002084F84A0004
:1016C000B4F94450B4F8461001EBE501A4F8481011
:1016D000D31A9BB2A4F86C30B4F86E100B44A4F883
:1016E0006E3084F85000E264237C032B18D9B4F8E0
:1016F0005220B4F85430934207D9238F13449BB23D
:101700009A420DD2A4F852300AE0238F03FB03F370
:1017100093FBF2F313449BB29A4238BFA4F85230C1
:10172000A36F1BBB3AE0A56F2B68A367686804F042
:10173000FDFDB4F86C305BB12B69988904F0D2FEE2
:1017400010F0010F04D0B4F86C30013BA4F86C30F9
:10175000686804F0EBFDB4F87030181AA4F8700053
:101760002846FFF7B3FBA36F0BB917E0244F1B69A3
:10177000586804F0C9FE0546A36F9E891B699889C5
:1017800004F0B0FE10F0030018BF01200644FB680F
:10179000ED1A3544002DC6DDA36F1BB94FF6FF735C
:1017A000E38601E00023E386002384F834306AE70F
:1017B0000023A4F86C3066E7656F2B686367686880
:1017C00004F0B4FDB4F86C305BB12B69988904F077
:1017D00089FE10F0010F04D0B4F86C30013BA4F87E
:1017E0006C30686804F0A2FDB4F87030181AA4F8E0
:1017F00070002846FFF76AFB636F23B91EE000BF45
:101800004C2D00209E4FFD681B69586804F07CFE3B
:101810008046636F9E891B69988904F063FEC8EB5C
:10182000050510F0030018BF01200644AD1B002D74
:1018300004DBFB68A26D9B1A002BBDDDE36B23B3B9
:10184000226C8F49C968521A002A1EDAB4F9441072
:101850008C4A1268D21AA2EBE10292B213B211447E
:1018600009B2A4F84410002BBCBF524213B2B4F921
:101870004620A2EBA20213449BB2A4F8463003EB2D
:10188000E103A4F848300023E3637D4B1B8A002B5F
:1018900000F0D980626A7A498968561A012E2DD4DF
:1018A000501C401AC31A002B28DC3346744A956931
:1018B0006A89964210DD2989891B89B200209B1A0A
:1018C000298168812D686A899A42F8DB594209B2F8
:1018D000284604F0F9FB04E0714209B2284604F0FE
:1018E000F3FB674B6A68DA61616A98681A8C024494
:1018F000521A1A845A6A996051600BE08B1A002BB5
:101900000FDA94F8223043F0020384F822302046A4
:1019100008F026F95A4B9968626A8B1A002BC0F2BC
:101920008D80238DC3F101030B449B1A002B00F320
:10193000858091427DD1524D2E8C6B6A988904F03E
:10194000D1FD10F0030018BF012033189BB22B8289
:10195000228D9A4237D26B6A988904F0C3FD10F049
:10196000010F11D02E466B6A9D894FF6C07004F0AE
:10197000B3FD0540766AB08904F0B4FD00F03E0086
:1019800004F0AAFD2843B0813D4B228D1A845B6A86
:10199000988904F0A7FD00F0020083B21BB1384A19
:1019A000138C013B1384364D298CA86904F092FCFA
:1019B0002E8C6B6A988904F095FD10F0030018BF17
:1019C0000120304428822E4D298AAA680A44626286
:1019D000238D5B1A23852046FFF73CFAAB691A89F1
:1019E00012B1AB620023AB61254B5B6A988904F0AE
:1019F00079FD10F0010F06D0214A92F82C3043F007
:101A0000200382F82C3094F8223013F0010F0AD012
:101A100023F0010343F0020384F82230204608F04B
:101A20009FF8BDE8F08143F0010384F82230BDE85F
:101A3000F081204608F068F8BDE8F081204608F003
:101A400063F8BDE8F0810E4B9B68626A991A002921
:101A500005DB01339B1A228D9B1A002B0EDD94F8B7
:101A6000223043F0020384F82230204608F078F850
:101A7000BDE8F081002384F8503004E6BDE8F08131
:101A80004C2D0020909200202DE9F04182B00546B7
:101A90000F464468934E3463208804F023FDC0F35E
:101AA000032004EB80043460336B188804F01AFDC3
:101AB000C0F3032081004942284604F005FB10B919
:101AC0002B89132B04D8284604F03AFB00F05CBCA9
:101AD000844B186B3946103001F0BEFD68B9814B5C
:101AE0001B6B1C694FF0704004F00EFD04404FF07A
:101AF000604004F009FD844204D1284604F020FB34
:101B000000F042BC774B1B68988904F0EBFC000B9B
:101B1000C0EB8030810009B2284604F0D5FA20B12C
:101B2000284604F00DFB00F02FBC6E4C2668308870
:101B300004F0D8FC30802668708804F0D3FC7080F4
:101B40002668706804F0E0FC7060A0602668B068E9
:101B500004F0DAFCB060E0602668F08904F0C2FCB2
:101B6000F0812368988904F0BDFCC0B200F03F0307
:101B7000237110F0030118BF01212B89194489B288
:101B80002182594BD3F800C0BCF1000F29D027683F
:101B90003E88D4F830E06446002200E01C46238CE6
:101BA000B34216D1B4F818807B88984511D1DEF87D
:101BB0000C80636843450CD1DEF8108023684345F0
:101BC00007D15AB1E368D360C4F80CC0464B1C601F
:101BD00004E0E3682246002BE0D102E0002C40F054
:101BE0009683424B1B68002B47D03E4C22681688D8
:101BF000D4F830E01C8CB4423CD11C8B5788A742EF
:101C000038D1DEF80CC05F68674533D1DEF810C00C
:101C10001F6867452ED110F0040F27D110F0020F76
:101C200014D0304A90685A6A821A15D41F8DD21B7C
:101C3000002A11DC019600940EF10C030EF1100243
:101C400001442848C06808F0D7F80FE010F0010FF1
:101C500002D0274A12681A6341B193F8222042F059
:101C6000020283F82220184607F07AFF284604F083
:101C700067FA89E3DB68002BBCD11E4BD3F800C0A8
:101C8000BCF1000F00F05483164BD3F830E01A6813
:101C90006446002700E01C462CB123681BB1DEF827
:101CA0001060B3427DD1268B53889E4279D12FB1EB
:101CB000E368FB60C4F80CC00E4B1C6010F0100F02
:101CC0001AD0084B9C68D8681388019353880093F6
:101CD0000EF10C030EF110022144013008F08CF8D3
:101CE0005BE000BF4C2D00208C920020A0920020D1
:101CF000909200209492002010F0020F4DD0607C52
:101D0000FFF736FA0646002847D0AE4B1B6B13F19F
:101D1000100F14BF1A6900220260228B028313F194
:101D20000C0F14BFDB6800234360A64B1A681188B0
:101D30000184032101749B68591C4162C162D289EC
:101D4000A0F85C20A0F85420013B0366636943615E
:101D5000E369C361238923F47E4323F0660303818F
:101D6000994B1A68C2601860FFF7DAFB311D308F9B
:101D7000FFF782FA3087012301930021009112239B
:101D80000A46304607F0CAFC20B100213046FFF772
:101D900095F902E0304607F0E3FE284604F0D0F95A
:101DA000F2E2E3682746002B7FF475AFC0E2D4F877
:101DB000846026B1002321466069B04704E0002317
:101DC00021461846FFF768F910B90023E36703E0DE
:101DD000284604F0B5F9D7E27C4B1C60794B1B799F
:101DE00013F0040F27D0237C022B07D1A36D754A73
:101DF000D268934214BF002301230BE0714B9B6810
:101E0000626A9B1A00F1F881228D9B1A002BCCBFCD
:101E100000230123002B00F0EF816A4A92F82C3056
:101E200043F0080382F82C3094F8223023F00103A9
:101E300084F82230E0E113F0020F00F08482237C6A
:101E4000023BDBB2012B40F27E8294F8223043F059
:101E5000020384F82230204607F082FECCE1594B81
:101E60001B7903F01203122B52D1A36F1B69586820
:101E700004F04AFB0130534BDB68984248D1B4F878
:101E80006E300133A4F86E304E4A9368591C61627B
:101E9000E162E0641268D289A4F85C20013B236609
:101EA00004232374E118208FFFF7E6F9208700EB65
:101EB00080035B00A4F85430B4F85230012B04BF07
:101EC000400080B2A4F85200B4F87030013BA4F88E
:101ED0007030A06F0368A3671BB94FF6FF73E386EA
:101EE00003E00023E38684F84A30FEF7EFFFD4F8DE
:101EF00088301BB1002221466069984794F822304F
:101F000043F0020384F82230204607F029FE73E1F3
:101F10002C4B1B7913F0100F00F06E812948026BD7
:101F20000368058A81681E8801965B88009302F128
:101F30000C0310322944C06807F05EFF5CE1214BBE
:101F40001B7913F0100F53D01E4BD868E36CDB43A2
:101F5000C3423DD4A36DC31A002B39DC0423237480
:101F6000E3694BB1002221466069984720B1012105
:101F70002046FFF7A3F8A9E1B4F852502046FFF736
:101F800017FBB4F86C3013B1013BA4F86C30012D91
:101F9000238F04BF5B009BB2A4F85230094B93F827
:101FA0002C3013F0200F00F0278194F8223043F0FA
:101FB000020384F82230204607F0D2FD0723237461
:101FC0001AE100BF4C2D00208C920020A49200202A
:101FD0009A4B1A6B1D681E8A99682B8801936B882F
:101FE000009302F10C031032314407F005FF03E1C6
:101FF00013F0020F00F00081636A013B8F4A926880
:10200000934240F0F980204607F046FFF4E0204676
:10201000FFF7CEFA894B93F82C3013F0200F00F025
:10202000EB8094F8223043F0020384F822302046FB
:1020300007F096FD07232374DEE02046FFF7B8FA89
:102040007E4B93F82C3013F0200F45D07B4B1B793F
:1020500013F0100F34D0A26D784BDB689A422FD169
:1020600094F8223043F0020384F82230204607F02F
:1020700077FD2046FEF74EFF714B1B689C4203D153
:10208000E2686F4B1A6014E06E4A13608BB1DA6835
:1020900094420AD105E0D3689C4205D1694B1A608D
:1020A0001346E268DA6004E01A46002AF3D1654B71
:1020B0001A600A232374644B1A68E2601C609BE078
:1020C00094F8223043F0020384F82230204607F0CF
:1020D00047FD082323748FE0584B1B7913F0100F32
:1020E00000F08A80A26D554BDB689A4240F08480F4
:1020F0000623237480E02046FFF75AFA4F4B93F8EB
:102100002C3013F0200F77D094F8223043F00203E4
:1021100084F82230204607F023FD2046FEF7FAFE21
:10212000474B1A68944202D1E2681A6015E0454BA9
:102130001A6092B1D3689C420AD105E0DA689442F1
:1021400005D1404A13601A46E368D36005E01346A0
:10215000002BF3D100223B4B1A600A2323743A4B25
:102160001A68E2601C6047E02046FFF721FA334B13
:102170001B7913F0100F3FD0A26D304BDB689A42F1
:102180003AD12046FEF7C6FE2D4B1B689C4203D178
:10219000E2682B4B1A6014E02A4A13608BB1DA68AC
:1021A000A2420AD105E0D3689C4205D1254B1A60B2
:1021B0001346E268DA6004E01A46002AF3D1214BA4
:1021C0001A600A232374204B1A68E2601C6013E033
:1021D0002046FFF7EDF9194B1B7913F0100F0BD0C8
:1021E000A26D164BDB689A4206D1144A92F82C3045
:1021F00043F0100382F82C30104B93F82C3013F07E
:10220000080F0FD0D4F890301BB16FF00501606952
:10221000984721460A48FEF795FE2146022000F025
:102220001DFB53E013F0100F10D021460448FEF7B9
:1022300089FE2146022000F011FB47E04C2D0020D2
:102240008C92002098920020A0920020B4F86C207C
:102250002AB1D4F8803013B12146606998474C4BBD
:102260009A6AC2B11B7913F0080F03D0537B43F075
:1022700001035373D4F8845025B1002321466069CB
:10228000A84704E0002321461846FEF705FF10B1D9
:102290003F4B9B6AE3673E4B93F82C3013F0200FC3
:1022A0000ED0D4F884502DB100231A46214660691F
:1022B000A84705E000231A4621461846FEF7ECFE23
:1022C0000022344B1A60204607F04AFC0022314BB2
:1022D0001A602F4B9869002856D003F031FF002276
:1022E0002B4B9A6150E02A4B1A6B1C681E8A996826
:1022F000D868238801936388009302F10C0310329D
:10230000314407F079FD284603F01AFF3CE0204BEA
:1023100000225A61298919846968D9619D615F62C7
:102320009A6283F82C20E26F002A7FF440AD53E5D7
:10233000174B1B68988904F0D5F800F0040083B2AD
:10234000002BE0D1CFE7144B1B682363002384F8F4
:102350009D302046FFF7E4F8237C023B072B3FF635
:102360004BAF01A252F823F05F1E02083F1F020884
:102370000F2002083B200208F72002080F20020865
:1023800069210208D121020802B0BDE8F08100BF36
:102390004C2D0020A49200209092002008B5054BFF
:1023A0001B680BB902F044FC024A13680133136046
:1023B00008BD00BF3400002008B5054B1B682BB1D9
:1023C000013B034A13600BB902F046FC08BD00BF95
:1023D0003400002030B583B004460D46FFF7DEFF21
:1023E0000B49002002F040FB02F0B6FB04F03F0472
:1023F00044EA052402A921F8024D022300221046D6
:1024000002F046FB02F0B0FBFFF7D6FF03B030BD91
:102410000024F40070B582B000238DF80730FAB1C3
:10242000F1B116460D460446FFF7B8FF0D490020EE
:1024300002F01AFB02F090FB04F03F0002A901F841
:10244000010D01230022104602F022FB3346002238
:102450002946104602F01CFB02F086FBFFF7ACFF9A
:1024600002B070BD0024F40009B300B330B583B0EE
:102470000D460446FFF792FF0D49002002F0F4FAE2
:1024800002F06AFB02A9402301F8013D012300226A
:10249000104602F0FDFA2B4600222146104602F0BB
:1024A000F7FA02F061FBFFF787FF03B030BD70471A
:1024B0000024F40010B582B00446FFF76FFF104906
:1024C000002002F0D1FA02F047FB04F03F0464F070
:1024D0007F0402A901F8014D01230022104602F0F9
:1024E000D7FA01230DF106020021084602F0D0FAC6
:1024F00002F03AFBFFF760FF9DF8060002B010BD46
:1025000000127A0042B349B370B582B016460D4648
:102510000446FFF743FF1349002002F0A5FA02F03A
:102520001BFB04F03F0060F07F008DF807000123E3
:102530000DF106020DF10701002002F0A9FA334661
:102540002A460021084602F0A3FA02F00DFBFFF72D
:1025500033FF9DF8060003E000207047002070471D
:1025600002B070BD00127A0021B328B330B583B039
:102570000D460446FFF712FF1149002002F074FADD
:1025800002F0EAFAC0238DF8073001230DF10602AC
:102590000DF10701002002F07BFA2B4622460021B4
:1025A000084602F075FA02F0DFFAFFF705FF9DF822
:1025B000060003E0002070470020704703B030BDE4
:1025C00000127A0030B583B005460C46FFF7E6FEF0
:1025D0000C49002002F048FA02F0BEFA200440F054
:1025E0003E0040EA052002A941F8040D0323002221
:1025F000104602F04DFA02F0B7FAFFF7DDFE03B025
:1026000030BD00BF0024F40022B319B370B582B00E
:1026100016460D460446FFF7C1FE0F49002002F0A2
:1026200023FA02F099FA200240F03E0002A921F8B4
:10263000020D02230022104602F02AFA334600223D
:102640002946104602F024FA02F08EFAFFF7B4FE93
:1026500002B070BD704700BF0024F40010B582B016
:102660000446FFF79BFE1049002002F0FDF902F03E
:1026700073FA240244F0BE0402A921F8024D022399
:102680000022104602F004FA01230DF10502002198
:10269000084602F0FDF902F067FAFFF78DFE9DF89B
:1026A000050002B010BD00BF00127A0008B54FF45B
:1026B000007005F0CBFE08BD08B54FF4004102489C
:1026C00004F000F808BD00BF0004024008B54FF454
:1026D0000041024803F0F4FF08BD00BF00040240BF
:1026E00000B583B040F6B8330193FFF7E5FF019BD7
:1026F0005A1E0192002BFAD1FFF7E8FF40F6B833DB
:102700000193019B5A1E0192002BFAD103B05DF890
:1027100004FB00BF08B5002002F0FEF906490020C6
:1027200002F0A2F902F028FAFFF7DAFF02F040FA0D
:1027300002F0A6FA08BD00BF00127A0008B508280A
:102740001ABF00F0070040F0880183213C20FFF70A
:1027500041FE08BD10B4038803F441540A884B8835
:1027600013438A881343CA8813430A8913434A8947
:1027700013438A891343CA89134323439BB20380BB
:10278000838B23F400631B041B0C83830B8A03825B
:1027900010BC704729B103889BB243F0400303800B
:1027A0007047038823F040031B041B0C0380704711
:1027B000808980B2704700BF818170472DE9F04762
:1027C000184D25F00305184B03F62864174EB71E65
:1027D000143603F64C6C4FF000080434A646C4F8D7
:1027E000008037F8020FB8B1B6F800902B460022EF
:1027F000114600E05346196003EB090A01321946FD
:1028000093B29842F6D8013880B200FB099309FBD5
:102810000050CEF800001D4402366445DDD1BDE80D
:10282000F08700BF832D002068600020B8A4020854
:1028300008280DD8084B03EB8003D3F82C3E4BB18E
:102840001968054A02EB8000C0F82C1E1846704734
:1028500000207047184670476860002039B1044B6B
:1028600003EB8000D0F82C3E0B60C0F82C1E7047A4
:102870006860002028B1064A136843F0040313601F
:102880007047034A136823F004031360704700BFC6
:1028900000080650014B9868704700BF00080650BA
:1028A000034B5B68184214BF01200020704700BF33
:1028B000000806500023054A1370054A13700549A5
:1028C0000B7005490B70137153717047E99200202A
:1028D000A8920020E8920020B86E002010B54D4B61
:1028E0005B7913F0080F05D14B4B09229A7008222F
:1028F0001A7086E0494B9B7A2BB9474B12229A708B
:1029000008221A707DE000283DD1454B59694A1EC6
:102910005A61444A107801F8010C117801311170A4
:102920005869421E5A613D4A917A0139C9B2917281
:1029300000F8011C5869411E59611189090A00F803
:10294000011C5969481E5861108901F8010C586929
:10295000411E59611188090A00F8011C5969481E75
:102960005861108801F8010C5969481E5861107BA4
:1029700001F8010C5969481E5861D27A01F8012CFE
:102980001A7E08321A76234B5A8A274B1A805A81AC
:10299000224B18884FF6FE7398420ED1224CCC235E
:1029A000E37308221D4B5968A01C03F0FBFFE37B77
:1029B000C3F38103022B1ED113E04FF6FF7398423D
:1029C0000BD001F063FE4FF6FF73984205D1124B16
:1029D00011229A7008221A7013E0134BC822DA737E
:1029E0005880114B5A884FF6FF739A4203D1412207
:1029F0000D4B9A7302E061220B4B9A730322064B34
:102A00001A700A22044B1A710122084B1A7005F041
:102A10000FF810BD48960020A8960020EC920020E8
:102A200094940020E9920020B0960020C4960020E3
:102A3000024B1878003018BF01207047B86E002094
:102A4000064A11680868064B186009791971927E68
:102A50001A720122034B1A70704700BF2C96002097
:102A6000FC920020B86E002010B5264A264B5A6111
:102A7000264A137952799A4209D00133DBB2052BE9
:102A800008BF00230133214A02EBC30300E0002307
:102A9000186802781979511AC9B2013A8318481E88
:102AA000194A10760239C9B2C9431944104642691D
:102AB000541E446113F8014D02F8014C8B42F6D1CB
:102AC000124B1B790133DBB2052B02D00F4A137175
:102AD00002E000220D4B1A710C4A1379013352F8AF
:102AE000330006F053FC084843690949DC789A78BA
:102AF00002EB04220A809A79013A9A7143699B7920
:102B00008B7210BD9394002094940020A892002012
:102B1000EC9200202DE9F04104F08AFF944B1868F4
:102B20001D7A4219934BB3F800C0934B1B780021D8
:102B30008F4C4FF002084FF0010E174602E043465B
:102B400071463E46022B2DD0032B3BD0012B04D0E7
:102B5000002933D0884A137030E0137803F0030360
:102B6000012B09D111B10122834B1A7006F00EFC22
:102B70000022814B1A7021E093786381D17803EBB6
:102B800001239BB263811179A181567901EB062162
:102B9000A181991C89B20129D1D99C450CBF02237E
:102BA0000323CDE711B10222734B1A7005F07AFCB2
:102BB00020B905F07FFC00226F4B1A706F4C704DEE
:102BC000032625E011B103226B4B1A70B3792BB9A0
:102BD00006F0DCFB0022684B1A70EFE7694B5B796B
:102BE0000133DBB2052B40F0BB80B1E006F0CEFB39
:102BF0000022614B1A70E1E7624B5A79013243F8C7
:102C0000320003EBC2031D7100225B4B1A70D5E743
:102C100023780E2B00F2A980DFE803F008223F7929
:102C2000A7A75A6CA7A7A7A7A7A74C00554B1A7927
:102C30005B799A4200F09980534B1B7B13F0020F93
:102C400040F09380504A43F002031373FFF70CFFE8
:102C50000120FFF743FE0E22484B1A70BDE8F081B9
:102C60002B78092B02D00A2B07D016E00020FFF7A3
:102C700035FE0222414B1A700FE003F0B1F904F067
:102C8000E1FD01F053FC04F007FE287318B10022A7
:102C90003A4B1A7001E02670BAE73C4B1B78002BC8
:102CA00063D13B4B1A79364B1A730022334B1A709F
:102CB000BDE8F081354B1B78002B56D1324B1A7B87
:102CC0006FF341021A7300222C4B1A70BDE8F08199
:102CD0002E4B1B78002B48D12D4B07221A70274909
:102CE0000A700A221A710122284B1A7004F0A0FE01
:102CF000BDE8F081254B1B78002B36D1244B1A7987
:102D00001F4B1A7300221D4B1A70BDE8F08114206E
:102D100004F0F4FD002004F0F9FD01F015FC194A5F
:102D2000137843F0010313701A4B5A7942F00802EA
:102D30005A711A7942F001021A710023104A137372
:102D40000E4A1370BDE8F08100220E4B5A7153E712
:102D50000C4B1B79002BF7D148E70A4A53714BE71C
:102D6000084A12799A42F8D140E7BDE8F08100BFE5
:102D7000FC920020BC940020B86E0020E892002055
:102D8000D8920020A892002094940020C49600209D
:102D9000A8960020489600202DE9F8430646022711
:102DA000002300E0234607F1FF385FFA88F800258A
:102DB00001331FFA83F915F0FF0F08BF4C4604D00A
:102DC000404601F035FB204484B2B44211D039466C
:102DD000204601F04FFBB44201D2864202D90135B0
:102DE000042DE8D10137FFB2052FDBD10020BDE86B
:102DF000F8833046BDE8F8832DE9F84F0746474B86
:102E00001B8833B383426CD0454BB3F810905E7D82
:102E1000013EF6B2484567D0B9F1000F1DD04FF022
:102E20000108711CC9B2484601F024FB4F4501D985
:102E3000874214D9013E08F101081FFA88F816F0FC
:102E4000FF0666D04846FFF7A7FF814600285DD100
:102E50004DE000264FF0010801E04FF00108013677
:102E6000F6B208F101081FFA88F83146484601F029
:102E700001FBA0F10D039F4203DD87422AD9002503
:102E800000E0002509F101091FFA89F906F1010B9B
:102E90000DB94C4604E0304601F0CAFA204484B231
:102EA000BC4227D05FFA8BFA5146204601F0E2FA85
:102EB000BC4201D2874206D90135EDB2042DE7D1DB
:102EC0004046BDE8F88F042D17D0A1465646BAF10A
:102ED000030FC6D9B8F10B0F34BF40460920BDE837
:102EE000F88F0120BDE8F88F0120BDE8F88F0A2097
:102EF000BDE8F88F3846BDE8F88F4046BDE8F88F4A
:102F00004046BDE8F88F4046BDE8F88F874288D13B
:102F1000F6E74FF00009002FA1D1F4E7BC940020A0
:102F200048960020054B1B69002B05DA034B044A29
:102F30005A6002F188325A60704700BF003C02407C
:102F400023016745024A136943F000431361704748
:102F5000003C0240014BD860704700BF003C02407B
:102F60000E4BDB6813F4803F12D10C4BDB6813F07F
:102F7000100F0FD1094BDB6813F0EF0F0CD1074B8B
:102F8000DB6803F00203002B14BF07200820704702
:102F9000012070470520704706207047003C024022
:102FA00000B583B008238DF80730FFF7D9FF8DF8FF
:102FB00007009DF80730DBB2012B08D1FFF7D0FFE7
:102FC0008DF807009DF80730DBB2012BF6D09DF895
:102FD000070003B05DF804FB70B5054641B1012957
:102FE00008D002290CBF4FF400764FF4407603E07E
:102FF000002601E04FF48076FFF7D2FF08281ED1AB
:103000000F4C236923F44073236123691E43266117
:10301000236923F0F8032361236943F002031D436E
:103020002561236943F480332361FFF7B9FF2369E6
:1030300023F002032361236923F0F803236170BDA9
:10304000003C024070B505460E46FFF7A9FF082870
:1030500013D10A4C236923F440732361236943F499
:1030600000732361236943F0010323612E60FFF79E
:1030700097FF236923F00103236170BD003C0240E8
:103080002DE9F04107468846446863689A88D2B9BA
:103090001B6843606268034653F8081F5E689D68BA
:1030A000D868116056609560D0601969116101217E
:1030B000204606F0ADF8204603F038F906462046D3
:1030C00003F03EF800E000267C685CB163681D6890
:1030D000204603F02BF90644204603F031F82C4635
:1030E000002DF3D10A4B1B689F4203D13A68084B6D
:1030F0001A6002E03B68C8F8003039460520FFF747
:10310000ADFB034A93889B1B93803046BDE8F0815A
:10311000BC6E00202DE9F041054688460026184F78
:103120003B684BB3D5F80CC000242146204601E093
:10313000194613465A69624509D1D5F810E09A69D3
:10314000724504D1B3F80CE0AA88964509D0013441
:1031500030B193F81FE0C27F964598BF184600E053
:1031600018461A68002AE3D110B1FFF789FF064418
:10317000464501DA012CD3DC3046BDE8F08100BFC2
:10318000BC6E00202DE9F04F83B0074646683088BA
:1031900003F0A8F9C0F30320052840F05381F0881C
:1031A00003F0A0F98346708803F09CF90190308801
:1031B00003F098F98246384603F0B8F88046BE4BD3
:1031C0009B8803440A2B0CDD01463046FFF7A2FF23
:1031D000002800F03781B84B9B8843440A2B00F34A
:1031E0003181B54B1C68ACB1F268002500E01C468B
:1031F0006369934207D13369A169994203D1A189D7
:10320000B388994204D023682546002BEFD101E012
:10321000BCBB2C460520FFF70BFB814668B9414635
:103220003046FFF777FF804500F30C810520FFF75C
:10323000FFFA8146002800F005812022002148463F
:1032400006F050FF032389F81F309B4B1A68C9F81A
:103250000020C3F8009032687568B068F168C9F85A
:103260000820C9F80C50C9F81000C9F814103269C8
:10327000C9F81820B9F1000F00F0E48025464C464B
:1032800017E0F08803F02EF9C0F30C0088B9E0894C
:1032900003F028F9C0F30C0058B13268D6F804E006
:1032A000B068F168A260C4F80CE020616161326925
:1032B000A261814A93889844A2F80480F08803F0C0
:1032C00011F900F4005080B270B9A37F43F00103FC
:1032D000A377CBF30C0B019B03EBCB09CAF3032AB7
:1032E000A9EB8A09A4F81C907E68708803F0FAF8AC
:1032F0008046308803F0F6F88246F08803F0F2F852
:10330000C0F30C00C600D7F80490002389F8003001
:1033100089F8013089F8023089F80330A9F804608F
:10332000B044CAF3032CA8EB8C0C1FFA8CFCA9F850
:1033300006C06268A2B3536899888E42C0F0878045
:1033400052D0DA88B2424FD84FF0010E1CE04268EA
:1033500091888E420CD2C9F80000002B00F0A980A1
:10336000D988B14240D8928862453DD31F601AE0A7
:103370008E4239D0D088B04236D823B1DB888B4218
:1033800018BF4FF0000E134618680028DFD163E025
:103390001F60DA88B9F804309A4240F0888002E071
:1033A0004FF0010E6760A37F13F0010F7FD0BEF1D5
:1033B000000F7CD0606843689B88002B77D1D9F8D8
:1033C0000030002B4BD05B68B9F806109A88914208
:1033D00006D06CE05268D9889388994267D1134629
:1033E0001A68002AF6D13AE0384602F09FFF324AC6
:1033F0009388181A9080384602F0A2FE57E077684A
:103400004946304602F060FE3146404602F0A0FFD9
:103410003E68002EF3D1284B1B689C4203D12268E2
:10342000254B1A6001E023682B6021460520FFF739
:1034300015FA404602F07AFF1F4A9388181A9080C6
:1034400040463BE0384602F07BFE002036E0C9F8FB
:1034500000204FF0010E2CE0002B99D1A2E7A38BA6
:103460001433A38347683E68234653F8082FD3F8E4
:1034700004E09868D9683A60C7F804E0B860F96079
:103480001A693A61A08B03F027F878800023BB719A
:10349000FB71BB72FB721421384600F09FF97881F2
:1034A000D4F804806FF01309002EA8D1B3E70020F0
:1034B00004E0676077E700BFBC6E002003B0BDE8A2
:1034C000F08F00BF2DE9F04F89B007460390894681
:1034D0000492B1F824B002220021104602F05AFEF4
:1034E0000190002800F0A380A0F80AB0A0F808B06E
:1034F000584D25F0030545607E682C46306871689C
:10350000B268F3680FC430692060E88802F0EAFF0F
:10351000C0F30C0600F4005083B202933C89143CC3
:10352000A4B2ABF1140B5B46BBF1000FB8BF0BF1BB
:103530000703C3F3CF030593002C73D04FEAC30AEC
:103540001FFA8AFA0AF114039BB206934FF014088B
:1035500005EB08030793C6F30C07029B1F43A34523
:1035600021DA434652460799039802F079FF404416
:103570001FFA80F847F4005002F0AEFFE88006988A
:1035800002F0AAFF68804FF000036B8114212846E7
:1035900000F024F9688100221146022002F0FAFDB1
:1035A000074620BB38E04346224605F11401039844
:1035B00002F056FF384602F08FFFE8801434A4B2C0
:1035C000204602F089FF688000266E81142128467B
:1035D00000F004F968812146019802F07BFE324632
:1035E0003146022002F0D6FD0446A8B122E001993E
:1035F00002F0C8FED9F81430049A39464846984774
:10360000384602F09DFDCAEB0404A4B2059B1E449B
:10361000B6B2002C9FD105E0019802F091FD4FF069
:10362000FF3014E0019802F08BFD00200FE04FF016
:10363000FF300CE0019902F0A5FED9F81430049A8D
:10364000214648469847204602F07AFDEAE709B04D
:10365000BDE8F08FC76E00200268531E13F1030F00
:1036600014D891F82D3003F0020303F0FF0093B15A
:103670004B689A420CD0896853400B420AD1C94327
:1036800031EA02030CBF012000207047012070477F
:10369000002070470020704703889BB21E4A90426A
:1036A00012D002F5806290420ED0B0F1804F0BD064
:1036B000A2F58032904207D002F58062904203D09A
:1036C00002F58062904203D123F070034A881343CD
:1036D000124A904219D002F58062904215D023F42C
:1036E00040739BB20A89134303804B68C3620B8803
:1036F0000385094B984203D003F58063984201D1BA
:103700008B7A038601238382704703804B68C362F0
:103710000B880385F6E700BF000001400010004061
:1037200029B103889BB243F080030380704703886C
:1037300023F080031B041B0C0380704729B103880E
:103740009BB243F0010303807047038823F0010319
:103750001B041B0C0380704722B183899BB2194361
:103760008181704783899BB223EA0101818170477F
:10377000C94389B201827047F8B5012926D9831C53
:103780008F1EC7F34E07BE1C00EB4606002413F83D
:10379000025C13F8012C42EA052214440233B342BE
:1037A000F5D1013700EB470011F0010F04D000E024
:1037B0000024037804EB0324A0B200EB1440030CB4
:1037C0001B0433B183B203EB104002E00029EFD1B8
:1037D000002080B202F080FEF8BD00BF08B5FFF700
:1037E000CBFFC04380B208BD70B500B305460026CC
:1037F000344669896868FFF7BFFF204484B204EB50
:1038000010446B8913F0010F07D0C6F10106F6B220
:1038100023029BB2C4F307241C432D68002DE8D17A
:1038200036B123029BB2C4F307241C4300E00024FA
:10383000E04380B270BD00BF08B54FF400314FF0D7
:10384000006005F02DFD02F0C1FF4FF4C06005F0EF
:10385000E5FCFDF7DBFA08BD08B502F00FFA002021
:1038600000F0A6F8012000F0A3F800F0E7F800F05F
:10387000C5FB00F0B7F900F08DFB00F019FC01F07A
:10388000F5FB054B1B7813B1044802F09BFB00F0DD
:1038900099FFFDF727FE08BDC4740020E8A40208C4
:1038A00008B5FFF7C9FFFFF7D7FF01F0EBFA0020DB
:1038B00008BD00BF2DE9F04782B0044689462A4B77
:1038C00003EB800253F8200093680121184303F0B2
:1038D00015F83CB9244B03EB84030121186903F06C
:1038E00037F806E0204B03EB84030121186903F04D
:1038F00021F81D4D2F19DFF874803A7E397F58F872
:10390000240002F0E1FE08EB840697F8202097F8E7
:103910002410B06802F0D8FE00238DF806304FF076
:10392000010A8DF807A002278DF8047005EB440505
:103930002B8D00938DF80570694658F8240002F02D
:1039400071FE8DF80470AB8D00936946B06802F08B
:1039500069FE49463069FDF79FFC51463069FDF725
:10396000FBFC02B0BDE8F08700A50208380000208B
:1039700008B5054A02EB4002044B03EB8000118EB0
:10398000806902F09FFE08BD00A5020838000020F3
:1039900008B5054A02EB4002044B03EB8000118E90
:1039A000806902F08DFE08BD00A5020838000020E5
:1039B00070B582B00646104D84002B190121586B5A
:1039C00002F09CFF05EB46052B8E009301238DF83A
:1039D000043000228DF806208DF8073002238DF880
:1039E0000530064B1C446946A06902F01BFE3046B8
:1039F000FFF7CEFF02B070BD00A50208380000201E
:103A000000B583B00121102002F078FF4FF400735D
:103A1000009301238DF8043000228DF806208DF8E4
:103A2000073002238DF805306946034802F0FAFD9D
:103A300003B05DF804FB00BF0010024010B584B075
:103A4000FFF7DEFF0121084602F074FF63230293B3
:103A50004A23ADF804300024ADF80C40ADF8064020
:103A600001A94FF08040FFF717FE01214FF0804081
:103A7000FFF756FE21464FF08040FFF75FFE1C2304
:103A80008DF8003002238DF8013001248DF80240BA
:103A90008DF80340684605F0CBFB21464FF080408F
:103AA000FFF766FE224621464FF08040FFF754FEA6
:103AB00004B010BD08B501214FF08040FFF758FE5B
:103AC000344B01221A705B68C82B07D9314A002396
:103AD00053609360304A82F824301BE02E4B93F8F9
:103AE0002430BBB12B4B1B7B5BB14FF400712B48D7
:103AF00002F0E8FD274B00221A735A6801325A601F
:103B00000CE04FF40071254802F0DAFD0122214B50
:103B10001A7303E01F4A9368013393601D4B9B683F
:103B2000002B36D01C4A116A012911D100214FF017
:103B30008040FFF703FE174B00225A609A601A611B
:103B4000154903200862012081F824001A7008BD7D
:103B5000B3F5FA5F1DD90F4A136901331361994216
:103B600010D800214FF08040FFF7E8FD094B0022FC
:103B70005A601A61084903200862012081F8240074
:103B80001A7003E00122044B83F824200022014B29
:103B90009A6008BDA4740020380000200010024084
:103BA00008B54FF4001004F043FC18B14FF40010B6
:103BB00004F04CFC08BD00BF08B54FF4003004F021
:103BC00045FC08BD38B5FFF7ADF9F320FFF7C2F9A2
:103BD0000225302429462046FFF7FEF90828F9D1AE
:103BE00038BD00BF084B93F8253063B1074A084B36
:103BF000084813F8011B02F8011B8342F9D1002287
:103C0000014B83F82520704738000020B87400204D
:103C1000107AFF1F1C7AFF1F044A431E073012F858
:103C2000011F03F8011F8342F9D17047B7740020C8
:103C300000487047B8740020F8B507460E46FFF7F5
:103C4000C1FFB6080DD03D1F0024C7F1006707F182
:103C50000417781955F8041FFFF7F4F90134B4423A
:103C6000F7D1FFF76FF9F8BD08B53821FFF7E4FF8A
:103C700008BD00BFF0B4094C054604F130072646E4
:103C80000FCE28606960AA60EB6034461035BE42F2
:103C9000F5D103CC28606960F0BC704700000408CF
:103CA000004870470000040800B59DB0FFF79AFF78
:103CB00001230E93144A0DF13B030DF1430012F85A
:103CC000011F03F8011F8342F9D1012311936846B4
:103CD000FFF7D0FF049B12930C4B1B68139341F228
:103CE0001013ADF850304FF4FA63ADF85230ADF820
:103CF000543041F28833ADF856300EA8FFF7B4FFC8
:103D00001DB05DF804FB00BFB77400200C930020C9
:103D100010B58EB0038813F0010F05D0FFF7C4FF74
:103D200000F0C2FF01207CE004466846FFF7A2FFD6
:103D3000238803F4805292B232B16288132A05D9E3
:103D4000ADF81A20012102E0002100E0002103F477
:103D5000807292B2BAB1A288B2F57A7F15D903F017
:103D6000100080B238B1E088824232BF01200020CA
:103D700000200FD204E0BDF81E0090424ED9012071
:103D8000ADF81C2002E0002000E0002003F010024B
:103D900092B242B1E288BDF81C40944205D2ADF81F
:103DA0001E20012202E0002200E0002209B900B931
:103DB00052B3ADF818306846FFF756FF00F074FFB5
:103DC000194B93F820300BB3BDF81A10174802F0C6
:103DD000F9F8154B93F82030D3B1BDF81C101448F6
:103DE00002F0F0F8104B93F820309BB1BDF81E1094
:103DF000104802F0E7F80C4B93F8203063B10E48FE
:103E000002F0E0F801200CE000200AE0012008E0C8
:103E1000012006E0012004E0012002E00029C8D1D1
:103E200000200EB010BD00BFA4740020DCA5020865
:103E3000F0A5020804A602081CA6020808B50B4B50
:103E400093F8203013B10A4802F0BCF8012383F341
:103E50001388BFF34F8F0749CA6802F4E062064B2C
:103E60001343CB60BFF34F8FFEE700BFA474002065
:103E700030A6020800ED00E00400FA0570B582B03B
:103E80000121102002F03AFD01238DF806308DF853
:103E9000073000228DF80420009302238DF80530AE
:103EA0006946074802F0BEFB6424054E01252946F9
:103EB000304602F0FFFB013CF9D102B070BD00BFFB
:103EC0000010024000B59DB0FFF78CFE01230E9359
:103ED0002E4A0DF13B030DF1430012F8011F03F8C8
:103EE000011F8342F9D101231193294B1B681393BE
:103EF0006846FFF7BFFE049B129341F21013ADF822
:103F000050304FF4FA63ADF85230ADF8543041F20E
:103F10008833ADF8563000231693FFF7AFFF78BB18
:103F2000C0218DF85C10A8228DF85D200A238DF841
:103F30005E306F208DF85F00FF208DF860008DF8F7
:103F40006100FE208DF8620000208DF863008DF87E
:103F500064108DF865208DF8663001208DF86700BB
:103F60008DF868108DF869208DF86A308DF86B3007
:103F700040F20743ADF86C3040F20643ADF86E30C6
:103F80000EA8FFF771FE1DB05DF804FBB7740020AA
:103F90000C93002000B58FB00D4B1B68012B01D096
:103FA000FFF790FF0A4B196A0A4A82F820105A69F3
:103FB000094B1B689A4208D06846FFF75BFE064B28
:103FC0001B6805936846FFF74FFE0FB05DF804FBD2
:103FD00000000408A47400200C930020024603781B
:103FE00053B1002000EB8000303B03EB400012F89F
:103FF000013F002BF6D1704700207047F0B595B017
:10400000224B03F13C0408AF03F16C063D462068E7
:104010006168A268E3680FC510342F46B442F5D139
:104020001B4A01AB07CA83E80700ADF81400000C77
:104030008DF8160000248DF8174008AD05A9284614
:1040400006F09EF810B90134E4B204E001340435FE
:104050000C2CF3D10024BDF80830ADF8103000234B
:104060008DF81230DDF80B0006908DF81C3006A894
:10407000FFF7B4FF054604A8FFF7B0FF40EA05309C
:1040800040EA0424034B1C6015B0F0BD00A50208F3
:1040900040A602080C93002008B5C3B2C0F3032267
:1040A000C0F30B31014801F08DFF08BD4CA602089A
:1040B0004B4B93F82030002B00F0908070B54948AE
:1040C00001F080FF484801F07DFF484C484E494DC3
:1040D00014F8011F304601F075FFAC42F8D1464894
:1040E00001F070FF454CE168454801F06BFF454821
:1040F00001F068FF2069FFF7CFFF434801F062FF3E
:104100006069FFF7C9FF414801F05CFF218B40481F
:1041100001F058FF618B3F4801F054FFA18B3E48EE
:1041200001F050FFE18B3D4801F04CFF216A3C4B10
:104130003C4A01290CBF114619463B4801F042FF99
:10414000FFF79CFE002845D1384801F03BFF23349F
:10415000374E384D14F8011F304601F033FFAC42A2
:10416000F8D1254801F02EFF334801F02BFF304EE7
:10417000324D14F8011F304601F024FFAC42F8D153
:104180001D4801F01FFF2E4801F01CFF284E2D4D49
:1041900014F8011F304601F015FFAC42F8D1164863
:1041A00001F010FF284801F00DFF214E274D14F8B3
:1041B000011F304601F006FFAC42F8D10E4801F075
:1041C00001FF0E4CA18E224801F0FCFEE18E214839
:1041D00001F0F8FE204801F0F5FE70BD704700BF09
:1041E000A47400205CA6020888A602080300040844
:1041F00098A602080B00040858A80208000004084A
:10420000A0A60208ACA60208B8A60208C4A6020826
:10421000D8A60208ECA60208FCA602080CA7020811
:1042200058A6020854A6020820A7020830A70208D0
:1042300040A702082700040844A702082B0004082E
:1042400058A702082F0004086CA7020833000408CE
:1042500080A7020894A70208A8A70208002304491F
:104260004FF6FF725A520A33B3F5AA7FFAD170475C
:10427000BC9400202DE9F041DFF860E000274FF604
:10428000FF7C4FF001083EF8023C634514D00278F1
:104290009EF800309A4216D00EE014F8016F12F822
:1042A000015FAE4204D10133DBB2082BF5D101E04E
:1042B000082B01D10F700AE00137FFB20EF10A0E90
:1042C000222FE0D103E0044672464346E5E7B7F10A
:1042D000220018BF0120BDE8F08100BFBE9400207D
:1042E00070B4002213460A4E4FF6FF75945BAC4241
:1042F00003D0844201D10B7004E00133DBB20A32F7
:10430000222BF3D1B3F1220018BF012070BC7047FB
:10431000BC9400202DE9F047174C00254FF6FF7C98
:104320004FF001095FFA85F834F8023C634518D074
:104330008B4216D1077823789F4219D011E017F8E5
:1043400001AF16F801EFF24504D10133DBB2082BBF
:10435000F5D101E0082B04D182F800800120BDE8EE
:10436000F08701350A34222DDCD10020BDE8F0872A
:10437000074626464B46E2E7BE940020F0B583B0E0
:1043800004460D460DF10702FFF7C4FF38B19DF852
:10439000073003EB83031F4A32F8130037E003466C
:1043A00000228DF807201B4A11884FF6FF729142B8
:1043B00024D111E05089884205D10EB18DF8073023
:1043C000222B09D123E00133DBB20A323E46222BF5
:1043D000F0D14FF6FF701AE003EB83030D4E06EBAE
:1043E000430008222146023002F0DCFA9DF8073033
:1043F00003EB830326F81350002008E001238DF817
:104400000730044A00264FF6FF711F46D2E703B07B
:10441000F0BD00BFBC94002010B582B004466846D1
:1044200002F0EEFA21466846FFF7A8FF02B010BD81
:104430000138092819D8DFE800F01A05080A0C0E1F
:10444000101214164FF4B3707047562070471220A4
:104450007047002070470020704700207047002000
:10446000704700207047002070470020704740F2DE
:10447000A650704710B504460846FFF7D9FF0D3423
:1044800004EB800080B210BD10B40B4B0B4C03F159
:1044900088011A7912F0010F06D01A7802EB820215
:1044A00034F81220824204D008338B42F1D100202C
:1044B00000E0184610BC704710930020BC94002008
:1044C000F0B5184CDFF860E04FF0010C04F18807FC
:1044D000237913F0010F1DD0227802EB82030EEB3B
:1044E000430399780378994214D102EB82020EEBD0
:1044F000420202320146634612F8016F11F8015F71
:10450000AE4205D10133DBB2082BF5D12046F0BD18
:10451000082B04D00834BC42DAD10020F0BD20467C
:10452000F0BD00BF10930020BC94002008B5054BDF
:10453000002103F18802197108339342FBD1FFF780
:104540008DFE08BD1093002038B50B4D002385F873
:104550005C3085F85D30094B1C88687D0130C0B245
:10456000FFF766FF631C9BB203EB8000A5F85800C1
:10457000A5F85A3038BD00BF48960020BC940020F2
:10458000F8B53E4B1B7913F0010F0DD03C4C0123C5
:10459000227912F0010F6BD00133DBB20834112BFA
:1045A000F6D14FF6FF7566E0344C364B1A884FF65D
:1045B000FF739A4211D0334A01234FF6FF76558993
:1045C000B54207D00133DBB20A32222BF7D14FF6C6
:1045D000FF7550E0222B01D14DE0002305462370EA
:1045E000227942F001026FF347022271617011F0EB
:1045F000020F15D0244EB6F85A7003EB8303214AFC
:1046000022F81370707D0130C0B2FFF711FF3844FB
:10461000A6F85A0096F85D30013386F85D300FE059
:10462000194AB2F8581003EB8303164820F8131008
:104630000131A2F8581092F85C30013382F85C30F6
:10464000247804EB84000F4B03EB4000831C6A1EAC
:104650000A3012F8011F03F8011B8342F9D104EB61
:104660008404084B33F8145005E04FF6FF7502E060
:10467000112B9AD1F9E72846F8BD00BF109300200E
:1046800018930020BC940020489600202DE9F843A0
:10469000204B1B88834237D010B91F4B1D8A35E051
:1046A00006461D4B93F8158008F102085FFA88F85A
:1046B0001A4C04F18807DFF85C9014F8043C13F0FE
:1046C000010F1BD014F8073C13F0020F0ED014F8A2
:1046D000083C03EB830339F8135041462846FFF7A3
:1046E000C9FEAE420AD3864208D80FE014F8083C4F
:1046F00003EB830339F81350AE4207D00834BC42B1
:10470000DBD14FF6FF7501E04FF6FF752846BDE897
:10471000F88300BFBC940020489600201893002026
:10472000F8B507460E461546FFF7BAFA0368012B9F
:1047300034D1044690F8240094F825301B0443EA51
:10474000006394F82700034394F8260043EA00200E
:1047500001F0CEFE386094F8280094F829301B044C
:1047600043EA006394F82B00034394F82A0043EAD9
:10477000002001F0BDFE306094F82C0094F82D303C
:104780001B0443EA006394F82F00034394F82E00BF
:1047900043EA002001F0ACFE2860F8BD064801F0B5
:1047A000A7FE3860054801F0A3FE3060044801F020
:1047B0009FFE2860F8BD00BF6F0AA8C000FEFFFF83
:1047C000010AA8C010B588B0FCF7EEF8FDF7F6FFB7
:1047D00005AA06A907A8FFF7A3FF0A4C0A4B0293F4
:1047E0000A4B01930023009305AB06AA07A92046B4
:1047F00001F0D4FE204601F0F7FE204601F0FAFE5B
:1048000008B010BD98930020F15A020869530208BD
:1048100008B5024800F04CFD08BD00BF9893002089
:1048200070B40F4B00221A70DA740E4D2C7B661C8C
:104830002E731C7599740121D97118819A710A4AD5
:1048400012881A822121597140211971904204D194
:104850001A461B7843F00103137070BC704700BF09
:104860002C97002050970020BC9400200023024A7F
:104870001370024A13707047D4930020CC93002029
:1048800008B50A4B1B7813F0010F0DD002F098F811
:10489000064B5B68C01AC82806D90020FFF768F8E5
:1048A00002F08EF8014B586008BD00BFCC93002089
:1048B00010B5204B186A9B7C132B02D0FF2B10D015
:1048C00031E01C4B93F824300A2B2ED10378417829
:1048D00003EB012189B20230FFF750FD00F054FBD9
:1048E00010BD0378022B02D0032B03D01FE000F091
:1048F0004BFB10BD437863B10F4C237843F00103A9
:10490000237002F05DF860600020FFF741F800209E
:1049100010BD094B1A786FF300021A700020FFF7E0
:1049200037F8002010BD002010BD182010BD002059
:1049300010BD00BFC8960020CC93002008B503220C
:10494000084B83F82020084B1A88084B110A83F87B
:104950007E1083F87D20012283F87C20FF21FFF761
:104960005FFF08BD2C970020BC9400201494002009
:1049700008B50222064B83F82020064B83F87E10F0
:10498000032283F87D20FF21FFF74AFF08BD00BF07
:104990002C9700201494002038B50546094C204679
:1049A00002F02EF8084B1B881A0A04F8012C04F8B0
:1049B000023C0A22054B83F8202013212846FFF7EA
:1049C0002FFF38BD8B940020BC9400202C97002032
:1049D00070B505461D4B1E7976B11D4B1D4A741EE0
:1049E000E4B2601C184413F8011B02F8011D834255
:1049F000F9D1194B1C1B00E0164C04F8016C174B45
:104A00009A7D04F8022C002204F8032C1B8A1A0A4F
:104A100004F8042C04F8053C114B1B881A0A04F80E
:104A2000062C04F8073CA4F10F0001F0E9FF022373
:104A300004F8103C054B1B7910330A4A82F82030E9
:104A4000FF212846FFF7ECFE70BD00BF5097002005
:104A5000F096002093940020929400204896002025
:104A6000BC9400202C97002008B5054B99428CBFC0
:104A7000044B054B19880548FCF784F908BD00BFB5
:104A800000127A00D6930020D89300200030014015
:104A900013B3F0B583B00D4616461C46B9B9B2B98A
:104AA00018E01DB115F8013B8DF807309DF807108F
:104AB0003846FCF719F98DF807001EB19DF807304C
:104AC00006F8013B013CA4B2002CEAD102E0A4B2FA
:104AD000024FE6E703B0F0BD704700BF0030014071
:104AE00000B583B00121084601F008FF10230093B0
:104AF00001238DF8043003228DF8052000228DF863
:104B000006208DF807306946024801F08BFD03B09E
:104B10005DF804FB0000024010B5FCF783F80B4C75
:104B200010212046FCF7F4F82046FCF72DF9084B3D
:104B3000188008212046FCF7EBF82046FCF724F902
:104B4000044B1880FFF7CCFF10BD00BF00300140C0
:104B5000D8930020D693002008B51021014801F019
:104B6000B1FD08BD0000024008B51021014801F068
:104B7000A7FD08BD0000024000B583B0012102205E
:104B800001F0BCFE4FF40043009301238DF8043084
:104B900000228DF805208DF806208DF80730694633
:104BA000024801F03FFD03B05DF804FB0004024041
:104BB000F0B587B00121042001F0A0FE4FF400768B
:104BC000049600248DF8144002278DF815708DF896
:104BD000164001258DF8175004A9144801F022FD54
:104BE00029464FF4804001F0B3FE0921384600F019
:104BF0000FFC02968DF80C400C238DF80D308DF8CB
:104C00000E5002A803F0CCFB17238DF804308DF86A
:104C100005508DF806408DF8074001A804F008FB08
:104C2000304603F013FC07B0F0BD00BF000802409F
:104C300000B583B017238DF8043001238DF80530BB
:104C400000238DF806308DF8073001A804F0F0FA43
:104C500003B05DF804FB00BF00B583B017238DF8E7
:104C6000043001238DF8053000228DF806208DF8E0
:104C7000073001A804F0DCFA03B05DF804FB00BFC4
:104C800008B50121402001F047FE0120FDF7F2FDAB
:104C900008BD00BF10B501242046FDF701FE002825
:104CA000FAD0FDF7F7FD10BD08B5FEF7F9FF028B4E
:104CB00002F480539BB223B1124B418B59801A806E
:104CC00003E04FF4FA620F4B5A80028B02F48073B8
:104CD0009BB223B10B4B818B99801A8003E04FF478
:104CE000FA62084B9A80028B02F010039BB223B148
:104CF000044BC18BD9801A8008BD41F28832014B28
:104D0000DA8008BDF093002008B50A4B00221A7023
:104D10005A70094B1B785BB1FEF78AFF0278054B8E
:104D20009A704278DA7082781A710022024B1A70F7
:104D300008BD00BFD07400205E000020F8B5134B02
:104D400093F824601F6AFCF7E5FB04460222314613
:104D5000032001F01FFAA0B1054647600146204636
:104D6000FCF75AFBC4B2284601F0EAF9084B1B785D
:104D70004BB1064B1A8B3146064801F023F9204609
:104D8000F8BDFF20F8BD2046F8BD00BFC896002042
:104D9000C474002004A8020838B50F4C08232370FF
:104DA00011236370FCF7B6FB05460222217803202D
:104DB00001F0F0F978B10446074B436001462846FC
:104DC000FCF72AFB204601F0BBF9044B1B7813B11A
:104DD000034801F0F7F838BDD0740020C4740020F7
:104DE00020A802082DE9F04387B000221E4B1A606C
:104DF000FFF78AFF1C4C1D4E1D4D3746DFF88080A3
:104E000003F05CFE01F0DCFD2368C01AF3889842D1
:104E100004D9FFF7C1FF01F0D3FD20602B78002BF0
:104E2000EED000232B7041464FF6FF7221F8502F31
:104E30001048027B02F1010E80F80CE0049303920B
:104E40000822029201974FF00109CDF800904A46DE
:104E5000484604F073F81322074B1A72074B83F885
:104E6000009003F02BFECBE7DC930020F0930020B2
:104E7000E19300205097002020970020F696002014
:104E8000D074002070B50024354B1C6001F07CFD0F
:104E900003F0E2FAFFF708FF2046FEF779FD012054
:104EA000FEF776FD2F4B1C701D462F4C03F006FEBF
:104EB0002B78042B50D8DFE803F00320393B450062
:104EC0000020FEF765FD237823B103F0F7FD23787A
:104ED000002BFAD1254A0D231370254B0A21197096
:104EE0004FF0FF3159600421197213231372012608
:104EF000267003F0E3FD2E70D8E72378002BD5D180
:104F00001A4B1B7A43B91B4801F05CF80020FEF7EE
:104F10002FFD02232B70C9E7174801F053F84FF417
:104F2000FA60FBF789FF00232B70BFE7FFF75AFFFA
:104F300001F046FD114B1B68C01AC728B6D90022E4
:104F40000F4B1A7000220F4BA3F8502001F038FDD0
:104F5000034B1860FFF746FF00232B70A6E700BF46
:104F6000E8930020E0930020F69600202097002090
:104F7000D89200206CA802087CA80208E4930020C4
:104F8000F9930020D07400200020704708B5FFF787
:104F9000D5FE01F015FD024B1860002008BD00BFD2
:104FA000DC93002070B5461E084D0024FEF740FE3D
:104FB000025D16F8013F534015F8012F134203D14B
:104FC0000134082CF2D170BD002070BDD3A70208B7
:104FD00038B50546FFF7E6FF044638B9044804F043
:104FE0000FFA284604F00EFA04F008FA204638BDFD
:104FF000DCA7020810B50446044804F001FA204674
:1050000004F000FA04F0FAF9012010BDECA7020840
:1050100008B5024800F0D6FF08BD00BF9CA80208F2
:1050200008B5024800F0CEFFFEE700BFACA80208BA
:1050300008B5024800F0C6FFFEE700BFC4A802089A
:1050400008B5024800F0BEFFFEE700BFDCA802087A
:1050500008B5024800F0B6FFFEE700BFF4A802085A
:10506000704700BF704700BF704700BF2DE9F04395
:10507000B1B001211F2001F041FC40230193012424
:105080008DF808404FF000088DF80A808DF80B402D
:1050900002278DF809706E4D01A9284601F0C2FA69
:1050A00021464FF4804001F053FC4FF4807301938C
:1050B0004FF003098DF809908DF808708DF80A807B
:1050C0008DF80B80634E01A9304601F0ABFA8F23B7
:1050D000019301A9304601F0A5FA0B224146304662
:1050E00001F0F2FA0B222146304601F0EDFA0B22D4
:1050F0003946304601F0E8FA0B224946304601F0C5
:10510000E3FA0B220721304601F0DEFA43F60343AF
:10511000019306F5806601A9304601F083FA0B225F
:105120004146304601F0D0FA0B222146304601F0CC
:10513000CBFA0B220A21304601F0C6FA0B221146A7
:10514000304601F0C1FA0B220C21304601F0BCFAC6
:105150000B220D21304601F0B7FA3E23019301A93D
:10516000284601F05FFA0B222146284601F0ACFAEE
:105170000B223946284601F0A7FA0B224946284659
:1051800001F0A2FA0B220421284601F09DFA0B221D
:105190000521284601F098FA0423019305F50065DE
:1051A0000DEB0301284601F03DFA0B223946284653
:1051B00001F08AFA21464FF0606001F09FFBFBF797
:1051C0001FF8FBF7EBF9FBF7F1F90128FBD001A879
:1051D000FBF722F801240194002308934FF4007296
:1051E0000B920C930F931293149315931693219390
:1051F0004FF0007222924FF40011249126932793CE
:10520000042329932A924FF480332B934FF4800385
:105210002C934FF400532D934FF480432F9321464A
:1052200001A8FBF781FA21460B48FBF7C7F93D239C
:105230008DF8043002238DF805308DF806408DF886
:10524000074001A803F0F4FF31B0BDE8F08300BFD0
:1052500000080240000002404000010008B501E0E3
:10526000FFF7D6FAFBF72CF90028F9D14020FBF71D
:10527000B7F94FF48030FBF7B3F908BD70B50B4BAD
:105280001B689E6861B10C460025628961687019CF
:1052900004F0B2FE63891D442468002CF5D100E0BF
:1052A0000025A8B2FBF760F8002070BD307A00201E
:1052B0002DE9F04184B0074601A8FBF739F8DDF885
:1052C00008800322BDF80410104600F063FF064674
:1052D00060B104460025628908EB0501606804F0AE
:1052E0008BFE63891D442468002CF4D11C4B196883
:1052F0008B68012B03D90B688A6812B90CE0039BF9
:10530000FAE700224FF00045154C1D60DB680132C2
:10531000216888688242F8D300238B6041F214032D
:10532000104AD35813F0800F08D01346802141F261
:1053300014029950002141F20802995056B13B697C
:10534000394630469847044638B1304600F0F8FEFA
:10535000204602E04FF0FF30FFE704B0BDE8F081E7
:10536000608600200080024010B50446732380F858
:105370002E30742380F82F301F4B43611F4B836105
:10538000062380F82630FEF753FC037884F8273094
:10539000437884F82830837884F82930C37884F8F7
:1053A0002A30037984F82B30437984F82C3004F1C7
:1053B00027010020FAF7A4FF40F2DC53A384322334
:1053C00084F82D300E4C02220E492046FBF7BEF821
:1053D00002220D490D48FBF743F84FF440012046E7
:1053E000FBF7D8F84FF4400104F12000FBF7D2F8A6
:1053F000FBF730F9002010BD3D5A02087D5202082B
:10540000347A0020A4860020747A0020648600206C
:1054100010B401F003039B0001F0FC0101F1804195
:1054200001F59C318C680F229A4024EA02028A60BE
:105430008A6898401043886010BC704770B170B59E
:10544000044606262568606800F07AFE214630464C
:10545000FDF704FA2C46002DF4D170BD704700BF53
:105460002DE9F04F83B0054690B1584A137803EB0D
:10547000830002EB8002927C022A09D12C6802464A
:10548000524800EB82029268944201D158B299E0EE
:105490004F4B002086460A26844601903446B0468B
:1054A000B1465FFA80FA0A2C03D19A7B0AB944B25A
:1054B00031E01A469F7B012F1AD14DB1D5F800B0CB
:1054C0005F68BB4504D1414B83F800A040B279E04E
:1054D00017682FB1D27B72451DD346B296461AE0AB
:1054E000D27B019FBA4216D34FFA80F9019212E0A3
:1054F000022F10D14DB1D5F800B05F68BB4504D183
:10550000324B83F800A040B25CE0D27B624524BFFE
:105510004FFA80F89446013014330A28C1D10A2C7E
:1055200003D111F0010F49D13CE011F0020F3CD141
:10553000092C01DCE4B21BE0B8F1090F02DC5FFAD0
:1055400088F415E0B9F1090F02DC5FFA89F40FE085
:10555000092E2DDCF4B21D4EA7003B1906EB830388
:105560005868FFF76BFF274406EB8706002373603C
:10557000234604EB8402154901EB82020021917459
:1055800035B1286804EB8402104901EB8202906077
:105590000E4A03EB830302EB83030021D9741470DA
:1055A00060B20FE04FF0FF300CE04FF0FF3009E049
:1055B0004FF0FF3006E04FF0FF3003E011F0020F34
:1055C000BAD0F8E703B0BDE8F08F00BF287500201F
:1055D0002C750020F8B506460F464C6806210139A7
:1055E000C9B2585C6054555C601885710029F6D1C9
:1055F0004FF4006000F070FFA081B3693946304677
:105600009847F8BD00295ED02DE9F0410C460968A5
:1056100000295BD01E461746054601462046FEF788
:105620001BF8002856D1D4F800804FF0704000F0ED
:105630006BFF08EA00084FF0604000F065FF80450E
:105640004CD031462046FFF70BFF00284BDB0646C7
:1056500000EB8003254A02EB830302229A745D610A
:10566000062300EB8004214A02EB8404013BDBB2F9
:10567000F95CE2181173002BF8D100EB80001B4B92
:1056800003EB80000023C374416859B306EB860620
:10569000164B03EB86064FF006080B6873604C68E8
:1056A0004046FDF7DBF83B4605F127022146284638
:1056B000FFF790FF204600F043FD71680029ECD110
:1056C0000020BDE8F0816FF0090070476FF009001D
:1056D000BDE8F0816FF00900BDE8F0816FF00900CE
:1056E000BDE8F0810020BDE8F08100BF28750020F2
:1056F00080B108B503464968D1F81A005A6842409B
:105700009868024205D1184600238A1D1A31FFF716
:1057100079FF08BD704700BF00287AD02DE9F0411D
:1057200082B0064614460D465389292B03D81046ED
:1057300000F006FD6AE05768B7F80E80012000F01F
:10574000CBFE804517D1B7F8128040F2046000F01C
:10575000C3FE80450FD1B7F810804FF4006000F011
:10576000BBFE804507D1B7F80C8040F6060000F07C
:10577000B3FE804503D0204600F0E2FC46E0F86925
:105780000190736893B1D7F8262093420ED101237C
:1057900007F1160201A93046FFF734FFB88A00F07E
:1057A0009BFE01280FD0022829D02CE0002307F10E
:1057B000160201A93046FFF725FFB88A00F08CFEDB
:1057C000022820D11BE0022000F086FEB882FB698F
:1057D000C7F826307368FB610623013BDBB2FA1879
:1057E000917D82F82010F954E95C9175E95C917122
:1057F000002BF2D1B36921463046984703E001A956
:10580000304603F003FF204600F09AFC02B0BDE8EA
:10581000F0817047F8B505460F4600222A21032083
:1058200000F0B8FC002840D006464468012000F093
:1058300053FEA08206231E48013BDBB2E91891F813
:1058400027E0E21882F816E010F803E082F820E082
:1058500000EB030E9EF808E004F803E091F827102F
:105860009171002BE8D16B68E3613B68C4F8263086
:10587000012000F031FEE0814FF4006000F02CFECA
:10588000208240F2046000F027FE608240F60600AD
:1058900000F022FEA081AB693146284698470446B5
:1058A000304600F04DFC2046F8BD4FF0FF30F8BD0B
:1058B0000CA90208F8B507460D46164601462846CB
:1058C000FDF7CAFE00287DD12C684FF0704000F033
:1058D0001BFE04404FF0604000F016FE844274D07E
:1058E000002D75D02B68002B75D001212846FFF7BD
:1058F000B7FD041E72DB04EB84034E4A02EB830304
:105900009B7C33B904EB840302EB830301229A747A
:1059100005E0012B03D0002E40F081807AE029467B
:105920003846FFF777FF0546002E59D004EB840375
:10593000404A02EB83039B7C022B0CD104EB8404D2
:105940003D4B03EB8403083307F127023146384609
:10595000FFF740FEF8BD012B43D1337B012B41D132
:10596000334602E01A7B012A3DD11B68002BF9D196
:1059700042E03146384600F00DFD002842D038465E
:1059800000F0DEFB3CE000230B604E6004EB840380
:10599000284A02EB83035A680AB906E01A461368DC
:1059A000002BFBD111600020F8BD04EB8404214BD7
:1059B00003EB840359600020F8BD304600F0C0FBC3
:1059C0002846F8BD6FF00900F8BD6FF00900F8BD7A
:1059D0006FF00900F8BD6FF00900F8BD2046F8BD72
:1059E000F8BDF8BD334600221989032000F0D2FB30
:1059F00007460028BDD103E0304600F0A3FC02E0DA
:105A00002846F8BD3E460620FCF712FF0146002856
:105A1000B9D1D2E729463846FFF7FCFEF8BD04EBC2
:105A20008403044A02EB83039B7C022B86D04FF055
:105A3000FF30F8BD287500202C750020F0B583B02C
:105A400004460E4615460E21304600F03DFB002868
:105A500045D121462846FDF7FFFDC0BB2F684FF01A
:105A6000704000F051FD07404FF0604000F04CFDE9
:105A700087421CD101238DF8003000238DF80130BE
:105A80005E238DF80230286800F03EFDC0F306402A
:105A90008DF80300286800F037FD000A8DF8040037
:105AA000286800F031FD8DF805006B4610E02A688B
:105AB00063685340A268134203D0E36893B104F1D2
:105AC0000C05324629462046FFF7F4FE0CE0074B52
:105AD00004F1270231462046FFF77CFD04E06FF019
